{
  "_format": "hh-sol-artifact-1",
  "contractName": "DataConsumer",
  "sourceName": "contracts/lib/DataConsumer.sol",
  "abi": [
    {
      "inputs": [
        {
          "internalType": "address",
          "name": "",
          "type": "address"
        }
      ],
      "name": "dataFeedAddress",
      "outputs": [
        {
          "internalType": "address",
          "name": "",
          "type": "address"
        }
      ],
      "stateMutability": "view",
      "type": "function"
    },
    {
      "inputs": [
        {
          "internalType": "address",
          "name": "_token",
          "type": "address"
        }
      ],
      "name": "getChainlinkDataFeedLatestAnswer",
      "outputs": [
        {
          "internalType": "int256",
          "name": "",
          "type": "int256"
        }
      ],
      "stateMutability": "view",
      "type": "function"
    }
  ],
  "bytecode": "0x608060405234801561000f575f80fd5b506103d08061001d5f395ff3fe608060405234801561000f575f80fd5b5060043610610034575f3560e01c8063a8320b1b14610038578063e7078f9214610068575b5f80fd5b610052600480360381019061004d9190610203565b610098565b60405161005f919061023d565b60405180910390f35b610082600480360381019061007d9190610203565b6100c7565b60405161008f919061026e565b60405180910390f35b5f602052805f5260405f205f915054906101000a900473ffffffffffffffffffffffffffffffffffffffff1681565b5f805f808473ffffffffffffffffffffffffffffffffffffffff1673ffffffffffffffffffffffffffffffffffffffff1681526020019081526020015f205f9054906101000a900473ffffffffffffffffffffffffffffffffffffffff1690505f8173ffffffffffffffffffffffffffffffffffffffff1663feaf968c6040518163ffffffff1660e01b815260040160a060405180830381865afa158015610171573d5f803e3d5ffd5b505050506040513d601f19601f820116820180604052508101906101959190610323565b5050509150508092505050919050565b5f80fd5b5f73ffffffffffffffffffffffffffffffffffffffff82169050919050565b5f6101d2826101a9565b9050919050565b6101e2816101c8565b81146101ec575f80fd5b50565b5f813590506101fd816101d9565b92915050565b5f60208284031215610218576102176101a5565b5b5f610225848285016101ef565b91505092915050565b610237816101c8565b82525050565b5f6020820190506102505f83018461022e565b92915050565b5f819050919050565b61026881610256565b82525050565b5f6020820190506102815f83018461025f565b92915050565b5f69ffffffffffffffffffff82169050919050565b6102a581610287565b81146102af575f80fd5b50565b5f815190506102c08161029c565b92915050565b6102cf81610256565b81146102d9575f80fd5b50565b5f815190506102ea816102c6565b92915050565b5f819050919050565b610302816102f0565b811461030c575f80fd5b50565b5f8151905061031d816102f9565b92915050565b5f805f805f60a0868803121561033c5761033b6101a5565b5b5f610349888289016102b2565b955050602061035a888289016102dc565b945050604061036b8882890161030f565b935050606061037c8882890161030f565b925050608061038d888289016102b2565b915050929550929590935056fea2646970667358221220f968bb453f75964ae46476fe7041b6047f37dd05179a55c2d9898b85388e934e64736f6c63430008140033",
  "linkReferences": {},
  "deployedLinkReferences": {}
}