{
  "_format": "hh-sol-artifact-1",
  "contractName": "Client",
  "sourceName": "@chainlink/contracts-ccip/src/v0.8/ccip/libraries/Client.sol",
  "abi": [
    {
      "inputs": [],
      "name": "EVM_EXTRA_ARGS_V1_TAG",
      "outputs": [
        {
          "internalType": "bytes4",
          "name": "",
          "type": "bytes4"
        }
      ],
      "stateMutability": "view",
      "type": "function"
    }
  ],
  "bytecode": "0x60e061004d600b8282823980515f1a607314610041577f4e487b71000000000000000000000000000000000000000000000000000000005f525f60045260245ffd5b305f52607381538281f3fe73000000000000000000000000000000000000000030146080604052600436106032575f3560e01c80633ab8c0d0146036575b5f80fd5b603c6050565b604051604791906093565b60405180910390f35b6397a657c960e01b81565b5f7fffffffff0000000000000000000000000000000000000000000000000000000082169050919050565b608d81605b565b82525050565b5f60208201905060a45f8301846086565b9291505056fea264697066735822122066603f9e37979ebe6945011a01d8044c42b965214b5c9ec23fde9dddb906bbb864736f6c63430008140033",
  "linkReferences": {},
  "deployedLinkReferences": {}
}