{
  "_format": "hh-sol-artifact-1",
  "contractName": "ERC6551Registry",
  "sourceName": "contracts/ERC6551Registry.sol",
  "abi": [
    {
      "inputs": [],
      "name": "Create2EmptyBytecode",
      "type": "error"
    },
    {
      "inputs": [],
      "name": "Create2FailedDeployment",
      "type": "error"
    },
    {
      "inputs": [
        {
          "internalType": "uint256",
          "name": "balance",
          "type": "uint256"
        },
        {
          "internalType": "uint256",
          "name": "needed",
          "type": "uint256"
        }
      ],
      "name": "Create2InsufficientBalance",
      "type": "error"
    },
    {
      "inputs": [],
      "name": "InitializationFailed",
      "type": "error"
    },
    {
      "anonymous": false,
      "inputs": [
        {
          "indexed": false,
          "internalType": "address",
          "name": "account",
          "type": "address"
        },
        {
          "indexed": false,
          "internalType": "address",
          "name": "implementation",
          "type": "address"
        },
        {
          "indexed": false,
          "internalType": "uint256",
          "name": "chainId",
          "type": "uint256"
        },
        {
          "indexed": false,
          "internalType": "address",
          "name": "tokenContract",
          "type": "address"
        },
        {
          "indexed": false,
          "internalType": "uint256",
          "name": "tokenId",
          "type": "uint256"
        },
        {
          "indexed": false,
          "internalType": "uint256",
          "name": "salt",
          "type": "uint256"
        }
      ],
      "name": "AccountCreated",
      "type": "event"
    },
    {
      "inputs": [
        {
          "internalType": "address",
          "name": "implementation",
          "type": "address"
        },
        {
          "internalType": "uint256",
          "name": "chainId",
          "type": "uint256"
        },
        {
          "internalType": "address",
          "name": "tokenContract",
          "type": "address"
        },
        {
          "internalType": "uint256",
          "name": "tokenId",
          "type": "uint256"
        },
        {
          "internalType": "uint256",
          "name": "salt",
          "type": "uint256"
        }
      ],
      "name": "account",
      "outputs": [
        {
          "internalType": "address",
          "name": "",
          "type": "address"
        }
      ],
      "stateMutability": "view",
      "type": "function"
    },
    {
      "inputs": [
        {
          "internalType": "address",
          "name": "implementation",
          "type": "address"
        },
        {
          "internalType": "uint256",
          "name": "chainId",
          "type": "uint256"
        },
        {
          "internalType": "address",
          "name": "tokenContract",
          "type": "address"
        },
        {
          "internalType": "uint256",
          "name": "tokenId",
          "type": "uint256"
        },
        {
          "internalType": "uint256",
          "name": "salt",
          "type": "uint256"
        },
        {
          "internalType": "bytes",
          "name": "initData",
          "type": "bytes"
        }
      ],
      "name": "createAccount",
      "outputs": [
        {
          "internalType": "address",
          "name": "",
          "type": "address"
        }
      ],
      "stateMutability": "nonpayable",
      "type": "function"
    }
  ],
  "bytecode": "0x608060405234801561000f575f80fd5b506108d38061001d5f395ff3fe608060405234801561000f575f80fd5b5060043610610034575f3560e01c80635e9bc53614610038578063da7323b314610068575b5f80fd5b610052600480360381019061004d9190610445565b610098565b60405161005f91906104cb565b60405180910390f35b610082600480360381019061007d9190610545565b6100c8565b60405161008f91906104cb565b60405180910390f35b5f806100a78787878787610225565b8051906020012090506100bc835f1b82610279565b91505095945050505050565b5f806100d78989898989610225565b90505f6100ed865f1b8380519060200120610279565b90505f8173ffffffffffffffffffffffffffffffffffffffff163b1461011757809250505061021a565b6101245f875f1b8461028d565b90505f85859050146101d3575f8173ffffffffffffffffffffffffffffffffffffffff16868660405161015892919061062b565b5f604051808303815f865af19150503d805f8114610191576040519150601f19603f3d011682016040523d82523d5f602084013e610196565b606091505b50509050806101d1576040517f19b991a800000000000000000000000000000000000000000000000000000000815260040160405180910390fd5b505b7f07fba7bba1191da7ee1155dcfa0030701c9c9a9cc34a93b991fc6fd0c9268d8f818b8b8b8b8b60405161020c96959493929190610652565b60405180910390a180925050505b979650505050505050565b6060858286868660405160200161023f94939291906106b1565b60405160208183030381529060405260405160200161025f929190610839565b604051602081830303815290604052905095945050505050565b5f610285838330610386565b905092915050565b5f834710156102d55747846040517fe4bbecac0000000000000000000000000000000000000000000000000000000081526004016102cc929190610876565b60405180910390fd5b5f82510361030f576040517f4ca249dc00000000000000000000000000000000000000000000000000000000815260040160405180910390fd5b8282516020840186f590505f73ffffffffffffffffffffffffffffffffffffffff168173ffffffffffffffffffffffffffffffffffffffff160361037f576040517f741752c200000000000000000000000000000000000000000000000000000000815260040160405180910390fd5b9392505050565b5f604051836040820152846020820152828152600b810160ff815360558120925050509392505050565b5f80fd5b5f80fd5b5f73ffffffffffffffffffffffffffffffffffffffff82169050919050565b5f6103e1826103b8565b9050919050565b6103f1816103d7565b81146103fb575f80fd5b50565b5f8135905061040c816103e8565b92915050565b5f819050919050565b61042481610412565b811461042e575f80fd5b50565b5f8135905061043f8161041b565b92915050565b5f805f805f60a0868803121561045e5761045d6103b0565b5b5f61046b888289016103fe565b955050602061047c88828901610431565b945050604061048d888289016103fe565b935050606061049e88828901610431565b92505060806104af88828901610431565b9150509295509295909350565b6104c5816103d7565b82525050565b5f6020820190506104de5f8301846104bc565b92915050565b5f80fd5b5f80fd5b5f80fd5b5f8083601f840112610505576105046104e4565b5b8235905067ffffffffffffffff811115610522576105216104e8565b5b60208301915083600182028301111561053e5761053d6104ec565b5b9250929050565b5f805f805f805f60c0888a0312156105605761055f6103b0565b5b5f61056d8a828b016103fe565b975050602061057e8a828b01610431565b965050604061058f8a828b016103fe565b95505060606105a08a828b01610431565b94505060806105b18a828b01610431565b93505060a088013567ffffffffffffffff8111156105d2576105d16103b4565b5b6105de8a828b016104f0565b925092505092959891949750929550565b5f81905092915050565b828183375f83830152505050565b5f61061283856105ef565b935061061f8385846105f9565b82840190509392505050565b5f610637828486610607565b91508190509392505050565b61064c81610412565b82525050565b5f60c0820190506106655f8301896104bc565b61067260208301886104bc565b61067f6040830187610643565b61068c60608301866104bc565b6106996080830185610643565b6106a660a0830184610643565b979650505050505050565b5f6080820190506106c45f830187610643565b6106d16020830186610643565b6106de60408301856104bc565b6106eb6060830184610643565b95945050505050565b5f81905092915050565b7f3d60ad80600a3d3981f3363d3d373d3d3d363d730000000000000000000000005f82015250565b5f6107326014836106f4565b915061073d826106fe565b601482019050919050565b5f8160601b9050919050565b5f61075e82610748565b9050919050565b5f61076f82610754565b9050919050565b610787610782826103d7565b610765565b82525050565b7f5af43d82803e903d91602b57fd5bf300000000000000000000000000000000005f82015250565b5f6107c1600f836106f4565b91506107cc8261078d565b600f82019050919050565b5f81519050919050565b5f5b838110156107fe5780820151818401526020810190506107e3565b5f8484015250505050565b5f610813826107d7565b61081d81856105ef565b935061082d8185602086016107e1565b80840191505092915050565b5f61084382610726565b915061084f8285610776565b60148201915061085e826107b5565b915061086a8284610809565b91508190509392505050565b5f6040820190506108895f830185610643565b6108966020830184610643565b939250505056fea26469706673582212207949e713ecbb688cfac7652f78ca7669bbc2ec6ac765aaafdf746d1c7f78f04b64736f6c63430008140033",
  "linkReferences": {},
  "deployedLinkReferences": {}
}