{
  "_format": "hh-sol-artifact-1",
  "contractName": "ERC6551Registry",
  "sourceName": "contracts/ERC6551Registry.sol",
  "abi": [
    {
      "inputs": [
        {
          "internalType": "address",
          "name": "router",
          "type": "address"
        }
      ],
      "stateMutability": "nonpayable",
      "type": "constructor"
    },
    {
      "inputs": [],
      "name": "Create2EmptyBytecode",
      "type": "error"
    },
    {
      "inputs": [],
      "name": "Create2FailedDeployment",
      "type": "error"
    },
    {
      "inputs": [
        {
          "internalType": "uint256",
          "name": "balance",
          "type": "uint256"
        },
        {
          "internalType": "uint256",
          "name": "needed",
          "type": "uint256"
        }
      ],
      "name": "Create2InsufficientBalance",
      "type": "error"
    },
    {
      "inputs": [
        {
          "internalType": "address",
          "name": "owner",
          "type": "address"
        },
        {
          "internalType": "address",
          "name": "target",
          "type": "address"
        },
        {
          "internalType": "uint256",
          "name": "value",
          "type": "uint256"
        }
      ],
      "name": "FailedToWithdrawEth",
      "type": "error"
    },
    {
      "inputs": [],
      "name": "InitializationFailed",
      "type": "error"
    },
    {
      "inputs": [
        {
          "internalType": "address",
          "name": "router",
          "type": "address"
        }
      ],
      "name": "InvalidRouter",
      "type": "error"
    },
    {
      "anonymous": false,
      "inputs": [
        {
          "indexed": false,
          "internalType": "address",
          "name": "account",
          "type": "address"
        },
        {
          "indexed": false,
          "internalType": "address",
          "name": "implementation",
          "type": "address"
        },
        {
          "indexed": false,
          "internalType": "uint256",
          "name": "chainId",
          "type": "uint256"
        },
        {
          "indexed": false,
          "internalType": "address",
          "name": "tokenContract",
          "type": "address"
        },
        {
          "indexed": false,
          "internalType": "uint256",
          "name": "tokenId",
          "type": "uint256"
        },
        {
          "indexed": false,
          "internalType": "uint256",
          "name": "salt",
          "type": "uint256"
        }
      ],
      "name": "AccountCreated",
      "type": "event"
    },
    {
      "anonymous": false,
      "inputs": [],
      "name": "CreateAccountCallSuccessfull",
      "type": "event"
    },
    {
      "anonymous": false,
      "inputs": [
        {
          "indexed": false,
          "internalType": "bytes32",
          "name": "messageId",
          "type": "bytes32"
        }
      ],
      "name": "MessageSent",
      "type": "event"
    },
    {
      "anonymous": false,
      "inputs": [
        {
          "indexed": true,
          "internalType": "address",
          "name": "from",
          "type": "address"
        },
        {
          "indexed": true,
          "internalType": "address",
          "name": "to",
          "type": "address"
        }
      ],
      "name": "OwnershipTransferRequested",
      "type": "event"
    },
    {
      "anonymous": false,
      "inputs": [
        {
          "indexed": true,
          "internalType": "address",
          "name": "from",
          "type": "address"
        },
        {
          "indexed": true,
          "internalType": "address",
          "name": "to",
          "type": "address"
        }
      ],
      "name": "OwnershipTransferred",
      "type": "event"
    },
    {
      "inputs": [
        {
          "internalType": "uint256",
          "name": "",
          "type": "uint256"
        }
      ],
      "name": "CCIPRouteAddress",
      "outputs": [
        {
          "internalType": "address",
          "name": "",
          "type": "address"
        }
      ],
      "stateMutability": "view",
      "type": "function"
    },
    {
      "inputs": [
        {
          "internalType": "uint256",
          "name": "",
          "type": "uint256"
        }
      ],
      "name": "ERC6551AccountAddress",
      "outputs": [
        {
          "internalType": "address",
          "name": "",
          "type": "address"
        }
      ],
      "stateMutability": "view",
      "type": "function"
    },
    {
      "inputs": [
        {
          "internalType": "uint256",
          "name": "",
          "type": "uint256"
        }
      ],
      "name": "ERC6551RegistryAddress",
      "outputs": [
        {
          "internalType": "address",
          "name": "",
          "type": "address"
        }
      ],
      "stateMutability": "view",
      "type": "function"
    },
    {
      "inputs": [],
      "name": "acceptOwnership",
      "outputs": [],
      "stateMutability": "nonpayable",
      "type": "function"
    },
    {
      "inputs": [
        {
          "internalType": "address",
          "name": "implementation",
          "type": "address"
        },
        {
          "internalType": "uint256",
          "name": "chainId",
          "type": "uint256"
        },
        {
          "internalType": "address",
          "name": "tokenContract",
          "type": "address"
        },
        {
          "internalType": "uint256",
          "name": "tokenId",
          "type": "uint256"
        },
        {
          "internalType": "uint256",
          "name": "salt",
          "type": "uint256"
        }
      ],
      "name": "account",
      "outputs": [
        {
          "internalType": "address",
          "name": "",
          "type": "address"
        }
      ],
      "stateMutability": "view",
      "type": "function"
    },
    {
      "inputs": [
        {
          "internalType": "uint256",
          "name": "_chain",
          "type": "uint256"
        },
        {
          "internalType": "address",
          "name": "_ERC6551Registry",
          "type": "address"
        },
        {
          "internalType": "address",
          "name": "_ERC6551Account",
          "type": "address"
        }
      ],
      "name": "addCCIPAddress",
      "outputs": [],
      "stateMutability": "nonpayable",
      "type": "function"
    },
    {
      "inputs": [
        {
          "internalType": "uint256",
          "name": "_chain",
          "type": "uint256"
        },
        {
          "internalType": "address",
          "name": "_route",
          "type": "address"
        }
      ],
      "name": "addCCIPRouteAddress",
      "outputs": [],
      "stateMutability": "nonpayable",
      "type": "function"
    },
    {
      "inputs": [
        {
          "components": [
            {
              "internalType": "bytes32",
              "name": "messageId",
              "type": "bytes32"
            },
            {
              "internalType": "uint64",
              "name": "sourceChainSelector",
              "type": "uint64"
            },
            {
              "internalType": "bytes",
              "name": "sender",
              "type": "bytes"
            },
            {
              "internalType": "bytes",
              "name": "data",
              "type": "bytes"
            },
            {
              "components": [
                {
                  "internalType": "address",
                  "name": "token",
                  "type": "address"
                },
                {
                  "internalType": "uint256",
                  "name": "amount",
                  "type": "uint256"
                }
              ],
              "internalType": "struct Client.EVMTokenAmount[]",
              "name": "destTokenAmounts",
              "type": "tuple[]"
            }
          ],
          "internalType": "struct Client.Any2EVMMessage",
          "name": "message",
          "type": "tuple"
        }
      ],
      "name": "ccipReceive",
      "outputs": [],
      "stateMutability": "nonpayable",
      "type": "function"
    },
    {
      "inputs": [
        {
          "internalType": "address",
          "name": "implementation",
          "type": "address"
        },
        {
          "internalType": "uint256",
          "name": "chainId",
          "type": "uint256"
        },
        {
          "internalType": "address",
          "name": "tokenContract",
          "type": "address"
        },
        {
          "internalType": "uint256",
          "name": "tokenId",
          "type": "uint256"
        },
        {
          "internalType": "uint256",
          "name": "salt",
          "type": "uint256"
        },
        {
          "internalType": "bytes",
          "name": "initData",
          "type": "bytes"
        }
      ],
      "name": "createAccount",
      "outputs": [
        {
          "internalType": "address",
          "name": "",
          "type": "address"
        }
      ],
      "stateMutability": "nonpayable",
      "type": "function"
    },
    {
      "inputs": [],
      "name": "getRouter",
      "outputs": [
        {
          "internalType": "address",
          "name": "",
          "type": "address"
        }
      ],
      "stateMutability": "view",
      "type": "function"
    },
    {
      "inputs": [],
      "name": "owner",
      "outputs": [
        {
          "internalType": "address",
          "name": "",
          "type": "address"
        }
      ],
      "stateMutability": "view",
      "type": "function"
    },
    {
      "inputs": [
        {
          "internalType": "bytes4",
          "name": "interfaceId",
          "type": "bytes4"
        }
      ],
      "name": "supportsInterface",
      "outputs": [
        {
          "internalType": "bool",
          "name": "",
          "type": "bool"
        }
      ],
      "stateMutability": "pure",
      "type": "function"
    },
    {
      "inputs": [
        {
          "internalType": "address",
          "name": "to",
          "type": "address"
        }
      ],
      "name": "transferOwnership",
      "outputs": [],
      "stateMutability": "nonpayable",
      "type": "function"
    },
    {
      "inputs": [
        {
          "internalType": "address",
          "name": "beneficiary",
          "type": "address"
        }
      ],
      "name": "withdraw",
      "outputs": [],
      "stateMutability": "nonpayable",
      "type": "function"
    },
    {
      "inputs": [
        {
          "internalType": "address",
          "name": "beneficiary",
          "type": "address"
        },
        {
          "internalType": "address",
          "name": "token",
          "type": "address"
        }
      ],
      "name": "withdrawToken",
      "outputs": [],
      "stateMutability": "nonpayable",
      "type": "function"
    }
  ],
  "bytecode": "0x60a060405234801562000010575f80fd5b50604051620028d4380380620028d4833981810160405281019062000036919062000374565b33805f835f73ffffffffffffffffffffffffffffffffffffffff168173ffffffffffffffffffffffffffffffffffffffff1603620000ad575f6040517fd7f73334000000000000000000000000000000000000000000000000000000008152600401620000a49190620003b5565b60405180910390fd5b8073ffffffffffffffffffffffffffffffffffffffff1660808173ffffffffffffffffffffffffffffffffffffffff1681525050505f73ffffffffffffffffffffffffffffffffffffffff168273ffffffffffffffffffffffffffffffffffffffff160362000153576040517f08c379a00000000000000000000000000000000000000000000000000000000081526004016200014a906200042e565b60405180910390fd5b815f806101000a81548173ffffffffffffffffffffffffffffffffffffffff021916908373ffffffffffffffffffffffffffffffffffffffff1602179055505f73ffffffffffffffffffffffffffffffffffffffff168173ffffffffffffffffffffffffffffffffffffffff1614620001d857620001d781620001e260201b60201c565b5b50505050620004bc565b3373ffffffffffffffffffffffffffffffffffffffff168173ffffffffffffffffffffffffffffffffffffffff160362000253576040517f08c379a00000000000000000000000000000000000000000000000000000000081526004016200024a906200049c565b60405180910390fd5b8060015f6101000a81548173ffffffffffffffffffffffffffffffffffffffff021916908373ffffffffffffffffffffffffffffffffffffffff1602179055508073ffffffffffffffffffffffffffffffffffffffff165f8054906101000a900473ffffffffffffffffffffffffffffffffffffffff1673ffffffffffffffffffffffffffffffffffffffff167fed8889f560326eb138920d842192f0eb3dd22b4f139c87a2c57538e05bae127860405160405180910390a350565b5f80fd5b5f73ffffffffffffffffffffffffffffffffffffffff82169050919050565b5f6200033e8262000313565b9050919050565b620003508162000332565b81146200035b575f80fd5b50565b5f815190506200036e8162000345565b92915050565b5f602082840312156200038c576200038b6200030f565b5b5f6200039b848285016200035e565b91505092915050565b620003af8162000332565b82525050565b5f602082019050620003ca5f830184620003a4565b92915050565b5f82825260208201905092915050565b7f43616e6e6f7420736574206f776e657220746f207a65726f00000000000000005f82015250565b5f62000416601883620003d0565b91506200042382620003e0565b602082019050919050565b5f6020820190508181035f830152620004478162000408565b9050919050565b7f43616e6e6f74207472616e7366657220746f2073656c660000000000000000005f82015250565b5f62000484601783620003d0565b915062000491826200044e565b602082019050919050565b5f6020820190508181035f830152620004b58162000476565b9050919050565b6080516123f8620004dc5f395f8181610865015261093201526123f85ff3fe608060405234801561000f575f80fd5b50600436106100f3575f3560e01c806379ba509711610095578063b713d28311610064578063b713d2831461026d578063cb8853971461029d578063da7323b3146102b9578063f2fde38b146102e9576100f3565b806379ba50971461020b57806385572ffb146102155780638da5cb5b14610231578063b0f479a11461024f576100f3565b80632ff06af9116100d15780632ff06af9146101875780633aeac4e1146101a357806351cff8d9146101bf5780635e9bc536146101db576100f3565b806301be94d4146100f757806301ffc9a71461012757806314b6e9c014610157575b5f80fd5b610111600480360381019061010c919061139a565b610305565b60405161011e9190611404565b60405180910390f35b610141600480360381019061013c9190611472565b610335565b60405161014e91906114b7565b60405180910390f35b610171600480360381019061016c919061139a565b610406565b60405161017e9190611404565b60405180910390f35b6101a1600480360381019061019c91906114fa565b610436565b005b6101bd60048036038101906101b8919061154a565b6104e1565b005b6101d960048036038101906101d49190611588565b6105e5565b005b6101f560048036038101906101f091906115b3565b6106a4565b6040516102029190611404565b60405180910390f35b6102136106d4565b005b61022f600480360381019061022a919061164c565b610863565b005b610239610908565b6040516102469190611404565b60405180910390f35b61025761092f565b6040516102649190611404565b60405180910390f35b6102876004803603810190610282919061139a565b610956565b6040516102949190611404565b60405180910390f35b6102b760048036038101906102b29190611693565b610986565b005b6102d360048036038101906102ce9190611732565b6109e1565b6040516102e09190611404565b60405180910390f35b61030360048036038101906102fe9190611588565b610f2b565b005b6004602052805f5260405f205f915054906101000a900473ffffffffffffffffffffffffffffffffffffffff1681565b5f7f85572ffb000000000000000000000000000000000000000000000000000000007bffffffffffffffffffffffffffffffffffffffffffffffffffffffff1916827bffffffffffffffffffffffffffffffffffffffffffffffffffffffff191614806103ff57507f01ffc9a7000000000000000000000000000000000000000000000000000000007bffffffffffffffffffffffffffffffffffffffffffffffffffffffff1916827bffffffffffffffffffffffffffffffffffffffffffffffffffffffff1916145b9050919050565b6002602052805f5260405f205f915054906101000a900473ffffffffffffffffffffffffffffffffffffffff1681565b61043e610f3f565b8160025f8581526020019081526020015f205f6101000a81548173ffffffffffffffffffffffffffffffffffffffff021916908373ffffffffffffffffffffffffffffffffffffffff1602179055508060035f8581526020019081526020015f205f6101000a81548173ffffffffffffffffffffffffffffffffffffffff021916908373ffffffffffffffffffffffffffffffffffffffff160217905550505050565b6104e9610f3f565b5f8173ffffffffffffffffffffffffffffffffffffffff166370a08231306040518263ffffffff1660e01b81526004016105239190611404565b602060405180830381865afa15801561053e573d5f803e3d5ffd5b505050506040513d601f19601f8201168201806040525081019061056291906117f0565b90508173ffffffffffffffffffffffffffffffffffffffff1663a9059cbb84836040518363ffffffff1660e01b815260040161059f92919061182a565b6020604051808303815f875af11580156105bb573d5f803e3d5ffd5b505050506040513d601f19601f820116820180604052508101906105df919061187b565b50505050565b6105ed610f3f565b5f4790505f8273ffffffffffffffffffffffffffffffffffffffff1682604051610616906118d3565b5f6040518083038185875af1925050503d805f8114610650576040519150601f19603f3d011682016040523d82523d5f602084013e610655565b606091505b505090508061069f573383836040517f9d11f563000000000000000000000000000000000000000000000000000000008152600401610696939291906118e7565b60405180910390fd5b505050565b5f806106b38787878787610fce565b8051906020012090506106c8835f1b82611022565b91505095945050505050565b60015f9054906101000a900473ffffffffffffffffffffffffffffffffffffffff1673ffffffffffffffffffffffffffffffffffffffff163373ffffffffffffffffffffffffffffffffffffffff1614610763576040517f08c379a000000000000000000000000000000000000000000000000000000000815260040161075a90611976565b60405180910390fd5b5f805f9054906101000a900473ffffffffffffffffffffffffffffffffffffffff169050335f806101000a81548173ffffffffffffffffffffffffffffffffffffffff021916908373ffffffffffffffffffffffffffffffffffffffff1602179055505f60015f6101000a81548173ffffffffffffffffffffffffffffffffffffffff021916908373ffffffffffffffffffffffffffffffffffffffff1602179055503373ffffffffffffffffffffffffffffffffffffffff168173ffffffffffffffffffffffffffffffffffffffff167f8be0079c531659141344cd1fd0a4f28419497f9722a3daafe3b4186f6b6457e060405160405180910390a350565b7f000000000000000000000000000000000000000000000000000000000000000073ffffffffffffffffffffffffffffffffffffffff163373ffffffffffffffffffffffffffffffffffffffff16146108f357336040517fd7f733340000000000000000000000000000000000000000000000000000000081526004016108ea9190611404565b60405180910390fd5b6109058161090090611d2e565b611036565b50565b5f805f9054906101000a900473ffffffffffffffffffffffffffffffffffffffff16905090565b5f7f0000000000000000000000000000000000000000000000000000000000000000905090565b6003602052805f5260405f205f915054906101000a900473ffffffffffffffffffffffffffffffffffffffff1681565b61098e610f3f565b8060045f8481526020019081526020015f205f6101000a81548173ffffffffffffffffffffffffffffffffffffffff021916908373ffffffffffffffffffffffffffffffffffffffff1602179055505050565b5f806109f08989898989610fce565b90505f610a06865f1b8380519060200120611022565b90505f8173ffffffffffffffffffffffffffffffffffffffff163b14610a30578092505050610f20565b610a3d5f875f1b846110db565b9050884614610e2b575f8082604051602401610a599190611404565b6040516020818303038152906040527f45facd8e000000000000000000000000000000000000000000000000000000007bffffffffffffffffffffffffffffffffffffffffffffffffffffffff19166020820180517bffffffffffffffffffffffffffffffffffffffffffffffffffffffff838183161783525050505090505f6040518060a0016040528060025f8f81526020019081526020015f205f9054906101000a900473ffffffffffffffffffffffffffffffffffffffff16604051602001610b259190611404565b604051602081830303815290604052815260200160035f8f81526020019081526020015f205f9054906101000a900473ffffffffffffffffffffffffffffffffffffffff168e8e8e8e88604051602401610b8496959493929190611dba565b6040516020818303038152906040527fda7323b3000000000000000000000000000000000000000000000000000000007bffffffffffffffffffffffffffffffffffffffffffffffffffffffff19166020820180517bffffffffffffffffffffffffffffffffffffffffffffffffffffffff838183161783525050505081526020015f67ffffffffffffffff811115610c2057610c1f6119a8565b5b604051908082528060200260200182016040528015610c5957816020015b610c46611328565b815260200190600190039081610c3e5790505b5081526020015f73ffffffffffffffffffffffffffffffffffffffff16815260200160405180602001604052805f81525081525090505f60045f4681526020019081526020015f205f9054906101000a900473ffffffffffffffffffffffffffffffffffffffff1673ffffffffffffffffffffffffffffffffffffffff166320487ded8e846040518363ffffffff1660e01b8152600401610cfb929190611ff2565b602060405180830381865afa158015610d16573d5f803e3d5ffd5b505050506040513d601f19601f82011682018060405250810190610d3a91906117f0565b905060045f4681526020019081526020015f205f9054906101000a900473ffffffffffffffffffffffffffffffffffffffff1673ffffffffffffffffffffffffffffffffffffffff166396f4e9f9828f856040518463ffffffff1660e01b8152600401610da8929190611ff2565b60206040518083038185885af1158015610dc4573d5f803e3d5ffd5b50505050506040513d601f19601f82011682018060405250810190610de99190612034565b93507f54791b38f3859327992a1ca0590ad3c0f08feba98d1a4f56ab0dca74d203392a84604051610e1a919061206e565b60405180910390a150505050610f1a565b5f8585905014610ed8575f8173ffffffffffffffffffffffffffffffffffffffff168686604051610e5d9291906120ab565b5f604051808303815f865af19150503d805f8114610e96576040519150601f19603f3d011682016040523d82523d5f602084013e610e9b565b606091505b5050905080610ed6576040517f19b991a800000000000000000000000000000000000000000000000000000000815260040160405180910390fd5b505b7f07fba7bba1191da7ee1155dcfa0030701c9c9a9cc34a93b991fc6fd0c9268d8f818b8b8b8b8b604051610f11969594939291906120c3565b60405180910390a15b80925050505b979650505050505050565b610f33610f3f565b610f3c816111d4565b50565b5f8054906101000a900473ffffffffffffffffffffffffffffffffffffffff1673ffffffffffffffffffffffffffffffffffffffff163373ffffffffffffffffffffffffffffffffffffffff1614610fcc576040517f08c379a0000000000000000000000000000000000000000000000000000000008152600401610fc39061216c565b60405180910390fd5b565b60608582868686604051602001610fe8949392919061218a565b6040516020818303038152906040526040516020016110089291906122e0565b604051602081830303815290604052905095945050505050565b5f61102e8383306112fe565b905092915050565b5f3073ffffffffffffffffffffffffffffffffffffffff168260600151604051611060919061231d565b5f604051808303815f865af19150503d805f8114611099576040519150601f19603f3d011682016040523d82523d5f602084013e61109e565b606091505b50509050806110ab575f80fd5b7fe0922c744b0a82a8a9c2f22a04c84050e6995b7f85fa6e2f99a5304506507bf160405160405180910390a15050565b5f834710156111235747846040517fe4bbecac00000000000000000000000000000000000000000000000000000000815260040161111a929190612333565b60405180910390fd5b5f82510361115d576040517f4ca249dc00000000000000000000000000000000000000000000000000000000815260040160405180910390fd5b8282516020840186f590505f73ffffffffffffffffffffffffffffffffffffffff168173ffffffffffffffffffffffffffffffffffffffff16036111cd576040517f741752c200000000000000000000000000000000000000000000000000000000815260040160405180910390fd5b9392505050565b3373ffffffffffffffffffffffffffffffffffffffff168173ffffffffffffffffffffffffffffffffffffffff1603611242576040517f08c379a0000000000000000000000000000000000000000000000000000000008152600401611239906123a4565b60405180910390fd5b8060015f6101000a81548173ffffffffffffffffffffffffffffffffffffffff021916908373ffffffffffffffffffffffffffffffffffffffff1602179055508073ffffffffffffffffffffffffffffffffffffffff165f8054906101000a900473ffffffffffffffffffffffffffffffffffffffff1673ffffffffffffffffffffffffffffffffffffffff167fed8889f560326eb138920d842192f0eb3dd22b4f139c87a2c57538e05bae127860405160405180910390a350565b5f604051836040820152846020820152828152600b810160ff815360558120925050509392505050565b60405180604001604052805f73ffffffffffffffffffffffffffffffffffffffff1681526020015f81525090565b5f604051905090565b5f80fd5b5f80fd5b5f819050919050565b61137981611367565b8114611383575f80fd5b50565b5f8135905061139481611370565b92915050565b5f602082840312156113af576113ae61135f565b5b5f6113bc84828501611386565b91505092915050565b5f73ffffffffffffffffffffffffffffffffffffffff82169050919050565b5f6113ee826113c5565b9050919050565b6113fe816113e4565b82525050565b5f6020820190506114175f8301846113f5565b92915050565b5f7fffffffff0000000000000000000000000000000000000000000000000000000082169050919050565b6114518161141d565b811461145b575f80fd5b50565b5f8135905061146c81611448565b92915050565b5f602082840312156114875761148661135f565b5b5f6114948482850161145e565b91505092915050565b5f8115159050919050565b6114b18161149d565b82525050565b5f6020820190506114ca5f8301846114a8565b92915050565b6114d9816113e4565b81146114e3575f80fd5b50565b5f813590506114f4816114d0565b92915050565b5f805f606084860312156115115761151061135f565b5b5f61151e86828701611386565b935050602061152f868287016114e6565b9250506040611540868287016114e6565b9150509250925092565b5f80604083850312156115605761155f61135f565b5b5f61156d858286016114e6565b925050602061157e858286016114e6565b9150509250929050565b5f6020828403121561159d5761159c61135f565b5b5f6115aa848285016114e6565b91505092915050565b5f805f805f60a086880312156115cc576115cb61135f565b5b5f6115d9888289016114e6565b95505060206115ea88828901611386565b94505060406115fb888289016114e6565b935050606061160c88828901611386565b925050608061161d88828901611386565b9150509295509295909350565b5f80fd5b5f60a082840312156116435761164261162a565b5b81905092915050565b5f602082840312156116615761166061135f565b5b5f82013567ffffffffffffffff81111561167e5761167d611363565b5b61168a8482850161162e565b91505092915050565b5f80604083850312156116a9576116a861135f565b5b5f6116b685828601611386565b92505060206116c7858286016114e6565b9150509250929050565b5f80fd5b5f80fd5b5f80fd5b5f8083601f8401126116f2576116f16116d1565b5b8235905067ffffffffffffffff81111561170f5761170e6116d5565b5b60208301915083600182028301111561172b5761172a6116d9565b5b9250929050565b5f805f805f805f60c0888a03121561174d5761174c61135f565b5b5f61175a8a828b016114e6565b975050602061176b8a828b01611386565b965050604061177c8a828b016114e6565b955050606061178d8a828b01611386565b945050608061179e8a828b01611386565b93505060a088013567ffffffffffffffff8111156117bf576117be611363565b5b6117cb8a828b016116dd565b925092505092959891949750929550565b5f815190506117ea81611370565b92915050565b5f602082840312156118055761180461135f565b5b5f611812848285016117dc565b91505092915050565b61182481611367565b82525050565b5f60408201905061183d5f8301856113f5565b61184a602083018461181b565b9392505050565b61185a8161149d565b8114611864575f80fd5b50565b5f8151905061187581611851565b92915050565b5f602082840312156118905761188f61135f565b5b5f61189d84828501611867565b91505092915050565b5f81905092915050565b50565b5f6118be5f836118a6565b91506118c9826118b0565b5f82019050919050565b5f6118dd826118b3565b9150819050919050565b5f6060820190506118fa5f8301866113f5565b61190760208301856113f5565b611914604083018461181b565b949350505050565b5f82825260208201905092915050565b7f4d7573742062652070726f706f736564206f776e6572000000000000000000005f82015250565b5f61196060168361191c565b915061196b8261192c565b602082019050919050565b5f6020820190508181035f83015261198d81611954565b9050919050565b5f80fd5b5f601f19601f8301169050919050565b7f4e487b71000000000000000000000000000000000000000000000000000000005f52604160045260245ffd5b6119de82611998565b810181811067ffffffffffffffff821117156119fd576119fc6119a8565b5b80604052505050565b5f611a0f611356565b9050611a1b82826119d5565b919050565b5f80fd5b5f819050919050565b611a3681611a24565b8114611a40575f80fd5b50565b5f81359050611a5181611a2d565b92915050565b5f67ffffffffffffffff82169050919050565b611a7381611a57565b8114611a7d575f80fd5b50565b5f81359050611a8e81611a6a565b92915050565b5f80fd5b5f67ffffffffffffffff821115611ab257611ab16119a8565b5b611abb82611998565b9050602081019050919050565b828183375f83830152505050565b5f611ae8611ae384611a98565b611a06565b905082815260208101848484011115611b0457611b03611a94565b5b611b0f848285611ac8565b509392505050565b5f82601f830112611b2b57611b2a6116d1565b5b8135611b3b848260208601611ad6565b91505092915050565b5f67ffffffffffffffff821115611b5e57611b5d6119a8565b5b602082029050602081019050919050565b5f60408284031215611b8457611b83611994565b5b611b8e6040611a06565b90505f611b9d848285016114e6565b5f830152506020611bb084828501611386565b60208301525092915050565b5f611bce611bc984611b44565b611a06565b90508083825260208201905060408402830185811115611bf157611bf06116d9565b5b835b81811015611c1a5780611c068882611b6f565b845260208401935050604081019050611bf3565b5050509392505050565b5f82601f830112611c3857611c376116d1565b5b8135611c48848260208601611bbc565b91505092915050565b5f60a08284031215611c6657611c65611994565b5b611c7060a0611a06565b90505f611c7f84828501611a43565b5f830152506020611c9284828501611a80565b602083015250604082013567ffffffffffffffff811115611cb657611cb5611a20565b5b611cc284828501611b17565b604083015250606082013567ffffffffffffffff811115611ce657611ce5611a20565b5b611cf284828501611b17565b606083015250608082013567ffffffffffffffff811115611d1657611d15611a20565b5b611d2284828501611c24565b60808301525092915050565b5f611d393683611c51565b9050919050565b5f81519050919050565b5f82825260208201905092915050565b5f5b83811015611d77578082015181840152602081019050611d5c565b5f8484015250505050565b5f611d8c82611d40565b611d968185611d4a565b9350611da6818560208601611d5a565b611daf81611998565b840191505092915050565b5f60c082019050611dcd5f8301896113f5565b611dda602083018861181b565b611de760408301876113f5565b611df4606083018661181b565b611e01608083018561181b565b81810360a0830152611e138184611d82565b9050979650505050505050565b611e2981611a57565b82525050565b5f82825260208201905092915050565b5f611e4982611d40565b611e538185611e2f565b9350611e63818560208601611d5a565b611e6c81611998565b840191505092915050565b5f81519050919050565b5f82825260208201905092915050565b5f819050602082019050919050565b611ea9816113e4565b82525050565b611eb881611367565b82525050565b604082015f820151611ed25f850182611ea0565b506020820151611ee56020850182611eaf565b50505050565b5f611ef68383611ebe565b60408301905092915050565b5f602082019050919050565b5f611f1882611e77565b611f228185611e81565b9350611f2d83611e91565b805f5b83811015611f5d578151611f448882611eeb565b9750611f4f83611f02565b925050600181019050611f30565b5085935050505092915050565b5f60a083015f8301518482035f860152611f848282611e3f565b91505060208301518482036020860152611f9e8282611e3f565b91505060408301518482036040860152611fb88282611f0e565b9150506060830151611fcd6060860182611ea0565b5060808301518482036080860152611fe58282611e3f565b9150508091505092915050565b5f6040820190506120055f830185611e20565b81810360208301526120178184611f6a565b90509392505050565b5f8151905061202e81611a2d565b92915050565b5f602082840312156120495761204861135f565b5b5f61205684828501612020565b91505092915050565b61206881611a24565b82525050565b5f6020820190506120815f83018461205f565b92915050565b5f61209283856118a6565b935061209f838584611ac8565b82840190509392505050565b5f6120b7828486612087565b91508190509392505050565b5f60c0820190506120d65f8301896113f5565b6120e360208301886113f5565b6120f0604083018761181b565b6120fd60608301866113f5565b61210a608083018561181b565b61211760a083018461181b565b979650505050505050565b7f4f6e6c792063616c6c61626c65206279206f776e6572000000000000000000005f82015250565b5f61215660168361191c565b915061216182612122565b602082019050919050565b5f6020820190508181035f8301526121838161214a565b9050919050565b5f60808201905061219d5f83018761181b565b6121aa602083018661181b565b6121b760408301856113f5565b6121c4606083018461181b565b95945050505050565b5f81905092915050565b7f3d60ad80600a3d3981f3363d3d373d3d3d363d730000000000000000000000005f82015250565b5f61220b6014836121cd565b9150612216826121d7565b601482019050919050565b5f8160601b9050919050565b5f61223782612221565b9050919050565b5f6122488261222d565b9050919050565b61226061225b826113e4565b61223e565b82525050565b7f5af43d82803e903d91602b57fd5bf300000000000000000000000000000000005f82015250565b5f61229a600f836121cd565b91506122a582612266565b600f82019050919050565b5f6122ba82611d40565b6122c481856118a6565b93506122d4818560208601611d5a565b80840191505092915050565b5f6122ea826121ff565b91506122f6828561224f565b6014820191506123058261228e565b915061231182846122b0565b91508190509392505050565b5f61232882846122b0565b915081905092915050565b5f6040820190506123465f83018561181b565b612353602083018461181b565b9392505050565b7f43616e6e6f74207472616e7366657220746f2073656c660000000000000000005f82015250565b5f61238e60178361191c565b91506123998261235a565b602082019050919050565b5f6020820190508181035f8301526123bb81612382565b905091905056fea264697066735822122035c261a1ab3bce0a50db8fdbcf54222941d9f473e449cbc4987e7e53b5fe29b864736f6c63430008140033",
  "linkReferences": {},
  "deployedLinkReferences": {}
}