{
  "_format": "hh-sol-artifact-1",
  "contractName": "ERC6551Registry",
  "sourceName": "contracts/ERC6551Registry.sol",
  "abi": [
    {
      "inputs": [
        {
          "internalType": "address",
          "name": "router",
          "type": "address"
        }
      ],
      "stateMutability": "nonpayable",
      "type": "constructor"
    },
    {
      "inputs": [],
      "name": "Create2EmptyBytecode",
      "type": "error"
    },
    {
      "inputs": [],
      "name": "Create2FailedDeployment",
      "type": "error"
    },
    {
      "inputs": [
        {
          "internalType": "uint256",
          "name": "balance",
          "type": "uint256"
        },
        {
          "internalType": "uint256",
          "name": "needed",
          "type": "uint256"
        }
      ],
      "name": "Create2InsufficientBalance",
      "type": "error"
    },
    {
      "inputs": [
        {
          "internalType": "address",
          "name": "owner",
          "type": "address"
        },
        {
          "internalType": "address",
          "name": "target",
          "type": "address"
        },
        {
          "internalType": "uint256",
          "name": "value",
          "type": "uint256"
        }
      ],
      "name": "FailedToWithdrawEth",
      "type": "error"
    },
    {
      "inputs": [],
      "name": "InitializationFailed",
      "type": "error"
    },
    {
      "inputs": [
        {
          "internalType": "address",
          "name": "router",
          "type": "address"
        }
      ],
      "name": "InvalidRouter",
      "type": "error"
    },
    {
      "anonymous": false,
      "inputs": [
        {
          "indexed": false,
          "internalType": "address",
          "name": "account",
          "type": "address"
        },
        {
          "indexed": false,
          "internalType": "address",
          "name": "implementation",
          "type": "address"
        },
        {
          "indexed": false,
          "internalType": "uint256",
          "name": "chainId",
          "type": "uint256"
        },
        {
          "indexed": false,
          "internalType": "address",
          "name": "tokenContract",
          "type": "address"
        },
        {
          "indexed": false,
          "internalType": "uint256",
          "name": "tokenId",
          "type": "uint256"
        },
        {
          "indexed": false,
          "internalType": "uint256",
          "name": "salt",
          "type": "uint256"
        }
      ],
      "name": "AccountCreated",
      "type": "event"
    },
    {
      "anonymous": false,
      "inputs": [],
      "name": "CreateAccountCallSuccessfull",
      "type": "event"
    },
    {
      "anonymous": false,
      "inputs": [
        {
          "indexed": false,
          "internalType": "bytes32",
          "name": "messageId",
          "type": "bytes32"
        }
      ],
      "name": "MessageSent",
      "type": "event"
    },
    {
      "anonymous": false,
      "inputs": [
        {
          "indexed": true,
          "internalType": "address",
          "name": "from",
          "type": "address"
        },
        {
          "indexed": true,
          "internalType": "address",
          "name": "to",
          "type": "address"
        }
      ],
      "name": "OwnershipTransferRequested",
      "type": "event"
    },
    {
      "anonymous": false,
      "inputs": [
        {
          "indexed": true,
          "internalType": "address",
          "name": "from",
          "type": "address"
        },
        {
          "indexed": true,
          "internalType": "address",
          "name": "to",
          "type": "address"
        }
      ],
      "name": "OwnershipTransferred",
      "type": "event"
    },
    {
      "inputs": [],
      "name": "CCIPRouteAddress",
      "outputs": [
        {
          "internalType": "address",
          "name": "",
          "type": "address"
        }
      ],
      "stateMutability": "view",
      "type": "function"
    },
    {
      "inputs": [
        {
          "internalType": "uint256",
          "name": "",
          "type": "uint256"
        }
      ],
      "name": "ERC6551AccountAddress",
      "outputs": [
        {
          "internalType": "address",
          "name": "",
          "type": "address"
        }
      ],
      "stateMutability": "view",
      "type": "function"
    },
    {
      "inputs": [
        {
          "internalType": "uint256",
          "name": "",
          "type": "uint256"
        }
      ],
      "name": "ERC6551RegistryAddress",
      "outputs": [
        {
          "internalType": "address",
          "name": "",
          "type": "address"
        }
      ],
      "stateMutability": "view",
      "type": "function"
    },
    {
      "inputs": [],
      "name": "acceptOwnership",
      "outputs": [],
      "stateMutability": "nonpayable",
      "type": "function"
    },
    {
      "inputs": [
        {
          "internalType": "address",
          "name": "implementation",
          "type": "address"
        },
        {
          "internalType": "uint256",
          "name": "chainId",
          "type": "uint256"
        },
        {
          "internalType": "address",
          "name": "tokenContract",
          "type": "address"
        },
        {
          "internalType": "uint256",
          "name": "tokenId",
          "type": "uint256"
        },
        {
          "internalType": "uint256",
          "name": "salt",
          "type": "uint256"
        }
      ],
      "name": "account",
      "outputs": [
        {
          "internalType": "address",
          "name": "",
          "type": "address"
        }
      ],
      "stateMutability": "view",
      "type": "function"
    },
    {
      "inputs": [
        {
          "internalType": "uint256",
          "name": "_chain",
          "type": "uint256"
        },
        {
          "internalType": "address",
          "name": "_ERC6551Registry",
          "type": "address"
        },
        {
          "internalType": "address",
          "name": "_ERC6551Account",
          "type": "address"
        },
        {
          "internalType": "uint64",
          "name": "_destinationChainSelector",
          "type": "uint64"
        }
      ],
      "name": "addCCIPAddress",
      "outputs": [],
      "stateMutability": "nonpayable",
      "type": "function"
    },
    {
      "inputs": [
        {
          "internalType": "uint256",
          "name": "chainId",
          "type": "uint256"
        },
        {
          "internalType": "address",
          "name": "tokenContract",
          "type": "address"
        },
        {
          "internalType": "uint256",
          "name": "tokenId",
          "type": "uint256"
        },
        {
          "internalType": "uint256",
          "name": "salt",
          "type": "uint256"
        },
        {
          "internalType": "bytes",
          "name": "initData",
          "type": "bytes"
        }
      ],
      "name": "caculateFee",
      "outputs": [
        {
          "internalType": "uint256",
          "name": "",
          "type": "uint256"
        }
      ],
      "stateMutability": "view",
      "type": "function"
    },
    {
      "inputs": [
        {
          "components": [
            {
              "internalType": "bytes32",
              "name": "messageId",
              "type": "bytes32"
            },
            {
              "internalType": "uint64",
              "name": "sourceChainSelector",
              "type": "uint64"
            },
            {
              "internalType": "bytes",
              "name": "sender",
              "type": "bytes"
            },
            {
              "internalType": "bytes",
              "name": "data",
              "type": "bytes"
            },
            {
              "components": [
                {
                  "internalType": "address",
                  "name": "token",
                  "type": "address"
                },
                {
                  "internalType": "uint256",
                  "name": "amount",
                  "type": "uint256"
                }
              ],
              "internalType": "struct Client.EVMTokenAmount[]",
              "name": "destTokenAmounts",
              "type": "tuple[]"
            }
          ],
          "internalType": "struct Client.Any2EVMMessage",
          "name": "message",
          "type": "tuple"
        }
      ],
      "name": "ccipReceive",
      "outputs": [],
      "stateMutability": "nonpayable",
      "type": "function"
    },
    {
      "inputs": [
        {
          "internalType": "address",
          "name": "implementation",
          "type": "address"
        },
        {
          "internalType": "uint256",
          "name": "chainId",
          "type": "uint256"
        },
        {
          "internalType": "address",
          "name": "tokenContract",
          "type": "address"
        },
        {
          "internalType": "uint256",
          "name": "tokenId",
          "type": "uint256"
        },
        {
          "internalType": "uint256",
          "name": "salt",
          "type": "uint256"
        },
        {
          "internalType": "bytes",
          "name": "initData",
          "type": "bytes"
        }
      ],
      "name": "createAccount",
      "outputs": [
        {
          "internalType": "address",
          "name": "",
          "type": "address"
        }
      ],
      "stateMutability": "payable",
      "type": "function"
    },
    {
      "inputs": [
        {
          "internalType": "uint256",
          "name": "",
          "type": "uint256"
        }
      ],
      "name": "destinationChainSelector",
      "outputs": [
        {
          "internalType": "uint64",
          "name": "",
          "type": "uint64"
        }
      ],
      "stateMutability": "view",
      "type": "function"
    },
    {
      "inputs": [],
      "name": "getRouter",
      "outputs": [
        {
          "internalType": "address",
          "name": "",
          "type": "address"
        }
      ],
      "stateMutability": "view",
      "type": "function"
    },
    {
      "inputs": [],
      "name": "owner",
      "outputs": [
        {
          "internalType": "address",
          "name": "",
          "type": "address"
        }
      ],
      "stateMutability": "view",
      "type": "function"
    },
    {
      "inputs": [
        {
          "internalType": "bytes4",
          "name": "interfaceId",
          "type": "bytes4"
        }
      ],
      "name": "supportsInterface",
      "outputs": [
        {
          "internalType": "bool",
          "name": "",
          "type": "bool"
        }
      ],
      "stateMutability": "pure",
      "type": "function"
    },
    {
      "inputs": [
        {
          "internalType": "address",
          "name": "to",
          "type": "address"
        }
      ],
      "name": "transferOwnership",
      "outputs": [],
      "stateMutability": "nonpayable",
      "type": "function"
    },
    {
      "inputs": [
        {
          "internalType": "address",
          "name": "beneficiary",
          "type": "address"
        }
      ],
      "name": "withdraw",
      "outputs": [],
      "stateMutability": "nonpayable",
      "type": "function"
    },
    {
      "inputs": [
        {
          "internalType": "address",
          "name": "beneficiary",
          "type": "address"
        },
        {
          "internalType": "address",
          "name": "token",
          "type": "address"
        }
      ],
      "name": "withdrawToken",
      "outputs": [],
      "stateMutability": "nonpayable",
      "type": "function"
    }
  ],
  "bytecode": "0x60a060405234801562000010575f80fd5b5060405162002d1d38038062002d1d8339818101604052810190620000369190620003b4565b33805f835f73ffffffffffffffffffffffffffffffffffffffff168173ffffffffffffffffffffffffffffffffffffffff1603620000ad575f6040517fd7f73334000000000000000000000000000000000000000000000000000000008152600401620000a49190620003f5565b60405180910390fd5b8073ffffffffffffffffffffffffffffffffffffffff1660808173ffffffffffffffffffffffffffffffffffffffff1681525050505f73ffffffffffffffffffffffffffffffffffffffff168273ffffffffffffffffffffffffffffffffffffffff160362000153576040517f08c379a00000000000000000000000000000000000000000000000000000000081526004016200014a906200046e565b60405180910390fd5b815f806101000a81548173ffffffffffffffffffffffffffffffffffffffff021916908373ffffffffffffffffffffffffffffffffffffffff1602179055505f73ffffffffffffffffffffffffffffffffffffffff168173ffffffffffffffffffffffffffffffffffffffff1614620001d857620001d7816200022260201b60201c565b5b5050508060045f6101000a81548173ffffffffffffffffffffffffffffffffffffffff021916908373ffffffffffffffffffffffffffffffffffffffff16021790555050620004fc565b3373ffffffffffffffffffffffffffffffffffffffff168173ffffffffffffffffffffffffffffffffffffffff160362000293576040517f08c379a00000000000000000000000000000000000000000000000000000000081526004016200028a90620004dc565b60405180910390fd5b8060015f6101000a81548173ffffffffffffffffffffffffffffffffffffffff021916908373ffffffffffffffffffffffffffffffffffffffff1602179055508073ffffffffffffffffffffffffffffffffffffffff165f8054906101000a900473ffffffffffffffffffffffffffffffffffffffff1673ffffffffffffffffffffffffffffffffffffffff167fed8889f560326eb138920d842192f0eb3dd22b4f139c87a2c57538e05bae127860405160405180910390a350565b5f80fd5b5f73ffffffffffffffffffffffffffffffffffffffff82169050919050565b5f6200037e8262000353565b9050919050565b620003908162000372565b81146200039b575f80fd5b50565b5f81519050620003ae8162000385565b92915050565b5f60208284031215620003cc57620003cb6200034f565b5b5f620003db848285016200039e565b91505092915050565b620003ef8162000372565b82525050565b5f6020820190506200040a5f830184620003e4565b92915050565b5f82825260208201905092915050565b7f43616e6e6f7420736574206f776e657220746f207a65726f00000000000000005f82015250565b5f6200045660188362000410565b9150620004638262000420565b602082019050919050565b5f6020820190508181035f830152620004878162000448565b9050919050565b7f43616e6e6f74207472616e7366657220746f2073656c660000000000000000005f82015250565b5f620004c460178362000410565b9150620004d1826200048e565b602082019050919050565b5f6020820190508181035f830152620004f581620004b6565b9050919050565b6080516128016200051c5f395f81816109520152610a1f01526128015ff3fe6080604052600436106100f2575f3560e01c80638da5cb5b11610089578063da7323b311610058578063da7323b31461031a578063e0ddbf211461034a578063f2fde38b14610386578063f86660e2146103ae576100f2565b80638da5cb5b14610260578063b0f479a11461028a578063b713d283146102b4578063c9ad49eb146102f0576100f2565b80635d610723116100c55780635d610723146101be5780635e9bc536146101e657806379ba50971461022257806385572ffb14610238576100f2565b806301ffc9a7146100f657806314b6e9c0146101325780633aeac4e11461016e57806351cff8d914610196575b5f80fd5b348015610101575f80fd5b5061011c60048036038101906101179190611693565b6103ea565b60405161012991906116d8565b60405180910390f35b34801561013d575f80fd5b5061015860048036038101906101539190611724565b6104bb565b604051610165919061178e565b60405180910390f35b348015610179575f80fd5b50610194600480360381019061018f91906117d1565b6104eb565b005b3480156101a1575f80fd5b506101bc60048036038101906101b7919061180f565b6105ef565b005b3480156101c9575f80fd5b506101e460048036038101906101df9190611877565b6106ae565b005b3480156101f1575f80fd5b5061020c600480360381019061020791906118db565b610791565b604051610219919061178e565b60405180910390f35b34801561022d575f80fd5b506102366107c1565b005b348015610243575f80fd5b5061025e60048036038101906102599190611974565b610950565b005b34801561026b575f80fd5b506102746109f5565b604051610281919061178e565b60405180910390f35b348015610295575f80fd5b5061029e610a1c565b6040516102ab919061178e565b60405180910390f35b3480156102bf575f80fd5b506102da60048036038101906102d59190611724565b610a43565b6040516102e7919061178e565b60405180910390f35b3480156102fb575f80fd5b50610304610a73565b604051610311919061178e565b60405180910390f35b610334600480360381019061032f9190611a1c565b610a98565b604051610341919061178e565b60405180910390f35b348015610355575f80fd5b50610370600480360381019061036b9190611724565b610f4e565b60405161037d9190611ad5565b60405180910390f35b348015610391575f80fd5b506103ac60048036038101906103a7919061180f565b610f72565b005b3480156103b9575f80fd5b506103d460048036038101906103cf9190611aee565b610f86565b6040516103e19190611b93565b60405180910390f35b5f7f85572ffb000000000000000000000000000000000000000000000000000000007bffffffffffffffffffffffffffffffffffffffffffffffffffffffff1916827bffffffffffffffffffffffffffffffffffffffffffffffffffffffff191614806104b457507f01ffc9a7000000000000000000000000000000000000000000000000000000007bffffffffffffffffffffffffffffffffffffffffffffffffffffffff1916827bffffffffffffffffffffffffffffffffffffffffffffffffffffffff1916145b9050919050565b6002602052805f5260405f205f915054906101000a900473ffffffffffffffffffffffffffffffffffffffff1681565b6104f3611216565b5f8173ffffffffffffffffffffffffffffffffffffffff166370a08231306040518263ffffffff1660e01b815260040161052d919061178e565b602060405180830381865afa158015610548573d5f803e3d5ffd5b505050506040513d601f19601f8201168201806040525081019061056c9190611bc0565b90508173ffffffffffffffffffffffffffffffffffffffff1663a9059cbb84836040518363ffffffff1660e01b81526004016105a9929190611beb565b6020604051808303815f875af11580156105c5573d5f803e3d5ffd5b505050506040513d601f19601f820116820180604052508101906105e99190611c3c565b50505050565b6105f7611216565b5f4790505f8273ffffffffffffffffffffffffffffffffffffffff168260405161062090611c94565b5f6040518083038185875af1925050503d805f811461065a576040519150601f19603f3d011682016040523d82523d5f602084013e61065f565b606091505b50509050806106a9573383836040517f9d11f5630000000000000000000000000000000000000000000000000000000081526004016106a093929190611ca8565b60405180910390fd5b505050565b6106b6611216565b8260025f8681526020019081526020015f205f6101000a81548173ffffffffffffffffffffffffffffffffffffffff021916908373ffffffffffffffffffffffffffffffffffffffff1602179055508160035f8681526020019081526020015f205f6101000a81548173ffffffffffffffffffffffffffffffffffffffff021916908373ffffffffffffffffffffffffffffffffffffffff1602179055508060055f8681526020019081526020015f205f6101000a81548167ffffffffffffffff021916908367ffffffffffffffff16021790555050505050565b5f806107a087878787876112a5565b8051906020012090506107b5835f1b826112f9565b91505095945050505050565b60015f9054906101000a900473ffffffffffffffffffffffffffffffffffffffff1673ffffffffffffffffffffffffffffffffffffffff163373ffffffffffffffffffffffffffffffffffffffff1614610850576040517f08c379a000000000000000000000000000000000000000000000000000000000815260040161084790611d37565b60405180910390fd5b5f805f9054906101000a900473ffffffffffffffffffffffffffffffffffffffff169050335f806101000a81548173ffffffffffffffffffffffffffffffffffffffff021916908373ffffffffffffffffffffffffffffffffffffffff1602179055505f60015f6101000a81548173ffffffffffffffffffffffffffffffffffffffff021916908373ffffffffffffffffffffffffffffffffffffffff1602179055503373ffffffffffffffffffffffffffffffffffffffff168173ffffffffffffffffffffffffffffffffffffffff167f8be0079c531659141344cd1fd0a4f28419497f9722a3daafe3b4186f6b6457e060405160405180910390a350565b7f000000000000000000000000000000000000000000000000000000000000000073ffffffffffffffffffffffffffffffffffffffff163373ffffffffffffffffffffffffffffffffffffffff16146109e057336040517fd7f733340000000000000000000000000000000000000000000000000000000081526004016109d7919061178e565b60405180910390fd5b6109f2816109ed906120b2565b61130d565b50565b5f805f9054906101000a900473ffffffffffffffffffffffffffffffffffffffff16905090565b5f7f0000000000000000000000000000000000000000000000000000000000000000905090565b6003602052805f5260405f205f915054906101000a900473ffffffffffffffffffffffffffffffffffffffff1681565b60045f9054906101000a900473ffffffffffffffffffffffffffffffffffffffff1681565b5f80610aa789898989896112a5565b90505f610abd865f1b83805190602001206112f9565b90505f8173ffffffffffffffffffffffffffffffffffffffff163b14610ae7578092505050610f43565b610af45f875f1b846113b2565b9050884614610e4e575f8082604051602401610b10919061178e565b6040516020818303038152906040527f45facd8e000000000000000000000000000000000000000000000000000000007bffffffffffffffffffffffffffffffffffffffffffffffffffffffff19166020820180517bffffffffffffffffffffffffffffffffffffffffffffffffffffffff838183161783525050505090505f6040518060a0016040528060025f8f81526020019081526020015f205f9054906101000a900473ffffffffffffffffffffffffffffffffffffffff16604051602001610bdc919061178e565b604051602081830303815290604052815260200160035f8f81526020019081526020015f205f9054906101000a900473ffffffffffffffffffffffffffffffffffffffff168e8e8e8e88604051602401610c3b9695949392919061213e565b6040516020818303038152906040527fda7323b3000000000000000000000000000000000000000000000000000000007bffffffffffffffffffffffffffffffffffffffffffffffffffffffff19166020820180517bffffffffffffffffffffffffffffffffffffffffffffffffffffffff838183161783525050505081526020015f67ffffffffffffffff811115610cd757610cd6611d69565b5b604051908082528060200260200182016040528015610d1057816020015b610cfd6115ff565b815260200190600190039081610cf55790505b5081526020015f73ffffffffffffffffffffffffffffffffffffffff16815260200160405180602001604052805f81525081525090505f60055f8e81526020019081526020015f205f9054906101000a900467ffffffffffffffff16905060045f9054906101000a900473ffffffffffffffffffffffffffffffffffffffff1673ffffffffffffffffffffffffffffffffffffffff166396f4e9f93483856040518463ffffffff1660e01b8152600401610dcb929190612367565b60206040518083038185885af1158015610de7573d5f803e3d5ffd5b50505050506040513d601f19601f82011682018060405250810190610e0c91906123a9565b93507f54791b38f3859327992a1ca0590ad3c0f08feba98d1a4f56ab0dca74d203392a84604051610e3d91906123e3565b60405180910390a150505050610f3d565b5f8585905014610efb575f8173ffffffffffffffffffffffffffffffffffffffff168686604051610e80929190612420565b5f604051808303815f865af19150503d805f8114610eb9576040519150601f19603f3d011682016040523d82523d5f602084013e610ebe565b606091505b5050905080610ef9576040517f19b991a800000000000000000000000000000000000000000000000000000000815260040160405180910390fd5b505b7f07fba7bba1191da7ee1155dcfa0030701c9c9a9cc34a93b991fc6fd0c9268d8f818b8b8b8b8b604051610f3496959493929190612438565b60405180910390a15b80925050505b979650505050505050565b6005602052805f5260405f205f915054906101000a900467ffffffffffffffff1681565b610f7a611216565b610f83816114ab565b50565b5f8060055f8981526020019081526020015f205f9054906101000a900467ffffffffffffffff1690505f6040518060a0016040528060025f8c81526020019081526020015f205f9054906101000a900473ffffffffffffffffffffffffffffffffffffffff16604051602001610ffc919061178e565b604051602081830303815290604052815260200160035f8c81526020019081526020015f205f9054906101000a900473ffffffffffffffffffffffffffffffffffffffff168b8b8b8b8b8b60405160240161105d97969594939291906124c3565b6040516020818303038152906040527fda7323b3000000000000000000000000000000000000000000000000000000007bffffffffffffffffffffffffffffffffffffffffffffffffffffffff19166020820180517bffffffffffffffffffffffffffffffffffffffffffffffffffffffff838183161783525050505081526020015f67ffffffffffffffff8111156110f9576110f8611d69565b5b60405190808252806020026020018201604052801561113257816020015b61111f6115ff565b8152602001906001900390816111175790505b5081526020015f73ffffffffffffffffffffffffffffffffffffffff16815260200160405180602001604052805f81525081525090505f60045f9054906101000a900473ffffffffffffffffffffffffffffffffffffffff1673ffffffffffffffffffffffffffffffffffffffff166320487ded84846040518363ffffffff1660e01b81526004016111c5929190612367565b602060405180830381865afa1580156111e0573d5f803e3d5ffd5b505050506040513d601f19601f820116820180604052508101906112049190611bc0565b90508093505050509695505050505050565b5f8054906101000a900473ffffffffffffffffffffffffffffffffffffffff1673ffffffffffffffffffffffffffffffffffffffff163373ffffffffffffffffffffffffffffffffffffffff16146112a3576040517f08c379a000000000000000000000000000000000000000000000000000000000815260040161129a90612575565b60405180910390fd5b565b606085828686866040516020016112bf9493929190612593565b6040516020818303038152906040526040516020016112df9291906126e9565b604051602081830303815290604052905095945050505050565b5f6113058383306115d5565b905092915050565b5f3073ffffffffffffffffffffffffffffffffffffffff1682606001516040516113379190612726565b5f604051808303815f865af19150503d805f8114611370576040519150601f19603f3d011682016040523d82523d5f602084013e611375565b606091505b5050905080611382575f80fd5b7fe0922c744b0a82a8a9c2f22a04c84050e6995b7f85fa6e2f99a5304506507bf160405160405180910390a15050565b5f834710156113fa5747846040517fe4bbecac0000000000000000000000000000000000000000000000000000000081526004016113f192919061273c565b60405180910390fd5b5f825103611434576040517f4ca249dc00000000000000000000000000000000000000000000000000000000815260040160405180910390fd5b8282516020840186f590505f73ffffffffffffffffffffffffffffffffffffffff168173ffffffffffffffffffffffffffffffffffffffff16036114a4576040517f741752c200000000000000000000000000000000000000000000000000000000815260040160405180910390fd5b9392505050565b3373ffffffffffffffffffffffffffffffffffffffff168173ffffffffffffffffffffffffffffffffffffffff1603611519576040517f08c379a0000000000000000000000000000000000000000000000000000000008152600401611510906127ad565b60405180910390fd5b8060015f6101000a81548173ffffffffffffffffffffffffffffffffffffffff021916908373ffffffffffffffffffffffffffffffffffffffff1602179055508073ffffffffffffffffffffffffffffffffffffffff165f8054906101000a900473ffffffffffffffffffffffffffffffffffffffff1673ffffffffffffffffffffffffffffffffffffffff167fed8889f560326eb138920d842192f0eb3dd22b4f139c87a2c57538e05bae127860405160405180910390a350565b5f604051836040820152846020820152828152600b810160ff815360558120925050509392505050565b60405180604001604052805f73ffffffffffffffffffffffffffffffffffffffff1681526020015f81525090565b5f604051905090565b5f80fd5b5f80fd5b5f7fffffffff0000000000000000000000000000000000000000000000000000000082169050919050565b6116728161163e565b811461167c575f80fd5b50565b5f8135905061168d81611669565b92915050565b5f602082840312156116a8576116a7611636565b5b5f6116b58482850161167f565b91505092915050565b5f8115159050919050565b6116d2816116be565b82525050565b5f6020820190506116eb5f8301846116c9565b92915050565b5f819050919050565b611703816116f1565b811461170d575f80fd5b50565b5f8135905061171e816116fa565b92915050565b5f6020828403121561173957611738611636565b5b5f61174684828501611710565b91505092915050565b5f73ffffffffffffffffffffffffffffffffffffffff82169050919050565b5f6117788261174f565b9050919050565b6117888161176e565b82525050565b5f6020820190506117a15f83018461177f565b92915050565b6117b08161176e565b81146117ba575f80fd5b50565b5f813590506117cb816117a7565b92915050565b5f80604083850312156117e7576117e6611636565b5b5f6117f4858286016117bd565b9250506020611805858286016117bd565b9150509250929050565b5f6020828403121561182457611823611636565b5b5f611831848285016117bd565b91505092915050565b5f67ffffffffffffffff82169050919050565b6118568161183a565b8114611860575f80fd5b50565b5f813590506118718161184d565b92915050565b5f805f806080858703121561188f5761188e611636565b5b5f61189c87828801611710565b94505060206118ad878288016117bd565b93505060406118be878288016117bd565b92505060606118cf87828801611863565b91505092959194509250565b5f805f805f60a086880312156118f4576118f3611636565b5b5f611901888289016117bd565b955050602061191288828901611710565b9450506040611923888289016117bd565b935050606061193488828901611710565b925050608061194588828901611710565b9150509295509295909350565b5f80fd5b5f60a0828403121561196b5761196a611952565b5b81905092915050565b5f6020828403121561198957611988611636565b5b5f82013567ffffffffffffffff8111156119a6576119a561163a565b5b6119b284828501611956565b91505092915050565b5f80fd5b5f80fd5b5f80fd5b5f8083601f8401126119dc576119db6119bb565b5b8235905067ffffffffffffffff8111156119f9576119f86119bf565b5b602083019150836001820283011115611a1557611a146119c3565b5b9250929050565b5f805f805f805f60c0888a031215611a3757611a36611636565b5b5f611a448a828b016117bd565b9750506020611a558a828b01611710565b9650506040611a668a828b016117bd565b9550506060611a778a828b01611710565b9450506080611a888a828b01611710565b93505060a088013567ffffffffffffffff811115611aa957611aa861163a565b5b611ab58a828b016119c7565b925092505092959891949750929550565b611acf8161183a565b82525050565b5f602082019050611ae85f830184611ac6565b92915050565b5f805f805f8060a08789031215611b0857611b07611636565b5b5f611b1589828a01611710565b9650506020611b2689828a016117bd565b9550506040611b3789828a01611710565b9450506060611b4889828a01611710565b935050608087013567ffffffffffffffff811115611b6957611b6861163a565b5b611b7589828a016119c7565b92509250509295509295509295565b611b8d816116f1565b82525050565b5f602082019050611ba65f830184611b84565b92915050565b5f81519050611bba816116fa565b92915050565b5f60208284031215611bd557611bd4611636565b5b5f611be284828501611bac565b91505092915050565b5f604082019050611bfe5f83018561177f565b611c0b6020830184611b84565b9392505050565b611c1b816116be565b8114611c25575f80fd5b50565b5f81519050611c3681611c12565b92915050565b5f60208284031215611c5157611c50611636565b5b5f611c5e84828501611c28565b91505092915050565b5f81905092915050565b50565b5f611c7f5f83611c67565b9150611c8a82611c71565b5f82019050919050565b5f611c9e82611c74565b9150819050919050565b5f606082019050611cbb5f83018661177f565b611cc8602083018561177f565b611cd56040830184611b84565b949350505050565b5f82825260208201905092915050565b7f4d7573742062652070726f706f736564206f776e6572000000000000000000005f82015250565b5f611d21601683611cdd565b9150611d2c82611ced565b602082019050919050565b5f6020820190508181035f830152611d4e81611d15565b9050919050565b5f80fd5b5f601f19601f8301169050919050565b7f4e487b71000000000000000000000000000000000000000000000000000000005f52604160045260245ffd5b611d9f82611d59565b810181811067ffffffffffffffff82111715611dbe57611dbd611d69565b5b80604052505050565b5f611dd061162d565b9050611ddc8282611d96565b919050565b5f80fd5b5f819050919050565b611df781611de5565b8114611e01575f80fd5b50565b5f81359050611e1281611dee565b92915050565b5f80fd5b5f67ffffffffffffffff821115611e3657611e35611d69565b5b611e3f82611d59565b9050602081019050919050565b828183375f83830152505050565b5f611e6c611e6784611e1c565b611dc7565b905082815260208101848484011115611e8857611e87611e18565b5b611e93848285611e4c565b509392505050565b5f82601f830112611eaf57611eae6119bb565b5b8135611ebf848260208601611e5a565b91505092915050565b5f67ffffffffffffffff821115611ee257611ee1611d69565b5b602082029050602081019050919050565b5f60408284031215611f0857611f07611d55565b5b611f126040611dc7565b90505f611f21848285016117bd565b5f830152506020611f3484828501611710565b60208301525092915050565b5f611f52611f4d84611ec8565b611dc7565b90508083825260208201905060408402830185811115611f7557611f746119c3565b5b835b81811015611f9e5780611f8a8882611ef3565b845260208401935050604081019050611f77565b5050509392505050565b5f82601f830112611fbc57611fbb6119bb565b5b8135611fcc848260208601611f40565b91505092915050565b5f60a08284031215611fea57611fe9611d55565b5b611ff460a0611dc7565b90505f61200384828501611e04565b5f83015250602061201684828501611863565b602083015250604082013567ffffffffffffffff81111561203a57612039611de1565b5b61204684828501611e9b565b604083015250606082013567ffffffffffffffff81111561206a57612069611de1565b5b61207684828501611e9b565b606083015250608082013567ffffffffffffffff81111561209a57612099611de1565b5b6120a684828501611fa8565b60808301525092915050565b5f6120bd3683611fd5565b9050919050565b5f81519050919050565b5f82825260208201905092915050565b5f5b838110156120fb5780820151818401526020810190506120e0565b5f8484015250505050565b5f612110826120c4565b61211a81856120ce565b935061212a8185602086016120de565b61213381611d59565b840191505092915050565b5f60c0820190506121515f83018961177f565b61215e6020830188611b84565b61216b604083018761177f565b6121786060830186611b84565b6121856080830185611b84565b81810360a08301526121978184612106565b9050979650505050505050565b5f82825260208201905092915050565b5f6121be826120c4565b6121c881856121a4565b93506121d88185602086016120de565b6121e181611d59565b840191505092915050565b5f81519050919050565b5f82825260208201905092915050565b5f819050602082019050919050565b61221e8161176e565b82525050565b61222d816116f1565b82525050565b604082015f8201516122475f850182612215565b50602082015161225a6020850182612224565b50505050565b5f61226b8383612233565b60408301905092915050565b5f602082019050919050565b5f61228d826121ec565b61229781856121f6565b93506122a283612206565b805f5b838110156122d25781516122b98882612260565b97506122c483612277565b9250506001810190506122a5565b5085935050505092915050565b5f60a083015f8301518482035f8601526122f982826121b4565b9150506020830151848203602086015261231382826121b4565b9150506040830151848203604086015261232d8282612283565b91505060608301516123426060860182612215565b506080830151848203608086015261235a82826121b4565b9150508091505092915050565b5f60408201905061237a5f830185611ac6565b818103602083015261238c81846122df565b90509392505050565b5f815190506123a381611dee565b92915050565b5f602082840312156123be576123bd611636565b5b5f6123cb84828501612395565b91505092915050565b6123dd81611de5565b82525050565b5f6020820190506123f65f8301846123d4565b92915050565b5f6124078385611c67565b9350612414838584611e4c565b82840190509392505050565b5f61242c8284866123fc565b91508190509392505050565b5f60c08201905061244b5f83018961177f565b612458602083018861177f565b6124656040830187611b84565b612472606083018661177f565b61247f6080830185611b84565b61248c60a0830184611b84565b979650505050505050565b5f6124a283856120ce565b93506124af838584611e4c565b6124b883611d59565b840190509392505050565b5f60c0820190506124d65f83018a61177f565b6124e36020830189611b84565b6124f0604083018861177f565b6124fd6060830187611b84565b61250a6080830186611b84565b81810360a083015261251d818486612497565b905098975050505050505050565b7f4f6e6c792063616c6c61626c65206279206f776e6572000000000000000000005f82015250565b5f61255f601683611cdd565b915061256a8261252b565b602082019050919050565b5f6020820190508181035f83015261258c81612553565b9050919050565b5f6080820190506125a65f830187611b84565b6125b36020830186611b84565b6125c0604083018561177f565b6125cd6060830184611b84565b95945050505050565b5f81905092915050565b7f3d60ad80600a3d3981f3363d3d373d3d3d363d730000000000000000000000005f82015250565b5f6126146014836125d6565b915061261f826125e0565b601482019050919050565b5f8160601b9050919050565b5f6126408261262a565b9050919050565b5f61265182612636565b9050919050565b6126696126648261176e565b612647565b82525050565b7f5af43d82803e903d91602b57fd5bf300000000000000000000000000000000005f82015250565b5f6126a3600f836125d6565b91506126ae8261266f565b600f82019050919050565b5f6126c3826120c4565b6126cd8185611c67565b93506126dd8185602086016120de565b80840191505092915050565b5f6126f382612608565b91506126ff8285612658565b60148201915061270e82612697565b915061271a82846126b9565b91508190509392505050565b5f61273182846126b9565b915081905092915050565b5f60408201905061274f5f830185611b84565b61275c6020830184611b84565b9392505050565b7f43616e6e6f74207472616e7366657220746f2073656c660000000000000000005f82015250565b5f612797601783611cdd565b91506127a282612763565b602082019050919050565b5f6020820190508181035f8301526127c48161278b565b905091905056fea2646970667358221220bc36b92258b644e08d726506fa3e985b254ba108fedf4ac611ce7f856389ef1864736f6c63430008140033",
  "linkReferences": {},
  "deployedLinkReferences": {}
}