{
  "_format": "hh-sol-artifact-1",
  "contractName": "ERC6551Account",
  "sourceName": "contracts/ERC6551Account.sol",
  "abi": [
    {
      "anonymous": false,
      "inputs": [
        {
          "indexed": true,
          "internalType": "address",
          "name": "target",
          "type": "address"
        },
        {
          "indexed": true,
          "internalType": "uint256",
          "name": "value",
          "type": "uint256"
        },
        {
          "indexed": false,
          "internalType": "bytes",
          "name": "data",
          "type": "bytes"
        }
      ],
      "name": "TransactionExecuted",
      "type": "event"
    },
    {
      "inputs": [
        {
          "internalType": "address",
          "name": "_token",
          "type": "address"
        },
        {
          "internalType": "address",
          "name": "_dataFeed",
          "type": "address"
        }
      ],
      "name": "addToken",
      "outputs": [],
      "stateMutability": "nonpayable",
      "type": "function"
    },
    {
      "inputs": [
        {
          "internalType": "address",
          "name": "",
          "type": "address"
        }
      ],
      "name": "dataFeedAddress",
      "outputs": [
        {
          "internalType": "address",
          "name": "",
          "type": "address"
        }
      ],
      "stateMutability": "view",
      "type": "function"
    },
    {
      "inputs": [
        {
          "internalType": "address",
          "name": "to",
          "type": "address"
        },
        {
          "internalType": "uint256",
          "name": "value",
          "type": "uint256"
        },
        {
          "internalType": "bytes",
          "name": "data",
          "type": "bytes"
        }
      ],
      "name": "executeCall",
      "outputs": [
        {
          "internalType": "bytes",
          "name": "result",
          "type": "bytes"
        }
      ],
      "stateMutability": "payable",
      "type": "function"
    },
    {
      "inputs": [],
      "name": "getAllToken",
      "outputs": [
        {
          "internalType": "address[]",
          "name": "",
          "type": "address[]"
        }
      ],
      "stateMutability": "view",
      "type": "function"
    },
    {
      "inputs": [
        {
          "internalType": "address",
          "name": "_token",
          "type": "address"
        }
      ],
      "name": "getChainlinkDataFeedLatestAnswer",
      "outputs": [
        {
          "internalType": "int256",
          "name": "",
          "type": "int256"
        }
      ],
      "stateMutability": "view",
      "type": "function"
    },
    {
      "inputs": [],
      "name": "getTokenArrayLength",
      "outputs": [
        {
          "internalType": "uint256",
          "name": "",
          "type": "uint256"
        }
      ],
      "stateMutability": "view",
      "type": "function"
    },
    {
      "inputs": [
        {
          "internalType": "uint256",
          "name": "index",
          "type": "uint256"
        }
      ],
      "name": "getTokenAtIndex",
      "outputs": [
        {
          "internalType": "address",
          "name": "",
          "type": "address"
        }
      ],
      "stateMutability": "view",
      "type": "function"
    },
    {
      "inputs": [
        {
          "internalType": "bytes32",
          "name": "hash",
          "type": "bytes32"
        },
        {
          "internalType": "bytes",
          "name": "signature",
          "type": "bytes"
        }
      ],
      "name": "isValidSignature",
      "outputs": [
        {
          "internalType": "bytes4",
          "name": "magicValue",
          "type": "bytes4"
        }
      ],
      "stateMutability": "view",
      "type": "function"
    },
    {
      "inputs": [],
      "name": "nonce",
      "outputs": [
        {
          "internalType": "uint256",
          "name": "",
          "type": "uint256"
        }
      ],
      "stateMutability": "view",
      "type": "function"
    },
    {
      "inputs": [],
      "name": "owner",
      "outputs": [
        {
          "internalType": "address",
          "name": "",
          "type": "address"
        }
      ],
      "stateMutability": "view",
      "type": "function"
    },
    {
      "inputs": [
        {
          "internalType": "address",
          "name": "_token",
          "type": "address"
        }
      ],
      "name": "removeAddress",
      "outputs": [],
      "stateMutability": "nonpayable",
      "type": "function"
    },
    {
      "inputs": [
        {
          "internalType": "bytes4",
          "name": "interfaceId",
          "type": "bytes4"
        }
      ],
      "name": "supportsInterface",
      "outputs": [
        {
          "internalType": "bool",
          "name": "",
          "type": "bool"
        }
      ],
      "stateMutability": "pure",
      "type": "function"
    },
    {
      "inputs": [],
      "name": "token",
      "outputs": [
        {
          "internalType": "uint256",
          "name": "",
          "type": "uint256"
        },
        {
          "internalType": "address",
          "name": "",
          "type": "address"
        },
        {
          "internalType": "uint256",
          "name": "",
          "type": "uint256"
        }
      ],
      "stateMutability": "view",
      "type": "function"
    },
    {
      "inputs": [
        {
          "internalType": "uint256",
          "name": "",
          "type": "uint256"
        }
      ],
      "name": "tokenArray",
      "outputs": [
        {
          "internalType": "address",
          "name": "",
          "type": "address"
        }
      ],
      "stateMutability": "view",
      "type": "function"
    },
    {
      "stateMutability": "payable",
      "type": "receive"
    }
  ],
  "bytecode": "0x608060405234801561000f575f80fd5b50611d9d8061001d5f395ff3fe6080604052600436106100e0575f3560e01c80639e5d4c491161007e578063b15345ab11610058578063b15345ab146102d9578063e7078f9214610303578063faa32f5d1461033f578063fc0c546a1461037b576100e7565b80639e5d4c4914610243578063a8320b1b14610273578063affed0e0146102af576100e7565b80635476bd72116100ba5780635476bd721461018b57806385e3c1d4146101b35780638da5cb5b146101dd57806397988dce14610207576100e7565b806301ffc9a7146100eb5780631626ba7e146101275780634ba79dfe14610163576100e7565b366100e757005b5f80fd5b3480156100f6575f80fd5b50610111600480360381019061010c9190611132565b6103a7565b60405161011e9190611177565b60405180910390f35b348015610132575f80fd5b5061014d600480360381019061014891906112ff565b610478565b60405161015a9190611368565b60405180910390f35b34801561016e575f80fd5b50610189600480360381019061018491906113db565b6104af565b005b348015610196575f80fd5b506101b160048036038101906101ac9190611406565b61071f565b005b3480156101be575f80fd5b506101c7610872565b6040516101d491906114fb565b60405180910390f35b3480156101e8575f80fd5b506101f16108fd565b6040516101fe919061152a565b60405180910390f35b348015610212575f80fd5b5061022d60048036038101906102289190611576565b610a07565b60405161023a919061152a565b60405180910390f35b61025d600480360381019061025891906115fe565b610a92565b60405161026a91906116e9565b60405180910390f35b34801561027e575f80fd5b50610299600480360381019061029491906113db565b610bf6565b6040516102a6919061152a565b60405180910390f35b3480156102ba575f80fd5b506102c3610c25565b6040516102d09190611718565b60405180910390f35b3480156102e4575f80fd5b506102ed610c2b565b6040516102fa9190611718565b60405180910390f35b34801561030e575f80fd5b50610329600480360381019061032491906113db565b610c37565b6040516103369190611749565b60405180910390f35b34801561034a575f80fd5b5061036560048036038101906103609190611576565b610d15565b604051610372919061152a565b60405180910390f35b348015610386575f80fd5b5061038f610d50565b60405161039e93929190611762565b60405180910390f35b5f7f01ffc9a7000000000000000000000000000000000000000000000000000000007bffffffffffffffffffffffffffffffffffffffffffffffffffffffff1916827bffffffffffffffffffffffffffffffffffffffffffffffffffffffff1916148061047157507f400a0398000000000000000000000000000000000000000000000000000000007bffffffffffffffffffffffffffffffffffffffffffffffffffffffff1916827bffffffffffffffffffffffffffffffffffffffffffffffffffffffff1916145b9050919050565b5f8061048c6104856108fd565b8585610d66565b905080156104a457631626ba7e60e01b9150506104a9565b5f9150505b92915050565b6104b76108fd565b73ffffffffffffffffffffffffffffffffffffffff163373ffffffffffffffffffffffffffffffffffffffff1614610524576040517f08c379a000000000000000000000000000000000000000000000000000000000815260040161051b906117f1565b60405180910390fd5b5f805f8373ffffffffffffffffffffffffffffffffffffffff1673ffffffffffffffffffffffffffffffffffffffff1681526020019081526020015f205f6101000a81548173ffffffffffffffffffffffffffffffffffffffff021916908373ffffffffffffffffffffffffffffffffffffffff1602179055505f5b60018054905081101561071b578173ffffffffffffffffffffffffffffffffffffffff16600182815481106105d8576105d761180f565b5b905f5260205f20015f9054906101000a900473ffffffffffffffffffffffffffffffffffffffff1673ffffffffffffffffffffffffffffffffffffffff160361070857600180808054905061062d9190611869565b8154811061063e5761063d61180f565b5b905f5260205f20015f9054906101000a900473ffffffffffffffffffffffffffffffffffffffff166001828154811061067a5761067961180f565b5b905f5260205f20015f6101000a81548173ffffffffffffffffffffffffffffffffffffffff021916908373ffffffffffffffffffffffffffffffffffffffff16021790555060018054806106d1576106d061189c565b5b600190038181905f5260205f20015f6101000a81549073ffffffffffffffffffffffffffffffffffffffff0219169055905561071b565b8080610713906118c9565b9150506105a0565b5050565b6107276108fd565b73ffffffffffffffffffffffffffffffffffffffff163373ffffffffffffffffffffffffffffffffffffffff1614610794576040517f08c379a000000000000000000000000000000000000000000000000000000000815260040161078b906117f1565b60405180910390fd5b600182908060018154018082558091505060019003905f5260205f20015f9091909190916101000a81548173ffffffffffffffffffffffffffffffffffffffff021916908373ffffffffffffffffffffffffffffffffffffffff160217905550805f808473ffffffffffffffffffffffffffffffffffffffff1673ffffffffffffffffffffffffffffffffffffffff1681526020019081526020015f205f6101000a81548173ffffffffffffffffffffffffffffffffffffffff021916908373ffffffffffffffffffffffffffffffffffffffff1602179055505050565b606060018054806020026020016040519081016040528092919081815260200182805480156108f357602002820191905f5260205f20905b815f9054906101000a900473ffffffffffffffffffffffffffffffffffffffff1673ffffffffffffffffffffffffffffffffffffffff16815260200190600101908083116108aa575b5050505050905090565b5f805f803073ffffffffffffffffffffffffffffffffffffffff1663fc0c546a6040518163ffffffff1660e01b8152600401606060405180830381865afa15801561094a573d5f803e3d5ffd5b505050506040513d601f19601f8201168201806040525081019061096e9190611938565b925092509250468314610986575f9350505050610a04565b8173ffffffffffffffffffffffffffffffffffffffff16636352211e826040518263ffffffff1660e01b81526004016109bf9190611718565b602060405180830381865afa1580156109da573d5f803e3d5ffd5b505050506040513d601f19601f820116820180604052508101906109fe9190611988565b93505050505b90565b5f6001805490508210610a4f576040517f08c379a0000000000000000000000000000000000000000000000000000000008152600401610a46906119fd565b60405180910390fd5b60018281548110610a6357610a6261180f565b5b905f5260205f20015f9054906101000a900473ffffffffffffffffffffffffffffffffffffffff169050919050565b6060610a9c6108fd565b73ffffffffffffffffffffffffffffffffffffffff163373ffffffffffffffffffffffffffffffffffffffff1614610b09576040517f08c379a0000000000000000000000000000000000000000000000000000000008152600401610b00906117f1565b60405180910390fd5b60025f8154610b17906118c9565b91905081905550838573ffffffffffffffffffffffffffffffffffffffff167f47d99ad340f52da66535aff7e10da1ceb85a32bcbd9fa1c42314d194545e14d28585604051610b67929190611a47565b60405180910390a35f8573ffffffffffffffffffffffffffffffffffffffff16858585604051610b98929190611a97565b5f6040518083038185875af1925050503d805f8114610bd2576040519150601f19603f3d011682016040523d82523d5f602084013e610bd7565b606091505b50809350819250505080610bed57815160208301fd5b50949350505050565b5f602052805f5260405f205f915054906101000a900473ffffffffffffffffffffffffffffffffffffffff1681565b60025481565b5f600180549050905090565b5f805f808473ffffffffffffffffffffffffffffffffffffffff1673ffffffffffffffffffffffffffffffffffffffff1681526020019081526020015f205f9054906101000a900473ffffffffffffffffffffffffffffffffffffffff1690505f8173ffffffffffffffffffffffffffffffffffffffff1663feaf968c6040518163ffffffff1660e01b815260040160a060405180830381865afa158015610ce1573d5f803e3d5ffd5b505050506040513d601f19601f82011682018060405250810190610d059190611b18565b5050509150508092505050919050565b60018181548110610d24575f80fd5b905f5260205f20015f915054906101000a900473ffffffffffffffffffffffffffffffffffffffff1681565b5f805f610d5b610df3565b925092509250909192565b5f805f610d738585610e71565b50915091505f6003811115610d8b57610d8a611b8f565b5b816003811115610d9e57610d9d611b8f565b5b148015610dd657508573ffffffffffffffffffffffffffffffffffffffff168273ffffffffffffffffffffffffffffffffffffffff16145b80610de85750610de7868686610ec6565b5b925050509392505050565b5f805f80606067ffffffffffffffff811115610e1257610e116111db565b5b6040519080825280601f01601f191660200182016040528015610e445781602001600182028036833780820191505090505b5090506060604d60208301303c80806020019051810190610e659190611bf7565b93509350935050909192565b5f805f6041845103610eb1575f805f602087015192506040870151915060608701515f1a9050610ea388828585610fe5565b955095509550505050610ebf565b5f600285515f1b9250925092505b9250925092565b5f805f8573ffffffffffffffffffffffffffffffffffffffff168585604051602401610ef3929190611c56565b604051602081830303815290604052631626ba7e60e01b6020820180517bffffffffffffffffffffffffffffffffffffffffffffffffffffffff8381831617835250505050604051610f459190611cb4565b5f60405180830381855afa9150503d805f8114610f7d576040519150601f19603f3d011682016040523d82523d5f602084013e610f82565b606091505b5091509150818015610f9657506020815110155b8015610fda5750631626ba7e60e01b7bffffffffffffffffffffffffffffffffffffffffffffffffffffffff191681806020019051810190610fd89190611cde565b145b925050509392505050565b5f805f7f7fffffffffffffffffffffffffffffff5d576e7357a4501ddfe92f46681b20a0845f1c1115611021575f6003859250925092506110c2565b5f6001888888886040515f81526020016040526040516110449493929190611d24565b6020604051602081039080840390855afa158015611064573d5f803e3d5ffd5b5050506020604051035190505f73ffffffffffffffffffffffffffffffffffffffff168173ffffffffffffffffffffffffffffffffffffffff16036110b5575f60015f801b935093509350506110c2565b805f805f1b935093509350505b9450945094915050565b5f604051905090565b5f80fd5b5f80fd5b5f7fffffffff0000000000000000000000000000000000000000000000000000000082169050919050565b611111816110dd565b811461111b575f80fd5b50565b5f8135905061112c81611108565b92915050565b5f60208284031215611147576111466110d5565b5b5f6111548482850161111e565b91505092915050565b5f8115159050919050565b6111718161115d565b82525050565b5f60208201905061118a5f830184611168565b92915050565b5f819050919050565b6111a281611190565b81146111ac575f80fd5b50565b5f813590506111bd81611199565b92915050565b5f80fd5b5f80fd5b5f601f19601f8301169050919050565b7f4e487b71000000000000000000000000000000000000000000000000000000005f52604160045260245ffd5b611211826111cb565b810181811067ffffffffffffffff821117156112305761122f6111db565b5b80604052505050565b5f6112426110cc565b905061124e8282611208565b919050565b5f67ffffffffffffffff82111561126d5761126c6111db565b5b611276826111cb565b9050602081019050919050565b828183375f83830152505050565b5f6112a361129e84611253565b611239565b9050828152602081018484840111156112bf576112be6111c7565b5b6112ca848285611283565b509392505050565b5f82601f8301126112e6576112e56111c3565b5b81356112f6848260208601611291565b91505092915050565b5f8060408385031215611315576113146110d5565b5b5f611322858286016111af565b925050602083013567ffffffffffffffff811115611343576113426110d9565b5b61134f858286016112d2565b9150509250929050565b611362816110dd565b82525050565b5f60208201905061137b5f830184611359565b92915050565b5f73ffffffffffffffffffffffffffffffffffffffff82169050919050565b5f6113aa82611381565b9050919050565b6113ba816113a0565b81146113c4575f80fd5b50565b5f813590506113d5816113b1565b92915050565b5f602082840312156113f0576113ef6110d5565b5b5f6113fd848285016113c7565b91505092915050565b5f806040838503121561141c5761141b6110d5565b5b5f611429858286016113c7565b925050602061143a858286016113c7565b9150509250929050565b5f81519050919050565b5f82825260208201905092915050565b5f819050602082019050919050565b611476816113a0565b82525050565b5f611487838361146d565b60208301905092915050565b5f602082019050919050565b5f6114a982611444565b6114b3818561144e565b93506114be8361145e565b805f5b838110156114ee5781516114d5888261147c565b97506114e083611493565b9250506001810190506114c1565b5085935050505092915050565b5f6020820190508181035f830152611513818461149f565b905092915050565b611524816113a0565b82525050565b5f60208201905061153d5f83018461151b565b92915050565b5f819050919050565b61155581611543565b811461155f575f80fd5b50565b5f813590506115708161154c565b92915050565b5f6020828403121561158b5761158a6110d5565b5b5f61159884828501611562565b91505092915050565b5f80fd5b5f80fd5b5f8083601f8401126115be576115bd6111c3565b5b8235905067ffffffffffffffff8111156115db576115da6115a1565b5b6020830191508360018202830111156115f7576115f66115a5565b5b9250929050565b5f805f8060608587031215611616576116156110d5565b5b5f611623878288016113c7565b945050602061163487828801611562565b935050604085013567ffffffffffffffff811115611655576116546110d9565b5b611661878288016115a9565b925092505092959194509250565b5f81519050919050565b5f82825260208201905092915050565b5f5b838110156116a657808201518184015260208101905061168b565b5f8484015250505050565b5f6116bb8261166f565b6116c58185611679565b93506116d5818560208601611689565b6116de816111cb565b840191505092915050565b5f6020820190508181035f83015261170181846116b1565b905092915050565b61171281611543565b82525050565b5f60208201905061172b5f830184611709565b92915050565b5f819050919050565b61174381611731565b82525050565b5f60208201905061175c5f83018461173a565b92915050565b5f6060820190506117755f830186611709565b611782602083018561151b565b61178f6040830184611709565b949350505050565b5f82825260208201905092915050565b7f4e6f7420746f6b656e206f776e657200000000000000000000000000000000005f82015250565b5f6117db600f83611797565b91506117e6826117a7565b602082019050919050565b5f6020820190508181035f830152611808816117cf565b9050919050565b7f4e487b71000000000000000000000000000000000000000000000000000000005f52603260045260245ffd5b7f4e487b71000000000000000000000000000000000000000000000000000000005f52601160045260245ffd5b5f61187382611543565b915061187e83611543565b92508282039050818111156118965761189561183c565b5b92915050565b7f4e487b71000000000000000000000000000000000000000000000000000000005f52603160045260245ffd5b5f6118d382611543565b91507fffffffffffffffffffffffffffffffffffffffffffffffffffffffffffffffff82036119055761190461183c565b5b600182019050919050565b5f8151905061191e8161154c565b92915050565b5f81519050611932816113b1565b92915050565b5f805f6060848603121561194f5761194e6110d5565b5b5f61195c86828701611910565b935050602061196d86828701611924565b925050604061197e86828701611910565b9150509250925092565b5f6020828403121561199d5761199c6110d5565b5b5f6119aa84828501611924565b91505092915050565b7f496e646578206f7574206f6620626f756e6473000000000000000000000000005f82015250565b5f6119e7601383611797565b91506119f2826119b3565b602082019050919050565b5f6020820190508181035f830152611a14816119db565b9050919050565b5f611a268385611679565b9350611a33838584611283565b611a3c836111cb565b840190509392505050565b5f6020820190508181035f830152611a60818486611a1b565b90509392505050565b5f81905092915050565b5f611a7e8385611a69565b9350611a8b838584611283565b82840190509392505050565b5f611aa3828486611a73565b91508190509392505050565b5f69ffffffffffffffffffff82169050919050565b611acd81611aaf565b8114611ad7575f80fd5b50565b5f81519050611ae881611ac4565b92915050565b611af781611731565b8114611b01575f80fd5b50565b5f81519050611b1281611aee565b92915050565b5f805f805f60a08688031215611b3157611b306110d5565b5b5f611b3e88828901611ada565b9550506020611b4f88828901611b04565b9450506040611b6088828901611910565b9350506060611b7188828901611910565b9250506080611b8288828901611ada565b9150509295509295909350565b7f4e487b71000000000000000000000000000000000000000000000000000000005f52602160045260245ffd5b5f611bc682611381565b9050919050565b611bd681611bbc565b8114611be0575f80fd5b50565b5f81519050611bf181611bcd565b92915050565b5f805f60608486031215611c0e57611c0d6110d5565b5b5f611c1b86828701611910565b9350506020611c2c86828701611be3565b9250506040611c3d86828701611910565b9150509250925092565b611c5081611190565b82525050565b5f604082019050611c695f830185611c47565b8181036020830152611c7b81846116b1565b90509392505050565b5f611c8e8261166f565b611c988185611a69565b9350611ca8818560208601611689565b80840191505092915050565b5f611cbf8284611c84565b915081905092915050565b5f81519050611cd881611199565b92915050565b5f60208284031215611cf357611cf26110d5565b5b5f611d0084828501611cca565b91505092915050565b5f60ff82169050919050565b611d1e81611d09565b82525050565b5f608082019050611d375f830187611c47565b611d446020830186611d15565b611d516040830185611c47565b611d5e6060830184611c47565b9594505050505056fea2646970667358221220047ea8f8b1eb8bfe3f4bc3541fdbc013af0a58d76406df19976816fc11f6986264736f6c63430008140033",
  "linkReferences": {},
  "deployedLinkReferences": {}
}