{
  "_format": "hh-sol-artifact-1",
  "contractName": "ERC6551Account",
  "sourceName": "contracts/ERC6551Account.sol",
  "abi": [
    {
      "anonymous": false,
      "inputs": [
        {
          "indexed": true,
          "internalType": "address",
          "name": "target",
          "type": "address"
        },
        {
          "indexed": true,
          "internalType": "uint256",
          "name": "value",
          "type": "uint256"
        },
        {
          "indexed": false,
          "internalType": "bytes",
          "name": "data",
          "type": "bytes"
        }
      ],
      "name": "TransactionExecuted",
      "type": "event"
    },
    {
      "inputs": [
        {
          "internalType": "address",
          "name": "_token",
          "type": "address"
        },
        {
          "internalType": "address",
          "name": "_dataFeed",
          "type": "address"
        }
      ],
      "name": "addToken",
      "outputs": [],
      "stateMutability": "nonpayable",
      "type": "function"
    },
    {
      "inputs": [
        {
          "internalType": "address",
          "name": "",
          "type": "address"
        }
      ],
      "name": "dataFeedAddress",
      "outputs": [
        {
          "internalType": "address",
          "name": "",
          "type": "address"
        }
      ],
      "stateMutability": "view",
      "type": "function"
    },
    {
      "inputs": [
        {
          "internalType": "address",
          "name": "to",
          "type": "address"
        },
        {
          "internalType": "uint256",
          "name": "value",
          "type": "uint256"
        },
        {
          "internalType": "bytes",
          "name": "data",
          "type": "bytes"
        }
      ],
      "name": "executeCall",
      "outputs": [
        {
          "internalType": "bytes",
          "name": "result",
          "type": "bytes"
        }
      ],
      "stateMutability": "payable",
      "type": "function"
    },
    {
      "inputs": [],
      "name": "getAllToken",
      "outputs": [
        {
          "internalType": "address[]",
          "name": "",
          "type": "address[]"
        }
      ],
      "stateMutability": "view",
      "type": "function"
    },
    {
      "inputs": [
        {
          "internalType": "address",
          "name": "_token",
          "type": "address"
        }
      ],
      "name": "getChainlinkDataFeedLatestAnswer",
      "outputs": [
        {
          "internalType": "int256",
          "name": "",
          "type": "int256"
        }
      ],
      "stateMutability": "view",
      "type": "function"
    },
    {
      "inputs": [],
      "name": "getTokenArrayLength",
      "outputs": [
        {
          "internalType": "uint256",
          "name": "",
          "type": "uint256"
        }
      ],
      "stateMutability": "view",
      "type": "function"
    },
    {
      "inputs": [
        {
          "internalType": "uint256",
          "name": "index",
          "type": "uint256"
        }
      ],
      "name": "getTokenAtIndex",
      "outputs": [
        {
          "internalType": "address",
          "name": "",
          "type": "address"
        }
      ],
      "stateMutability": "view",
      "type": "function"
    },
    {
      "inputs": [
        {
          "internalType": "bytes32",
          "name": "hash",
          "type": "bytes32"
        },
        {
          "internalType": "bytes",
          "name": "signature",
          "type": "bytes"
        }
      ],
      "name": "isValidSignature",
      "outputs": [
        {
          "internalType": "bytes4",
          "name": "magicValue",
          "type": "bytes4"
        }
      ],
      "stateMutability": "view",
      "type": "function"
    },
    {
      "inputs": [],
      "name": "nonce",
      "outputs": [
        {
          "internalType": "uint256",
          "name": "",
          "type": "uint256"
        }
      ],
      "stateMutability": "view",
      "type": "function"
    },
    {
      "inputs": [],
      "name": "owner",
      "outputs": [
        {
          "internalType": "address",
          "name": "",
          "type": "address"
        }
      ],
      "stateMutability": "view",
      "type": "function"
    },
    {
      "inputs": [
        {
          "internalType": "address",
          "name": "_token",
          "type": "address"
        }
      ],
      "name": "removeAddress",
      "outputs": [],
      "stateMutability": "nonpayable",
      "type": "function"
    },
    {
      "inputs": [],
      "name": "routerAddress",
      "outputs": [
        {
          "internalType": "address",
          "name": "",
          "type": "address"
        }
      ],
      "stateMutability": "view",
      "type": "function"
    },
    {
      "inputs": [
        {
          "internalType": "address",
          "name": "_sourceAddress",
          "type": "address"
        }
      ],
      "name": "setSourceAddress",
      "outputs": [],
      "stateMutability": "nonpayable",
      "type": "function"
    },
    {
      "inputs": [],
      "name": "sourceAddress",
      "outputs": [
        {
          "internalType": "address",
          "name": "",
          "type": "address"
        }
      ],
      "stateMutability": "view",
      "type": "function"
    },
    {
      "inputs": [
        {
          "internalType": "bytes4",
          "name": "interfaceId",
          "type": "bytes4"
        }
      ],
      "name": "supportsInterface",
      "outputs": [
        {
          "internalType": "bool",
          "name": "",
          "type": "bool"
        }
      ],
      "stateMutability": "pure",
      "type": "function"
    },
    {
      "inputs": [],
      "name": "token",
      "outputs": [
        {
          "internalType": "uint256",
          "name": "",
          "type": "uint256"
        },
        {
          "internalType": "address",
          "name": "",
          "type": "address"
        },
        {
          "internalType": "uint256",
          "name": "",
          "type": "uint256"
        }
      ],
      "stateMutability": "view",
      "type": "function"
    },
    {
      "inputs": [
        {
          "internalType": "uint256",
          "name": "",
          "type": "uint256"
        }
      ],
      "name": "tokenArray",
      "outputs": [
        {
          "internalType": "address",
          "name": "",
          "type": "address"
        }
      ],
      "stateMutability": "view",
      "type": "function"
    },
    {
      "stateMutability": "payable",
      "type": "receive"
    }
  ],
  "bytecode": "0x608060405234801561000f575f80fd5b50611f888061001d5f395ff3fe608060405260043610610101575f3560e01c806397988dce11610094578063b0fa844411610063578063b0fa84441461034c578063b15345ab14610376578063e7078f92146103a0578063faa32f5d146103dc578063fc0c546a1461041857610108565b806397988dce1461027a5780639e5d4c49146102b6578063a8320b1b146102e6578063affed0e01461032257610108565b80634ba79dfe116100d05780634ba79dfe146101d65780635476bd72146101fe57806385e3c1d4146102265780638da5cb5b1461025057610108565b806301ffc9a71461010c5780631626ba7e146101485780633268cc561461018457806345facd8e146101ae57610108565b3661010857005b5f80fd5b348015610117575f80fd5b50610132600480360381019061012d91906112b5565b610444565b60405161013f91906112fa565b60405180910390f35b348015610153575f80fd5b5061016e60048036038101906101699190611482565b610515565b60405161017b91906114eb565b60405180910390f35b34801561018f575f80fd5b5061019861054c565b6040516101a59190611543565b60405180910390f35b3480156101b9575f80fd5b506101d460048036038101906101cf9190611586565b610571565b005b3480156101e1575f80fd5b506101fc60048036038101906101f79190611586565b61060d565b005b348015610209575f80fd5b50610224600480360381019061021f91906115b1565b61087d565b005b348015610231575f80fd5b5061023a6109d0565b60405161024791906116a6565b60405180910390f35b34801561025b575f80fd5b50610264610a5b565b6040516102719190611543565b60405180910390f35b348015610285575f80fd5b506102a0600480360381019061029b91906116f9565b610b65565b6040516102ad9190611543565b60405180910390f35b6102d060048036038101906102cb9190611781565b610bf0565b6040516102dd919061186c565b60405180910390f35b3480156102f1575f80fd5b5061030c60048036038101906103079190611586565b610d54565b6040516103199190611543565b60405180910390f35b34801561032d575f80fd5b50610336610d83565b604051610343919061189b565b60405180910390f35b348015610357575f80fd5b50610360610d89565b60405161036d9190611543565b60405180910390f35b348015610381575f80fd5b5061038a610dae565b604051610397919061189b565b60405180910390f35b3480156103ab575f80fd5b506103c660048036038101906103c19190611586565b610dba565b6040516103d391906118cc565b60405180910390f35b3480156103e7575f80fd5b5061040260048036038101906103fd91906116f9565b610e98565b60405161040f9190611543565b60405180910390f35b348015610423575f80fd5b5061042c610ed3565b60405161043b939291906118e5565b60405180910390f35b5f7f01ffc9a7000000000000000000000000000000000000000000000000000000007bffffffffffffffffffffffffffffffffffffffffffffffffffffffff1916827bffffffffffffffffffffffffffffffffffffffffffffffffffffffff1916148061050e57507f400a0398000000000000000000000000000000000000000000000000000000007bffffffffffffffffffffffffffffffffffffffffffffffffffffffff1916827bffffffffffffffffffffffffffffffffffffffffffffffffffffffff1916145b9050919050565b5f80610529610522610a5b565b8585610ee9565b9050801561054157631626ba7e60e01b915050610546565b5f9150505b92915050565b60045f9054906101000a900473ffffffffffffffffffffffffffffffffffffffff1681565b5f600254146105b5576040517f08c379a00000000000000000000000000000000000000000000000000000000081526004016105ac90611974565b60405180910390fd5b8060035f6101000a81548173ffffffffffffffffffffffffffffffffffffffff021916908373ffffffffffffffffffffffffffffffffffffffff16021790555060025f8154610603906119bf565b9190508190555050565b610615610a5b565b73ffffffffffffffffffffffffffffffffffffffff163373ffffffffffffffffffffffffffffffffffffffff1614610682576040517f08c379a000000000000000000000000000000000000000000000000000000000815260040161067990611a50565b60405180910390fd5b5f805f8373ffffffffffffffffffffffffffffffffffffffff1673ffffffffffffffffffffffffffffffffffffffff1681526020019081526020015f205f6101000a81548173ffffffffffffffffffffffffffffffffffffffff021916908373ffffffffffffffffffffffffffffffffffffffff1602179055505f5b600180549050811015610879578173ffffffffffffffffffffffffffffffffffffffff166001828154811061073657610735611a6e565b5b905f5260205f20015f9054906101000a900473ffffffffffffffffffffffffffffffffffffffff1673ffffffffffffffffffffffffffffffffffffffff160361086657600180808054905061078b9190611a9b565b8154811061079c5761079b611a6e565b5b905f5260205f20015f9054906101000a900473ffffffffffffffffffffffffffffffffffffffff16600182815481106107d8576107d7611a6e565b5b905f5260205f20015f6101000a81548173ffffffffffffffffffffffffffffffffffffffff021916908373ffffffffffffffffffffffffffffffffffffffff160217905550600180548061082f5761082e611ace565b5b600190038181905f5260205f20015f6101000a81549073ffffffffffffffffffffffffffffffffffffffff02191690559055610879565b8080610871906119bf565b9150506106fe565b5050565b610885610a5b565b73ffffffffffffffffffffffffffffffffffffffff163373ffffffffffffffffffffffffffffffffffffffff16146108f2576040517f08c379a00000000000000000000000000000000000000000000000000000000081526004016108e990611a50565b60405180910390fd5b600182908060018154018082558091505060019003905f5260205f20015f9091909190916101000a81548173ffffffffffffffffffffffffffffffffffffffff021916908373ffffffffffffffffffffffffffffffffffffffff160217905550805f808473ffffffffffffffffffffffffffffffffffffffff1673ffffffffffffffffffffffffffffffffffffffff1681526020019081526020015f205f6101000a81548173ffffffffffffffffffffffffffffffffffffffff021916908373ffffffffffffffffffffffffffffffffffffffff1602179055505050565b60606001805480602002602001604051908101604052809291908181526020018280548015610a5157602002820191905f5260205f20905b815f9054906101000a900473ffffffffffffffffffffffffffffffffffffffff1673ffffffffffffffffffffffffffffffffffffffff1681526020019060010190808311610a08575b5050505050905090565b5f805f803073ffffffffffffffffffffffffffffffffffffffff1663fc0c546a6040518163ffffffff1660e01b8152600401606060405180830381865afa158015610aa8573d5f803e3d5ffd5b505050506040513d601f19601f82011682018060405250810190610acc9190611b23565b925092509250468314610ae4575f9350505050610b62565b8173ffffffffffffffffffffffffffffffffffffffff16636352211e826040518263ffffffff1660e01b8152600401610b1d919061189b565b602060405180830381865afa158015610b38573d5f803e3d5ffd5b505050506040513d601f19601f82011682018060405250810190610b5c9190611b73565b93505050505b90565b5f6001805490508210610bad576040517f08c379a0000000000000000000000000000000000000000000000000000000008152600401610ba490611be8565b60405180910390fd5b60018281548110610bc157610bc0611a6e565b5b905f5260205f20015f9054906101000a900473ffffffffffffffffffffffffffffffffffffffff169050919050565b6060610bfa610a5b565b73ffffffffffffffffffffffffffffffffffffffff163373ffffffffffffffffffffffffffffffffffffffff1614610c67576040517f08c379a0000000000000000000000000000000000000000000000000000000008152600401610c5e90611a50565b60405180910390fd5b60025f8154610c75906119bf565b91905081905550838573ffffffffffffffffffffffffffffffffffffffff167f47d99ad340f52da66535aff7e10da1ceb85a32bcbd9fa1c42314d194545e14d28585604051610cc5929190611c32565b60405180910390a35f8573ffffffffffffffffffffffffffffffffffffffff16858585604051610cf6929190611c82565b5f6040518083038185875af1925050503d805f8114610d30576040519150601f19603f3d011682016040523d82523d5f602084013e610d35565b606091505b50809350819250505080610d4b57815160208301fd5b50949350505050565b5f602052805f5260405f205f915054906101000a900473ffffffffffffffffffffffffffffffffffffffff1681565b60025481565b60035f9054906101000a900473ffffffffffffffffffffffffffffffffffffffff1681565b5f600180549050905090565b5f805f808473ffffffffffffffffffffffffffffffffffffffff1673ffffffffffffffffffffffffffffffffffffffff1681526020019081526020015f205f9054906101000a900473ffffffffffffffffffffffffffffffffffffffff1690505f8173ffffffffffffffffffffffffffffffffffffffff1663feaf968c6040518163ffffffff1660e01b815260040160a060405180830381865afa158015610e64573d5f803e3d5ffd5b505050506040513d601f19601f82011682018060405250810190610e889190611d03565b5050509150508092505050919050565b60018181548110610ea7575f80fd5b905f5260205f20015f915054906101000a900473ffffffffffffffffffffffffffffffffffffffff1681565b5f805f610ede610f76565b925092509250909192565b5f805f610ef68585610ff4565b50915091505f6003811115610f0e57610f0d611d7a565b5b816003811115610f2157610f20611d7a565b5b148015610f5957508573ffffffffffffffffffffffffffffffffffffffff168273ffffffffffffffffffffffffffffffffffffffff16145b80610f6b5750610f6a868686611049565b5b925050509392505050565b5f805f80606067ffffffffffffffff811115610f9557610f9461135e565b5b6040519080825280601f01601f191660200182016040528015610fc75781602001600182028036833780820191505090505b5090506060604d60208301303c80806020019051810190610fe89190611de2565b93509350935050909192565b5f805f6041845103611034575f805f602087015192506040870151915060608701515f1a905061102688828585611168565b955095509550505050611042565b5f600285515f1b9250925092505b9250925092565b5f805f8573ffffffffffffffffffffffffffffffffffffffff168585604051602401611076929190611e41565b604051602081830303815290604052631626ba7e60e01b6020820180517bffffffffffffffffffffffffffffffffffffffffffffffffffffffff83818316178352505050506040516110c89190611e9f565b5f60405180830381855afa9150503d805f8114611100576040519150601f19603f3d011682016040523d82523d5f602084013e611105565b606091505b509150915081801561111957506020815110155b801561115d5750631626ba7e60e01b7bffffffffffffffffffffffffffffffffffffffffffffffffffffffff19168180602001905181019061115b9190611ec9565b145b925050509392505050565b5f805f7f7fffffffffffffffffffffffffffffff5d576e7357a4501ddfe92f46681b20a0845f1c11156111a4575f600385925092509250611245565b5f6001888888886040515f81526020016040526040516111c79493929190611f0f565b6020604051602081039080840390855afa1580156111e7573d5f803e3d5ffd5b5050506020604051035190505f73ffffffffffffffffffffffffffffffffffffffff168173ffffffffffffffffffffffffffffffffffffffff1603611238575f60015f801b93509350935050611245565b805f805f1b935093509350505b9450945094915050565b5f604051905090565b5f80fd5b5f80fd5b5f7fffffffff0000000000000000000000000000000000000000000000000000000082169050919050565b61129481611260565b811461129e575f80fd5b50565b5f813590506112af8161128b565b92915050565b5f602082840312156112ca576112c9611258565b5b5f6112d7848285016112a1565b91505092915050565b5f8115159050919050565b6112f4816112e0565b82525050565b5f60208201905061130d5f8301846112eb565b92915050565b5f819050919050565b61132581611313565b811461132f575f80fd5b50565b5f813590506113408161131c565b92915050565b5f80fd5b5f80fd5b5f601f19601f8301169050919050565b7f4e487b71000000000000000000000000000000000000000000000000000000005f52604160045260245ffd5b6113948261134e565b810181811067ffffffffffffffff821117156113b3576113b261135e565b5b80604052505050565b5f6113c561124f565b90506113d1828261138b565b919050565b5f67ffffffffffffffff8211156113f0576113ef61135e565b5b6113f98261134e565b9050602081019050919050565b828183375f83830152505050565b5f611426611421846113d6565b6113bc565b9050828152602081018484840111156114425761144161134a565b5b61144d848285611406565b509392505050565b5f82601f83011261146957611468611346565b5b8135611479848260208601611414565b91505092915050565b5f806040838503121561149857611497611258565b5b5f6114a585828601611332565b925050602083013567ffffffffffffffff8111156114c6576114c561125c565b5b6114d285828601611455565b9150509250929050565b6114e581611260565b82525050565b5f6020820190506114fe5f8301846114dc565b92915050565b5f73ffffffffffffffffffffffffffffffffffffffff82169050919050565b5f61152d82611504565b9050919050565b61153d81611523565b82525050565b5f6020820190506115565f830184611534565b92915050565b61156581611523565b811461156f575f80fd5b50565b5f813590506115808161155c565b92915050565b5f6020828403121561159b5761159a611258565b5b5f6115a884828501611572565b91505092915050565b5f80604083850312156115c7576115c6611258565b5b5f6115d485828601611572565b92505060206115e585828601611572565b9150509250929050565b5f81519050919050565b5f82825260208201905092915050565b5f819050602082019050919050565b61162181611523565b82525050565b5f6116328383611618565b60208301905092915050565b5f602082019050919050565b5f611654826115ef565b61165e81856115f9565b935061166983611609565b805f5b838110156116995781516116808882611627565b975061168b8361163e565b92505060018101905061166c565b5085935050505092915050565b5f6020820190508181035f8301526116be818461164a565b905092915050565b5f819050919050565b6116d8816116c6565b81146116e2575f80fd5b50565b5f813590506116f3816116cf565b92915050565b5f6020828403121561170e5761170d611258565b5b5f61171b848285016116e5565b91505092915050565b5f80fd5b5f80fd5b5f8083601f84011261174157611740611346565b5b8235905067ffffffffffffffff81111561175e5761175d611724565b5b60208301915083600182028301111561177a57611779611728565b5b9250929050565b5f805f806060858703121561179957611798611258565b5b5f6117a687828801611572565b94505060206117b7878288016116e5565b935050604085013567ffffffffffffffff8111156117d8576117d761125c565b5b6117e48782880161172c565b925092505092959194509250565b5f81519050919050565b5f82825260208201905092915050565b5f5b8381101561182957808201518184015260208101905061180e565b5f8484015250505050565b5f61183e826117f2565b61184881856117fc565b935061185881856020860161180c565b6118618161134e565b840191505092915050565b5f6020820190508181035f8301526118848184611834565b905092915050565b611895816116c6565b82525050565b5f6020820190506118ae5f83018461188c565b92915050565b5f819050919050565b6118c6816118b4565b82525050565b5f6020820190506118df5f8301846118bd565b92915050565b5f6060820190506118f85f83018661188c565b6119056020830185611534565b611912604083018461188c565b949350505050565b5f82825260208201905092915050565b7f6e65656420746f2073657420696e206669727374207472616e73616374696f6e5f82015250565b5f61195e60208361191a565b91506119698261192a565b602082019050919050565b5f6020820190508181035f83015261198b81611952565b9050919050565b7f4e487b71000000000000000000000000000000000000000000000000000000005f52601160045260245ffd5b5f6119c9826116c6565b91507fffffffffffffffffffffffffffffffffffffffffffffffffffffffffffffffff82036119fb576119fa611992565b5b600182019050919050565b7f4e6f7420746f6b656e206f776e657200000000000000000000000000000000005f82015250565b5f611a3a600f8361191a565b9150611a4582611a06565b602082019050919050565b5f6020820190508181035f830152611a6781611a2e565b9050919050565b7f4e487b71000000000000000000000000000000000000000000000000000000005f52603260045260245ffd5b5f611aa5826116c6565b9150611ab0836116c6565b9250828203905081811115611ac857611ac7611992565b5b92915050565b7f4e487b71000000000000000000000000000000000000000000000000000000005f52603160045260245ffd5b5f81519050611b09816116cf565b92915050565b5f81519050611b1d8161155c565b92915050565b5f805f60608486031215611b3a57611b39611258565b5b5f611b4786828701611afb565b9350506020611b5886828701611b0f565b9250506040611b6986828701611afb565b9150509250925092565b5f60208284031215611b8857611b87611258565b5b5f611b9584828501611b0f565b91505092915050565b7f496e646578206f7574206f6620626f756e6473000000000000000000000000005f82015250565b5f611bd260138361191a565b9150611bdd82611b9e565b602082019050919050565b5f6020820190508181035f830152611bff81611bc6565b9050919050565b5f611c1183856117fc565b9350611c1e838584611406565b611c278361134e565b840190509392505050565b5f6020820190508181035f830152611c4b818486611c06565b90509392505050565b5f81905092915050565b5f611c698385611c54565b9350611c76838584611406565b82840190509392505050565b5f611c8e828486611c5e565b91508190509392505050565b5f69ffffffffffffffffffff82169050919050565b611cb881611c9a565b8114611cc2575f80fd5b50565b5f81519050611cd381611caf565b92915050565b611ce2816118b4565b8114611cec575f80fd5b50565b5f81519050611cfd81611cd9565b92915050565b5f805f805f60a08688031215611d1c57611d1b611258565b5b5f611d2988828901611cc5565b9550506020611d3a88828901611cef565b9450506040611d4b88828901611afb565b9350506060611d5c88828901611afb565b9250506080611d6d88828901611cc5565b9150509295509295909350565b7f4e487b71000000000000000000000000000000000000000000000000000000005f52602160045260245ffd5b5f611db182611504565b9050919050565b611dc181611da7565b8114611dcb575f80fd5b50565b5f81519050611ddc81611db8565b92915050565b5f805f60608486031215611df957611df8611258565b5b5f611e0686828701611afb565b9350506020611e1786828701611dce565b9250506040611e2886828701611afb565b9150509250925092565b611e3b81611313565b82525050565b5f604082019050611e545f830185611e32565b8181036020830152611e668184611834565b90509392505050565b5f611e79826117f2565b611e838185611c54565b9350611e9381856020860161180c565b80840191505092915050565b5f611eaa8284611e6f565b915081905092915050565b5f81519050611ec38161131c565b92915050565b5f60208284031215611ede57611edd611258565b5b5f611eeb84828501611eb5565b91505092915050565b5f60ff82169050919050565b611f0981611ef4565b82525050565b5f608082019050611f225f830187611e32565b611f2f6020830186611f00565b611f3c6040830185611e32565b611f496060830184611e32565b9594505050505056fea2646970667358221220e6a75f761e0d3cf822f53d99e74d7268bb542f3e01709792cc91f6529cde353164736f6c63430008140033",
  "linkReferences": {},
  "deployedLinkReferences": {}
}