{
  "_format": "hh-sol-artifact-1",
  "contractName": "ERC6551Account",
  "sourceName": "contracts/ERC6551Account.sol",
  "abi": [
    {
      "anonymous": false,
      "inputs": [
        {
          "indexed": true,
          "internalType": "address",
          "name": "target",
          "type": "address"
        },
        {
          "indexed": true,
          "internalType": "uint256",
          "name": "value",
          "type": "uint256"
        },
        {
          "indexed": false,
          "internalType": "bytes",
          "name": "data",
          "type": "bytes"
        }
      ],
      "name": "TransactionExecuted",
      "type": "event"
    },
    {
      "inputs": [
        {
          "internalType": "address",
          "name": "_token",
          "type": "address"
        }
      ],
      "name": "addToken",
      "outputs": [],
      "stateMutability": "nonpayable",
      "type": "function"
    },
    {
      "inputs": [
        {
          "internalType": "address",
          "name": "to",
          "type": "address"
        },
        {
          "internalType": "uint256",
          "name": "value",
          "type": "uint256"
        },
        {
          "internalType": "bytes",
          "name": "data",
          "type": "bytes"
        }
      ],
      "name": "executeCall",
      "outputs": [
        {
          "internalType": "bytes",
          "name": "result",
          "type": "bytes"
        }
      ],
      "stateMutability": "payable",
      "type": "function"
    },
    {
      "inputs": [],
      "name": "getAllToken",
      "outputs": [
        {
          "internalType": "address[]",
          "name": "",
          "type": "address[]"
        }
      ],
      "stateMutability": "view",
      "type": "function"
    },
    {
      "inputs": [],
      "name": "getTokenArrayLength",
      "outputs": [
        {
          "internalType": "uint256",
          "name": "",
          "type": "uint256"
        }
      ],
      "stateMutability": "view",
      "type": "function"
    },
    {
      "inputs": [
        {
          "internalType": "uint256",
          "name": "index",
          "type": "uint256"
        }
      ],
      "name": "getTokenAtIndex",
      "outputs": [
        {
          "internalType": "address",
          "name": "",
          "type": "address"
        }
      ],
      "stateMutability": "view",
      "type": "function"
    },
    {
      "inputs": [
        {
          "internalType": "bytes32",
          "name": "hash",
          "type": "bytes32"
        },
        {
          "internalType": "bytes",
          "name": "signature",
          "type": "bytes"
        }
      ],
      "name": "isValidSignature",
      "outputs": [
        {
          "internalType": "bytes4",
          "name": "magicValue",
          "type": "bytes4"
        }
      ],
      "stateMutability": "view",
      "type": "function"
    },
    {
      "inputs": [],
      "name": "nonce",
      "outputs": [
        {
          "internalType": "uint256",
          "name": "",
          "type": "uint256"
        }
      ],
      "stateMutability": "view",
      "type": "function"
    },
    {
      "inputs": [],
      "name": "owner",
      "outputs": [
        {
          "internalType": "address",
          "name": "",
          "type": "address"
        }
      ],
      "stateMutability": "view",
      "type": "function"
    },
    {
      "inputs": [
        {
          "internalType": "address",
          "name": "_token",
          "type": "address"
        }
      ],
      "name": "removeAddress",
      "outputs": [],
      "stateMutability": "nonpayable",
      "type": "function"
    },
    {
      "inputs": [
        {
          "internalType": "bytes4",
          "name": "interfaceId",
          "type": "bytes4"
        }
      ],
      "name": "supportsInterface",
      "outputs": [
        {
          "internalType": "bool",
          "name": "",
          "type": "bool"
        }
      ],
      "stateMutability": "pure",
      "type": "function"
    },
    {
      "inputs": [],
      "name": "token",
      "outputs": [
        {
          "internalType": "uint256",
          "name": "",
          "type": "uint256"
        },
        {
          "internalType": "address",
          "name": "",
          "type": "address"
        },
        {
          "internalType": "uint256",
          "name": "",
          "type": "uint256"
        }
      ],
      "stateMutability": "view",
      "type": "function"
    },
    {
      "inputs": [
        {
          "internalType": "uint256",
          "name": "",
          "type": "uint256"
        }
      ],
      "name": "tokenArray",
      "outputs": [
        {
          "internalType": "address",
          "name": "",
          "type": "address"
        }
      ],
      "stateMutability": "view",
      "type": "function"
    },
    {
      "stateMutability": "payable",
      "type": "receive"
    }
  ],
  "bytecode": "0x608060405234801561000f575f80fd5b506118aa8061001d5f395ff3fe6080604052600436106100aa575f3560e01c80639e5d4c49116100635780639e5d4c49146101e5578063affed0e014610215578063b15345ab1461023f578063d48bfca714610269578063faa32f5d14610291578063fc0c546a146102cd576100b1565b806301ffc9a7146100b55780631626ba7e146100f15780634ba79dfe1461012d57806385e3c1d4146101555780638da5cb5b1461017f57806397988dce146101a9576100b1565b366100b157005b5f80fd5b3480156100c0575f80fd5b506100db60048036038101906100d69190610d8e565b6102f9565b6040516100e89190610dd3565b60405180910390f35b3480156100fc575f80fd5b5061011760048036038101906101129190610f5b565b6103ca565b6040516101249190610fc4565b60405180910390f35b348015610138575f80fd5b50610153600480360381019061014e9190611037565b610401565b005b348015610160575f80fd5b5061016961057e565b6040516101769190611119565b60405180910390f35b34801561018a575f80fd5b50610193610608565b6040516101a09190611148565b60405180910390f35b3480156101b4575f80fd5b506101cf60048036038101906101ca9190611194565b610712565b6040516101dc9190611148565b60405180910390f35b6101ff60048036038101906101fa919061121c565b61079b565b60405161020c9190611307565b60405180910390f35b348015610220575f80fd5b506102296108ff565b6040516102369190611336565b60405180910390f35b34801561024a575f80fd5b50610253610905565b6040516102609190611336565b60405180910390f35b348015610274575f80fd5b5061028f600480360381019061028a9190611037565b610910565b005b34801561029c575f80fd5b506102b760048036038101906102b29190611194565b610972565b6040516102c49190611148565b60405180910390f35b3480156102d8575f80fd5b506102e16109ac565b6040516102f09392919061134f565b60405180910390f35b5f7f01ffc9a7000000000000000000000000000000000000000000000000000000007bffffffffffffffffffffffffffffffffffffffffffffffffffffffff1916827bffffffffffffffffffffffffffffffffffffffffffffffffffffffff191614806103c357507f400a0398000000000000000000000000000000000000000000000000000000007bffffffffffffffffffffffffffffffffffffffffffffffffffffffff1916827bffffffffffffffffffffffffffffffffffffffffffffffffffffffff1916145b9050919050565b5f806103de6103d7610608565b85856109c2565b905080156103f657631626ba7e60e01b9150506103fb565b5f9150505b92915050565b5f5b5f8054905081101561057a578173ffffffffffffffffffffffffffffffffffffffff165f828154811061043957610438611384565b5b905f5260205f20015f9054906101000a900473ffffffffffffffffffffffffffffffffffffffff1673ffffffffffffffffffffffffffffffffffffffff1603610567575f60015f8054905061048e91906113de565b8154811061049f5761049e611384565b5b905f5260205f20015f9054906101000a900473ffffffffffffffffffffffffffffffffffffffff165f82815481106104da576104d9611384565b5b905f5260205f20015f6101000a81548173ffffffffffffffffffffffffffffffffffffffff021916908373ffffffffffffffffffffffffffffffffffffffff1602179055505f8054806105305761052f611411565b5b600190038181905f5260205f20015f6101000a81549073ffffffffffffffffffffffffffffffffffffffff0219169055905561057a565b80806105729061143e565b915050610403565b5050565b60605f8054806020026020016040519081016040528092919081815260200182805480156105fe57602002820191905f5260205f20905b815f9054906101000a900473ffffffffffffffffffffffffffffffffffffffff1673ffffffffffffffffffffffffffffffffffffffff16815260200190600101908083116105b5575b5050505050905090565b5f805f803073ffffffffffffffffffffffffffffffffffffffff1663fc0c546a6040518163ffffffff1660e01b8152600401606060405180830381865afa158015610655573d5f803e3d5ffd5b505050506040513d601f19601f8201168201806040525081019061067991906114ad565b925092509250468314610691575f935050505061070f565b8173ffffffffffffffffffffffffffffffffffffffff16636352211e826040518263ffffffff1660e01b81526004016106ca9190611336565b602060405180830381865afa1580156106e5573d5f803e3d5ffd5b505050506040513d601f19601f8201168201806040525081019061070991906114fd565b93505050505b90565b5f80805490508210610759576040517f08c379a000000000000000000000000000000000000000000000000000000000815260040161075090611582565b60405180910390fd5b5f828154811061076c5761076b611384565b5b905f5260205f20015f9054906101000a900473ffffffffffffffffffffffffffffffffffffffff169050919050565b60606107a5610608565b73ffffffffffffffffffffffffffffffffffffffff163373ffffffffffffffffffffffffffffffffffffffff1614610812576040517f08c379a0000000000000000000000000000000000000000000000000000000008152600401610809906115ea565b60405180910390fd5b60015f81546108209061143e565b91905081905550838573ffffffffffffffffffffffffffffffffffffffff167f47d99ad340f52da66535aff7e10da1ceb85a32bcbd9fa1c42314d194545e14d28585604051610870929190611634565b60405180910390a35f8573ffffffffffffffffffffffffffffffffffffffff168585856040516108a1929190611684565b5f6040518083038185875af1925050503d805f81146108db576040519150601f19603f3d011682016040523d82523d5f602084013e6108e0565b606091505b508093508192505050806108f657815160208301fd5b50949350505050565b60015481565b5f8080549050905090565b5f81908060018154018082558091505060019003905f5260205f20015f9091909190916101000a81548173ffffffffffffffffffffffffffffffffffffffff021916908373ffffffffffffffffffffffffffffffffffffffff16021790555050565b5f8181548110610980575f80fd5b905f5260205f20015f915054906101000a900473ffffffffffffffffffffffffffffffffffffffff1681565b5f805f6109b7610a4f565b925092509250909192565b5f805f6109cf8585610acd565b50915091505f60038111156109e7576109e661169c565b5b8160038111156109fa576109f961169c565b5b148015610a3257508573ffffffffffffffffffffffffffffffffffffffff168273ffffffffffffffffffffffffffffffffffffffff16145b80610a445750610a43868686610b22565b5b925050509392505050565b5f805f80606067ffffffffffffffff811115610a6e57610a6d610e37565b5b6040519080825280601f01601f191660200182016040528015610aa05781602001600182028036833780820191505090505b5090506060604d60208301303c80806020019051810190610ac19190611704565b93509350935050909192565b5f805f6041845103610b0d575f805f602087015192506040870151915060608701515f1a9050610aff88828585610c41565b955095509550505050610b1b565b5f600285515f1b9250925092505b9250925092565b5f805f8573ffffffffffffffffffffffffffffffffffffffff168585604051602401610b4f929190611763565b604051602081830303815290604052631626ba7e60e01b6020820180517bffffffffffffffffffffffffffffffffffffffffffffffffffffffff8381831617835250505050604051610ba191906117c1565b5f60405180830381855afa9150503d805f8114610bd9576040519150601f19603f3d011682016040523d82523d5f602084013e610bde565b606091505b5091509150818015610bf257506020815110155b8015610c365750631626ba7e60e01b7bffffffffffffffffffffffffffffffffffffffffffffffffffffffff191681806020019051810190610c3491906117eb565b145b925050509392505050565b5f805f7f7fffffffffffffffffffffffffffffff5d576e7357a4501ddfe92f46681b20a0845f1c1115610c7d575f600385925092509250610d1e565b5f6001888888886040515f8152602001604052604051610ca09493929190611831565b6020604051602081039080840390855afa158015610cc0573d5f803e3d5ffd5b5050506020604051035190505f73ffffffffffffffffffffffffffffffffffffffff168173ffffffffffffffffffffffffffffffffffffffff1603610d11575f60015f801b93509350935050610d1e565b805f805f1b935093509350505b9450945094915050565b5f604051905090565b5f80fd5b5f80fd5b5f7fffffffff0000000000000000000000000000000000000000000000000000000082169050919050565b610d6d81610d39565b8114610d77575f80fd5b50565b5f81359050610d8881610d64565b92915050565b5f60208284031215610da357610da2610d31565b5b5f610db084828501610d7a565b91505092915050565b5f8115159050919050565b610dcd81610db9565b82525050565b5f602082019050610de65f830184610dc4565b92915050565b5f819050919050565b610dfe81610dec565b8114610e08575f80fd5b50565b5f81359050610e1981610df5565b92915050565b5f80fd5b5f80fd5b5f601f19601f8301169050919050565b7f4e487b71000000000000000000000000000000000000000000000000000000005f52604160045260245ffd5b610e6d82610e27565b810181811067ffffffffffffffff82111715610e8c57610e8b610e37565b5b80604052505050565b5f610e9e610d28565b9050610eaa8282610e64565b919050565b5f67ffffffffffffffff821115610ec957610ec8610e37565b5b610ed282610e27565b9050602081019050919050565b828183375f83830152505050565b5f610eff610efa84610eaf565b610e95565b905082815260208101848484011115610f1b57610f1a610e23565b5b610f26848285610edf565b509392505050565b5f82601f830112610f4257610f41610e1f565b5b8135610f52848260208601610eed565b91505092915050565b5f8060408385031215610f7157610f70610d31565b5b5f610f7e85828601610e0b565b925050602083013567ffffffffffffffff811115610f9f57610f9e610d35565b5b610fab85828601610f2e565b9150509250929050565b610fbe81610d39565b82525050565b5f602082019050610fd75f830184610fb5565b92915050565b5f73ffffffffffffffffffffffffffffffffffffffff82169050919050565b5f61100682610fdd565b9050919050565b61101681610ffc565b8114611020575f80fd5b50565b5f813590506110318161100d565b92915050565b5f6020828403121561104c5761104b610d31565b5b5f61105984828501611023565b91505092915050565b5f81519050919050565b5f82825260208201905092915050565b5f819050602082019050919050565b61109481610ffc565b82525050565b5f6110a5838361108b565b60208301905092915050565b5f602082019050919050565b5f6110c782611062565b6110d1818561106c565b93506110dc8361107c565b805f5b8381101561110c5781516110f3888261109a565b97506110fe836110b1565b9250506001810190506110df565b5085935050505092915050565b5f6020820190508181035f83015261113181846110bd565b905092915050565b61114281610ffc565b82525050565b5f60208201905061115b5f830184611139565b92915050565b5f819050919050565b61117381611161565b811461117d575f80fd5b50565b5f8135905061118e8161116a565b92915050565b5f602082840312156111a9576111a8610d31565b5b5f6111b684828501611180565b91505092915050565b5f80fd5b5f80fd5b5f8083601f8401126111dc576111db610e1f565b5b8235905067ffffffffffffffff8111156111f9576111f86111bf565b5b602083019150836001820283011115611215576112146111c3565b5b9250929050565b5f805f806060858703121561123457611233610d31565b5b5f61124187828801611023565b945050602061125287828801611180565b935050604085013567ffffffffffffffff81111561127357611272610d35565b5b61127f878288016111c7565b925092505092959194509250565b5f81519050919050565b5f82825260208201905092915050565b5f5b838110156112c45780820151818401526020810190506112a9565b5f8484015250505050565b5f6112d98261128d565b6112e38185611297565b93506112f38185602086016112a7565b6112fc81610e27565b840191505092915050565b5f6020820190508181035f83015261131f81846112cf565b905092915050565b61133081611161565b82525050565b5f6020820190506113495f830184611327565b92915050565b5f6060820190506113625f830186611327565b61136f6020830185611139565b61137c6040830184611327565b949350505050565b7f4e487b71000000000000000000000000000000000000000000000000000000005f52603260045260245ffd5b7f4e487b71000000000000000000000000000000000000000000000000000000005f52601160045260245ffd5b5f6113e882611161565b91506113f383611161565b925082820390508181111561140b5761140a6113b1565b5b92915050565b7f4e487b71000000000000000000000000000000000000000000000000000000005f52603160045260245ffd5b5f61144882611161565b91507fffffffffffffffffffffffffffffffffffffffffffffffffffffffffffffffff820361147a576114796113b1565b5b600182019050919050565b5f815190506114938161116a565b92915050565b5f815190506114a78161100d565b92915050565b5f805f606084860312156114c4576114c3610d31565b5b5f6114d186828701611485565b93505060206114e286828701611499565b92505060406114f386828701611485565b9150509250925092565b5f6020828403121561151257611511610d31565b5b5f61151f84828501611499565b91505092915050565b5f82825260208201905092915050565b7f496e646578206f7574206f6620626f756e6473000000000000000000000000005f82015250565b5f61156c601383611528565b915061157782611538565b602082019050919050565b5f6020820190508181035f83015261159981611560565b9050919050565b7f4e6f7420746f6b656e206f776e657200000000000000000000000000000000005f82015250565b5f6115d4600f83611528565b91506115df826115a0565b602082019050919050565b5f6020820190508181035f830152611601816115c8565b9050919050565b5f6116138385611297565b9350611620838584610edf565b61162983610e27565b840190509392505050565b5f6020820190508181035f83015261164d818486611608565b90509392505050565b5f81905092915050565b5f61166b8385611656565b9350611678838584610edf565b82840190509392505050565b5f611690828486611660565b91508190509392505050565b7f4e487b71000000000000000000000000000000000000000000000000000000005f52602160045260245ffd5b5f6116d382610fdd565b9050919050565b6116e3816116c9565b81146116ed575f80fd5b50565b5f815190506116fe816116da565b92915050565b5f805f6060848603121561171b5761171a610d31565b5b5f61172886828701611485565b9350506020611739868287016116f0565b925050604061174a86828701611485565b9150509250925092565b61175d81610dec565b82525050565b5f6040820190506117765f830185611754565b818103602083015261178881846112cf565b90509392505050565b5f61179b8261128d565b6117a58185611656565b93506117b58185602086016112a7565b80840191505092915050565b5f6117cc8284611791565b915081905092915050565b5f815190506117e581610df5565b92915050565b5f60208284031215611800576117ff610d31565b5b5f61180d848285016117d7565b91505092915050565b5f60ff82169050919050565b61182b81611816565b82525050565b5f6080820190506118445f830187611754565b6118516020830186611822565b61185e6040830185611754565b61186b6060830184611754565b9594505050505056fea26469706673582212200711db8a19e456fcc4abebee27c11d494c2b0b85c68c7aef0c55949ddff85dd964736f6c63430008140033",
  "linkReferences": {},
  "deployedLinkReferences": {}
}