{
  "_format": "hh-sol-artifact-1",
  "contractName": "ERC6551Account",
  "sourceName": "contracts/ERC6551Account.sol",
  "abi": [
    {
      "anonymous": false,
      "inputs": [
        {
          "indexed": true,
          "internalType": "address",
          "name": "target",
          "type": "address"
        },
        {
          "indexed": true,
          "internalType": "uint256",
          "name": "value",
          "type": "uint256"
        },
        {
          "indexed": false,
          "internalType": "bytes",
          "name": "data",
          "type": "bytes"
        }
      ],
      "name": "TransactionExecuted",
      "type": "event"
    },
    {
      "inputs": [
        {
          "internalType": "address",
          "name": "to",
          "type": "address"
        },
        {
          "internalType": "uint256",
          "name": "value",
          "type": "uint256"
        },
        {
          "internalType": "bytes",
          "name": "data",
          "type": "bytes"
        }
      ],
      "name": "executeCall",
      "outputs": [
        {
          "internalType": "bytes",
          "name": "result",
          "type": "bytes"
        }
      ],
      "stateMutability": "payable",
      "type": "function"
    },
    {
      "inputs": [
        {
          "internalType": "bytes32",
          "name": "hash",
          "type": "bytes32"
        },
        {
          "internalType": "bytes",
          "name": "signature",
          "type": "bytes"
        }
      ],
      "name": "isValidSignature",
      "outputs": [
        {
          "internalType": "bytes4",
          "name": "magicValue",
          "type": "bytes4"
        }
      ],
      "stateMutability": "view",
      "type": "function"
    },
    {
      "inputs": [],
      "name": "nonce",
      "outputs": [
        {
          "internalType": "uint256",
          "name": "",
          "type": "uint256"
        }
      ],
      "stateMutability": "view",
      "type": "function"
    },
    {
      "inputs": [],
      "name": "owner",
      "outputs": [
        {
          "internalType": "address",
          "name": "",
          "type": "address"
        }
      ],
      "stateMutability": "view",
      "type": "function"
    },
    {
      "inputs": [
        {
          "internalType": "bytes4",
          "name": "interfaceId",
          "type": "bytes4"
        }
      ],
      "name": "supportsInterface",
      "outputs": [
        {
          "internalType": "bool",
          "name": "",
          "type": "bool"
        }
      ],
      "stateMutability": "pure",
      "type": "function"
    },
    {
      "inputs": [],
      "name": "token",
      "outputs": [
        {
          "internalType": "uint256",
          "name": "",
          "type": "uint256"
        },
        {
          "internalType": "address",
          "name": "",
          "type": "address"
        },
        {
          "internalType": "uint256",
          "name": "",
          "type": "uint256"
        }
      ],
      "stateMutability": "view",
      "type": "function"
    },
    {
      "stateMutability": "payable",
      "type": "receive"
    }
  ],
  "bytecode": "0x608060405234801561000f575f80fd5b506111e18061001d5f395ff3fe608060405260043610610058575f3560e01c806301ffc9a7146100635780631626ba7e1461009f5780638da5cb5b146100db5780639e5d4c4914610105578063affed0e014610135578063fc0c546a1461015f5761005f565b3661005f57005b5f80fd5b34801561006e575f80fd5b50610089600480360381019061008491906108e7565b61018b565b604051610096919061092c565b60405180910390f35b3480156100aa575f80fd5b506100c560048036038101906100c09190610ab4565b61025c565b6040516100d29190610b1d565b60405180910390f35b3480156100e6575f80fd5b506100ef610293565b6040516100fc9190610b75565b60405180910390f35b61011f600480360381019061011a9190610c48565b61039d565b60405161012c9190610d33565b60405180910390f35b348015610140575f80fd5b50610149610500565b6040516101569190610d62565b60405180910390f35b34801561016a575f80fd5b50610173610505565b60405161018293929190610d7b565b60405180910390f35b5f7f01ffc9a7000000000000000000000000000000000000000000000000000000007bffffffffffffffffffffffffffffffffffffffffffffffffffffffff1916827bffffffffffffffffffffffffffffffffffffffffffffffffffffffff1916148061025557507f400a0398000000000000000000000000000000000000000000000000000000007bffffffffffffffffffffffffffffffffffffffffffffffffffffffff1916827bffffffffffffffffffffffffffffffffffffffffffffffffffffffff1916145b9050919050565b5f80610270610269610293565b858561051b565b9050801561028857631626ba7e60e01b91505061028d565b5f9150505b92915050565b5f805f803073ffffffffffffffffffffffffffffffffffffffff1663fc0c546a6040518163ffffffff1660e01b8152600401606060405180830381865afa1580156102e0573d5f803e3d5ffd5b505050506040513d601f19601f820116820180604052508101906103049190610dd8565b92509250925046831461031c575f935050505061039a565b8173ffffffffffffffffffffffffffffffffffffffff16636352211e826040518263ffffffff1660e01b81526004016103559190610d62565b602060405180830381865afa158015610370573d5f803e3d5ffd5b505050506040513d601f19601f820116820180604052508101906103949190610e28565b93505050505b90565b60606103a7610293565b73ffffffffffffffffffffffffffffffffffffffff163373ffffffffffffffffffffffffffffffffffffffff1614610414576040517f08c379a000000000000000000000000000000000000000000000000000000000815260040161040b90610ead565b60405180910390fd5b5f80815461042190610ef8565b91905081905550838573ffffffffffffffffffffffffffffffffffffffff167f47d99ad340f52da66535aff7e10da1ceb85a32bcbd9fa1c42314d194545e14d28585604051610471929190610f6b565b60405180910390a35f8573ffffffffffffffffffffffffffffffffffffffff168585856040516104a2929190610fbb565b5f6040518083038185875af1925050503d805f81146104dc576040519150601f19603f3d011682016040523d82523d5f602084013e6104e1565b606091505b508093508192505050806104f757815160208301fd5b50949350505050565b5f5481565b5f805f6105106105a8565b925092509250909192565b5f805f6105288585610626565b50915091505f60038111156105405761053f610fd3565b5b81600381111561055357610552610fd3565b5b14801561058b57508573ffffffffffffffffffffffffffffffffffffffff168273ffffffffffffffffffffffffffffffffffffffff16145b8061059d575061059c86868661067b565b5b925050509392505050565b5f805f80606067ffffffffffffffff8111156105c7576105c6610990565b5b6040519080825280601f01601f1916602001820160405280156105f95781602001600182028036833780820191505090505b5090506060604d60208301303c8080602001905181019061061a919061103b565b93509350935050909192565b5f805f6041845103610666575f805f602087015192506040870151915060608701515f1a90506106588882858561079a565b955095509550505050610674565b5f600285515f1b9250925092505b9250925092565b5f805f8573ffffffffffffffffffffffffffffffffffffffff1685856040516024016106a892919061109a565b604051602081830303815290604052631626ba7e60e01b6020820180517bffffffffffffffffffffffffffffffffffffffffffffffffffffffff83818316178352505050506040516106fa91906110f8565b5f60405180830381855afa9150503d805f8114610732576040519150601f19603f3d011682016040523d82523d5f602084013e610737565b606091505b509150915081801561074b57506020815110155b801561078f5750631626ba7e60e01b7bffffffffffffffffffffffffffffffffffffffffffffffffffffffff19168180602001905181019061078d9190611122565b145b925050509392505050565b5f805f7f7fffffffffffffffffffffffffffffff5d576e7357a4501ddfe92f46681b20a0845f1c11156107d6575f600385925092509250610877565b5f6001888888886040515f81526020016040526040516107f99493929190611168565b6020604051602081039080840390855afa158015610819573d5f803e3d5ffd5b5050506020604051035190505f73ffffffffffffffffffffffffffffffffffffffff168173ffffffffffffffffffffffffffffffffffffffff160361086a575f60015f801b93509350935050610877565b805f805f1b935093509350505b9450945094915050565b5f604051905090565b5f80fd5b5f80fd5b5f7fffffffff0000000000000000000000000000000000000000000000000000000082169050919050565b6108c681610892565b81146108d0575f80fd5b50565b5f813590506108e1816108bd565b92915050565b5f602082840312156108fc576108fb61088a565b5b5f610909848285016108d3565b91505092915050565b5f8115159050919050565b61092681610912565b82525050565b5f60208201905061093f5f83018461091d565b92915050565b5f819050919050565b61095781610945565b8114610961575f80fd5b50565b5f813590506109728161094e565b92915050565b5f80fd5b5f80fd5b5f601f19601f8301169050919050565b7f4e487b71000000000000000000000000000000000000000000000000000000005f52604160045260245ffd5b6109c682610980565b810181811067ffffffffffffffff821117156109e5576109e4610990565b5b80604052505050565b5f6109f7610881565b9050610a0382826109bd565b919050565b5f67ffffffffffffffff821115610a2257610a21610990565b5b610a2b82610980565b9050602081019050919050565b828183375f83830152505050565b5f610a58610a5384610a08565b6109ee565b905082815260208101848484011115610a7457610a7361097c565b5b610a7f848285610a38565b509392505050565b5f82601f830112610a9b57610a9a610978565b5b8135610aab848260208601610a46565b91505092915050565b5f8060408385031215610aca57610ac961088a565b5b5f610ad785828601610964565b925050602083013567ffffffffffffffff811115610af857610af761088e565b5b610b0485828601610a87565b9150509250929050565b610b1781610892565b82525050565b5f602082019050610b305f830184610b0e565b92915050565b5f73ffffffffffffffffffffffffffffffffffffffff82169050919050565b5f610b5f82610b36565b9050919050565b610b6f81610b55565b82525050565b5f602082019050610b885f830184610b66565b92915050565b610b9781610b55565b8114610ba1575f80fd5b50565b5f81359050610bb281610b8e565b92915050565b5f819050919050565b610bca81610bb8565b8114610bd4575f80fd5b50565b5f81359050610be581610bc1565b92915050565b5f80fd5b5f80fd5b5f8083601f840112610c0857610c07610978565b5b8235905067ffffffffffffffff811115610c2557610c24610beb565b5b602083019150836001820283011115610c4157610c40610bef565b5b9250929050565b5f805f8060608587031215610c6057610c5f61088a565b5b5f610c6d87828801610ba4565b9450506020610c7e87828801610bd7565b935050604085013567ffffffffffffffff811115610c9f57610c9e61088e565b5b610cab87828801610bf3565b925092505092959194509250565b5f81519050919050565b5f82825260208201905092915050565b5f5b83811015610cf0578082015181840152602081019050610cd5565b5f8484015250505050565b5f610d0582610cb9565b610d0f8185610cc3565b9350610d1f818560208601610cd3565b610d2881610980565b840191505092915050565b5f6020820190508181035f830152610d4b8184610cfb565b905092915050565b610d5c81610bb8565b82525050565b5f602082019050610d755f830184610d53565b92915050565b5f606082019050610d8e5f830186610d53565b610d9b6020830185610b66565b610da86040830184610d53565b949350505050565b5f81519050610dbe81610bc1565b92915050565b5f81519050610dd281610b8e565b92915050565b5f805f60608486031215610def57610dee61088a565b5b5f610dfc86828701610db0565b9350506020610e0d86828701610dc4565b9250506040610e1e86828701610db0565b9150509250925092565b5f60208284031215610e3d57610e3c61088a565b5b5f610e4a84828501610dc4565b91505092915050565b5f82825260208201905092915050565b7f4e6f7420746f6b656e206f776e657200000000000000000000000000000000005f82015250565b5f610e97600f83610e53565b9150610ea282610e63565b602082019050919050565b5f6020820190508181035f830152610ec481610e8b565b9050919050565b7f4e487b71000000000000000000000000000000000000000000000000000000005f52601160045260245ffd5b5f610f0282610bb8565b91507fffffffffffffffffffffffffffffffffffffffffffffffffffffffffffffffff8203610f3457610f33610ecb565b5b600182019050919050565b5f610f4a8385610cc3565b9350610f57838584610a38565b610f6083610980565b840190509392505050565b5f6020820190508181035f830152610f84818486610f3f565b90509392505050565b5f81905092915050565b5f610fa28385610f8d565b9350610faf838584610a38565b82840190509392505050565b5f610fc7828486610f97565b91508190509392505050565b7f4e487b71000000000000000000000000000000000000000000000000000000005f52602160045260245ffd5b5f61100a82610b36565b9050919050565b61101a81611000565b8114611024575f80fd5b50565b5f8151905061103581611011565b92915050565b5f805f606084860312156110525761105161088a565b5b5f61105f86828701610db0565b935050602061107086828701611027565b925050604061108186828701610db0565b9150509250925092565b61109481610945565b82525050565b5f6040820190506110ad5f83018561108b565b81810360208301526110bf8184610cfb565b90509392505050565b5f6110d282610cb9565b6110dc8185610f8d565b93506110ec818560208601610cd3565b80840191505092915050565b5f61110382846110c8565b915081905092915050565b5f8151905061111c8161094e565b92915050565b5f602082840312156111375761113661088a565b5b5f6111448482850161110e565b91505092915050565b5f60ff82169050919050565b6111628161114d565b82525050565b5f60808201905061117b5f83018761108b565b6111886020830186611159565b611195604083018561108b565b6111a2606083018461108b565b9594505050505056fea2646970667358221220181a9b498c6437f4253d2827f204bdf39cc5e32c4ba8debac09de8a74da0ad2a64736f6c63430008140033",
  "linkReferences": {},
  "deployedLinkReferences": {}
}