{
  "_format": "hh-sol-artifact-1",
  "contractName": "Withdraw",
  "sourceName": "contracts/crosschain/Withdraw.sol",
  "abi": [
    {
      "inputs": [
        {
          "internalType": "address",
          "name": "owner",
          "type": "address"
        },
        {
          "internalType": "address",
          "name": "target",
          "type": "address"
        },
        {
          "internalType": "uint256",
          "name": "value",
          "type": "uint256"
        }
      ],
      "name": "FailedToWithdrawEth",
      "type": "error"
    },
    {
      "anonymous": false,
      "inputs": [
        {
          "indexed": true,
          "internalType": "address",
          "name": "from",
          "type": "address"
        },
        {
          "indexed": true,
          "internalType": "address",
          "name": "to",
          "type": "address"
        }
      ],
      "name": "OwnershipTransferRequested",
      "type": "event"
    },
    {
      "anonymous": false,
      "inputs": [
        {
          "indexed": true,
          "internalType": "address",
          "name": "from",
          "type": "address"
        },
        {
          "indexed": true,
          "internalType": "address",
          "name": "to",
          "type": "address"
        }
      ],
      "name": "OwnershipTransferred",
      "type": "event"
    },
    {
      "inputs": [],
      "name": "acceptOwnership",
      "outputs": [],
      "stateMutability": "nonpayable",
      "type": "function"
    },
    {
      "inputs": [],
      "name": "owner",
      "outputs": [
        {
          "internalType": "address",
          "name": "",
          "type": "address"
        }
      ],
      "stateMutability": "view",
      "type": "function"
    },
    {
      "inputs": [
        {
          "internalType": "address",
          "name": "to",
          "type": "address"
        }
      ],
      "name": "transferOwnership",
      "outputs": [],
      "stateMutability": "nonpayable",
      "type": "function"
    },
    {
      "inputs": [
        {
          "internalType": "address",
          "name": "beneficiary",
          "type": "address"
        }
      ],
      "name": "withdraw",
      "outputs": [],
      "stateMutability": "nonpayable",
      "type": "function"
    },
    {
      "inputs": [
        {
          "internalType": "address",
          "name": "beneficiary",
          "type": "address"
        },
        {
          "internalType": "address",
          "name": "token",
          "type": "address"
        }
      ],
      "name": "withdrawToken",
      "outputs": [],
      "stateMutability": "nonpayable",
      "type": "function"
    }
  ],
  "bytecode": "0x608060405234801561000f575f80fd5b5033805f8073ffffffffffffffffffffffffffffffffffffffff168273ffffffffffffffffffffffffffffffffffffffff1603610081576040517f08c379a00000000000000000000000000000000000000000000000000000000081526004016100789061028f565b60405180910390fd5b815f806101000a81548173ffffffffffffffffffffffffffffffffffffffff021916908373ffffffffffffffffffffffffffffffffffffffff1602179055505f73ffffffffffffffffffffffffffffffffffffffff168173ffffffffffffffffffffffffffffffffffffffff1614610103576101028161010b60201b60201c565b5b505050610315565b3373ffffffffffffffffffffffffffffffffffffffff168173ffffffffffffffffffffffffffffffffffffffff1603610179576040517f08c379a0000000000000000000000000000000000000000000000000000000008152600401610170906102f7565b60405180910390fd5b8060015f6101000a81548173ffffffffffffffffffffffffffffffffffffffff021916908373ffffffffffffffffffffffffffffffffffffffff1602179055508073ffffffffffffffffffffffffffffffffffffffff165f8054906101000a900473ffffffffffffffffffffffffffffffffffffffff1673ffffffffffffffffffffffffffffffffffffffff167fed8889f560326eb138920d842192f0eb3dd22b4f139c87a2c57538e05bae127860405160405180910390a350565b5f82825260208201905092915050565b7f43616e6e6f7420736574206f776e657220746f207a65726f00000000000000005f82015250565b5f610279601883610235565b915061028482610245565b602082019050919050565b5f6020820190508181035f8301526102a68161026d565b9050919050565b7f43616e6e6f74207472616e7366657220746f2073656c660000000000000000005f82015250565b5f6102e1601783610235565b91506102ec826102ad565b602082019050919050565b5f6020820190508181035f83015261030e816102d5565b9050919050565b6109f2806103225f395ff3fe608060405234801561000f575f80fd5b5060043610610055575f3560e01c80633aeac4e11461005957806351cff8d91461007557806379ba5097146100915780638da5cb5b1461009b578063f2fde38b146100b9575b5f80fd5b610073600480360381019061006e9190610679565b6100d5565b005b61008f600480360381019061008a91906106b7565b6101d9565b005b610099610298565b005b6100a3610427565b6040516100b091906106f1565b60405180910390f35b6100d360048036038101906100ce91906106b7565b61044e565b005b6100dd610462565b5f8173ffffffffffffffffffffffffffffffffffffffff166370a08231306040518263ffffffff1660e01b815260040161011791906106f1565b602060405180830381865afa158015610132573d5f803e3d5ffd5b505050506040513d601f19601f82011682018060405250810190610156919061073d565b90508173ffffffffffffffffffffffffffffffffffffffff1663a9059cbb84836040518363ffffffff1660e01b8152600401610193929190610777565b6020604051808303815f875af11580156101af573d5f803e3d5ffd5b505050506040513d601f19601f820116820180604052508101906101d391906107d3565b50505050565b6101e1610462565b5f4790505f8273ffffffffffffffffffffffffffffffffffffffff168260405161020a9061082b565b5f6040518083038185875af1925050503d805f8114610244576040519150601f19603f3d011682016040523d82523d5f602084013e610249565b606091505b5050905080610293573383836040517f9d11f56300000000000000000000000000000000000000000000000000000000815260040161028a9392919061083f565b60405180910390fd5b505050565b60015f9054906101000a900473ffffffffffffffffffffffffffffffffffffffff1673ffffffffffffffffffffffffffffffffffffffff163373ffffffffffffffffffffffffffffffffffffffff1614610327576040517f08c379a000000000000000000000000000000000000000000000000000000000815260040161031e906108ce565b60405180910390fd5b5f805f9054906101000a900473ffffffffffffffffffffffffffffffffffffffff169050335f806101000a81548173ffffffffffffffffffffffffffffffffffffffff021916908373ffffffffffffffffffffffffffffffffffffffff1602179055505f60015f6101000a81548173ffffffffffffffffffffffffffffffffffffffff021916908373ffffffffffffffffffffffffffffffffffffffff1602179055503373ffffffffffffffffffffffffffffffffffffffff168173ffffffffffffffffffffffffffffffffffffffff167f8be0079c531659141344cd1fd0a4f28419497f9722a3daafe3b4186f6b6457e060405160405180910390a350565b5f805f9054906101000a900473ffffffffffffffffffffffffffffffffffffffff16905090565b610456610462565b61045f816104f1565b50565b5f8054906101000a900473ffffffffffffffffffffffffffffffffffffffff1673ffffffffffffffffffffffffffffffffffffffff163373ffffffffffffffffffffffffffffffffffffffff16146104ef576040517f08c379a00000000000000000000000000000000000000000000000000000000081526004016104e690610936565b60405180910390fd5b565b3373ffffffffffffffffffffffffffffffffffffffff168173ffffffffffffffffffffffffffffffffffffffff160361055f576040517f08c379a00000000000000000000000000000000000000000000000000000000081526004016105569061099e565b60405180910390fd5b8060015f6101000a81548173ffffffffffffffffffffffffffffffffffffffff021916908373ffffffffffffffffffffffffffffffffffffffff1602179055508073ffffffffffffffffffffffffffffffffffffffff165f8054906101000a900473ffffffffffffffffffffffffffffffffffffffff1673ffffffffffffffffffffffffffffffffffffffff167fed8889f560326eb138920d842192f0eb3dd22b4f139c87a2c57538e05bae127860405160405180910390a350565b5f80fd5b5f73ffffffffffffffffffffffffffffffffffffffff82169050919050565b5f6106488261061f565b9050919050565b6106588161063e565b8114610662575f80fd5b50565b5f813590506106738161064f565b92915050565b5f806040838503121561068f5761068e61061b565b5b5f61069c85828601610665565b92505060206106ad85828601610665565b9150509250929050565b5f602082840312156106cc576106cb61061b565b5b5f6106d984828501610665565b91505092915050565b6106eb8161063e565b82525050565b5f6020820190506107045f8301846106e2565b92915050565b5f819050919050565b61071c8161070a565b8114610726575f80fd5b50565b5f8151905061073781610713565b92915050565b5f602082840312156107525761075161061b565b5b5f61075f84828501610729565b91505092915050565b6107718161070a565b82525050565b5f60408201905061078a5f8301856106e2565b6107976020830184610768565b9392505050565b5f8115159050919050565b6107b28161079e565b81146107bc575f80fd5b50565b5f815190506107cd816107a9565b92915050565b5f602082840312156107e8576107e761061b565b5b5f6107f5848285016107bf565b91505092915050565b5f81905092915050565b50565b5f6108165f836107fe565b915061082182610808565b5f82019050919050565b5f6108358261080b565b9150819050919050565b5f6060820190506108525f8301866106e2565b61085f60208301856106e2565b61086c6040830184610768565b949350505050565b5f82825260208201905092915050565b7f4d7573742062652070726f706f736564206f776e6572000000000000000000005f82015250565b5f6108b8601683610874565b91506108c382610884565b602082019050919050565b5f6020820190508181035f8301526108e5816108ac565b9050919050565b7f4f6e6c792063616c6c61626c65206279206f776e6572000000000000000000005f82015250565b5f610920601683610874565b915061092b826108ec565b602082019050919050565b5f6020820190508181035f83015261094d81610914565b9050919050565b7f43616e6e6f74207472616e7366657220746f2073656c660000000000000000005f82015250565b5f610988601783610874565b915061099382610954565b602082019050919050565b5f6020820190508181035f8301526109b58161097c565b905091905056fea2646970667358221220b3cd35bebe4cd7d1918d7992bfe78fae234d381cf9a4b5eb96f251d1e8fa623464736f6c63430008140033",
  "linkReferences": {},
  "deployedLinkReferences": {}
}