{
  "_format": "hh-sol-artifact-1",
  "contractName": "TokenArray",
  "sourceName": "contracts/lib/TokenArray.sol",
  "abi": [
    {
      "inputs": [
        {
          "internalType": "address",
          "name": "",
          "type": "address"
        }
      ],
      "name": "dataFeedAddress",
      "outputs": [
        {
          "internalType": "address",
          "name": "",
          "type": "address"
        }
      ],
      "stateMutability": "view",
      "type": "function"
    },
    {
      "inputs": [],
      "name": "getAllToken",
      "outputs": [
        {
          "internalType": "address[]",
          "name": "",
          "type": "address[]"
        }
      ],
      "stateMutability": "view",
      "type": "function"
    },
    {
      "inputs": [
        {
          "internalType": "address",
          "name": "_token",
          "type": "address"
        }
      ],
      "name": "getChainlinkDataFeedLatestAnswer",
      "outputs": [
        {
          "internalType": "int256",
          "name": "",
          "type": "int256"
        }
      ],
      "stateMutability": "view",
      "type": "function"
    },
    {
      "inputs": [],
      "name": "getTokenArrayLength",
      "outputs": [
        {
          "internalType": "uint256",
          "name": "",
          "type": "uint256"
        }
      ],
      "stateMutability": "view",
      "type": "function"
    },
    {
      "inputs": [
        {
          "internalType": "uint256",
          "name": "index",
          "type": "uint256"
        }
      ],
      "name": "getTokenAtIndex",
      "outputs": [
        {
          "internalType": "address",
          "name": "",
          "type": "address"
        }
      ],
      "stateMutability": "view",
      "type": "function"
    },
    {
      "inputs": [
        {
          "internalType": "uint256",
          "name": "",
          "type": "uint256"
        }
      ],
      "name": "tokenArray",
      "outputs": [
        {
          "internalType": "address",
          "name": "",
          "type": "address"
        }
      ],
      "stateMutability": "view",
      "type": "function"
    }
  ],
  "bytecode": "0x608060405234801561000f575f80fd5b506107d88061001d5f395ff3fe608060405234801561000f575f80fd5b5060043610610060575f3560e01c806385e3c1d41461006457806397988dce14610082578063a8320b1b146100b2578063b15345ab146100e2578063e7078f9214610100578063faa32f5d14610130575b5f80fd5b61006c610160565b60405161007991906104b1565b60405180910390f35b61009c60048036038101906100979190610508565b6101eb565b6040516100a99190610542565b60405180910390f35b6100cc60048036038101906100c79190610585565b610276565b6040516100d99190610542565b60405180910390f35b6100ea6102a5565b6040516100f791906105bf565b60405180910390f35b61011a60048036038101906101159190610585565b6102b1565b60405161012791906105f0565b60405180910390f35b61014a60048036038101906101459190610508565b61038f565b6040516101579190610542565b60405180910390f35b606060018054806020026020016040519081016040528092919081815260200182805480156101e157602002820191905f5260205f20905b815f9054906101000a900473ffffffffffffffffffffffffffffffffffffffff1673ffffffffffffffffffffffffffffffffffffffff1681526020019060010190808311610198575b5050505050905090565b5f6001805490508210610233576040517f08c379a000000000000000000000000000000000000000000000000000000000815260040161022a90610663565b60405180910390fd5b6001828154811061024757610246610681565b5b905f5260205f20015f9054906101000a900473ffffffffffffffffffffffffffffffffffffffff169050919050565b5f602052805f5260405f205f915054906101000a900473ffffffffffffffffffffffffffffffffffffffff1681565b5f600180549050905090565b5f805f808473ffffffffffffffffffffffffffffffffffffffff1673ffffffffffffffffffffffffffffffffffffffff1681526020019081526020015f205f9054906101000a900473ffffffffffffffffffffffffffffffffffffffff1690505f8173ffffffffffffffffffffffffffffffffffffffff1663feaf968c6040518163ffffffff1660e01b815260040160a060405180830381865afa15801561035b573d5f803e3d5ffd5b505050506040513d601f19601f8201168201806040525081019061037f919061072b565b5050509150508092505050919050565b6001818154811061039e575f80fd5b905f5260205f20015f915054906101000a900473ffffffffffffffffffffffffffffffffffffffff1681565b5f81519050919050565b5f82825260208201905092915050565b5f819050602082019050919050565b5f73ffffffffffffffffffffffffffffffffffffffff82169050919050565b5f61041c826103f3565b9050919050565b61042c81610412565b82525050565b5f61043d8383610423565b60208301905092915050565b5f602082019050919050565b5f61045f826103ca565b61046981856103d4565b9350610474836103e4565b805f5b838110156104a457815161048b8882610432565b975061049683610449565b925050600181019050610477565b5085935050505092915050565b5f6020820190508181035f8301526104c98184610455565b905092915050565b5f80fd5b5f819050919050565b6104e7816104d5565b81146104f1575f80fd5b50565b5f81359050610502816104de565b92915050565b5f6020828403121561051d5761051c6104d1565b5b5f61052a848285016104f4565b91505092915050565b61053c81610412565b82525050565b5f6020820190506105555f830184610533565b92915050565b61056481610412565b811461056e575f80fd5b50565b5f8135905061057f8161055b565b92915050565b5f6020828403121561059a576105996104d1565b5b5f6105a784828501610571565b91505092915050565b6105b9816104d5565b82525050565b5f6020820190506105d25f8301846105b0565b92915050565b5f819050919050565b6105ea816105d8565b82525050565b5f6020820190506106035f8301846105e1565b92915050565b5f82825260208201905092915050565b7f496e646578206f7574206f6620626f756e6473000000000000000000000000005f82015250565b5f61064d601383610609565b915061065882610619565b602082019050919050565b5f6020820190508181035f83015261067a81610641565b9050919050565b7f4e487b71000000000000000000000000000000000000000000000000000000005f52603260045260245ffd5b5f69ffffffffffffffffffff82169050919050565b6106cc816106ae565b81146106d6575f80fd5b50565b5f815190506106e7816106c3565b92915050565b6106f6816105d8565b8114610700575f80fd5b50565b5f81519050610711816106ed565b92915050565b5f81519050610725816104de565b92915050565b5f805f805f60a08688031215610744576107436104d1565b5b5f610751888289016106d9565b955050602061076288828901610703565b945050604061077388828901610717565b935050606061078488828901610717565b9250506080610795888289016106d9565b915050929550929590935056fea2646970667358221220b47bf3a1922734b519181fde70fe9ad93b8474b0aa0d55c32b0478f2c2860be664736f6c63430008140033",
  "linkReferences": {},
  "deployedLinkReferences": {}
}