{
  "_format": "hh-sol-artifact-1",
  "contractName": "TokenArray",
  "sourceName": "contracts/lib/TokenArray.sol",
  "abi": [
    {
      "inputs": [
        {
          "internalType": "address",
          "name": "_token",
          "type": "address"
        }
      ],
      "name": "addToken",
      "outputs": [],
      "stateMutability": "nonpayable",
      "type": "function"
    },
    {
      "inputs": [],
      "name": "getAllToken",
      "outputs": [
        {
          "internalType": "address[]",
          "name": "",
          "type": "address[]"
        }
      ],
      "stateMutability": "view",
      "type": "function"
    },
    {
      "inputs": [],
      "name": "getTokenArrayLength",
      "outputs": [
        {
          "internalType": "uint256",
          "name": "",
          "type": "uint256"
        }
      ],
      "stateMutability": "view",
      "type": "function"
    },
    {
      "inputs": [
        {
          "internalType": "uint256",
          "name": "index",
          "type": "uint256"
        }
      ],
      "name": "getTokenAtIndex",
      "outputs": [
        {
          "internalType": "address",
          "name": "",
          "type": "address"
        }
      ],
      "stateMutability": "view",
      "type": "function"
    },
    {
      "inputs": [
        {
          "internalType": "address",
          "name": "_token",
          "type": "address"
        }
      ],
      "name": "removeAddress",
      "outputs": [],
      "stateMutability": "nonpayable",
      "type": "function"
    },
    {
      "inputs": [
        {
          "internalType": "uint256",
          "name": "",
          "type": "uint256"
        }
      ],
      "name": "tokenArray",
      "outputs": [
        {
          "internalType": "address",
          "name": "",
          "type": "address"
        }
      ],
      "stateMutability": "view",
      "type": "function"
    }
  ],
  "bytecode": "0x608060405234801561000f575f80fd5b5061082c8061001d5f395ff3fe608060405234801561000f575f80fd5b5060043610610060575f3560e01c80634ba79dfe1461006457806385e3c1d41461008057806397988dce1461009e578063b15345ab146100ce578063d48bfca7146100ec578063faa32f5d14610108575b5f80fd5b61007e600480360381019061007991906104cd565b610138565b005b6100886102b5565b60405161009591906105af565b60405180910390f35b6100b860048036038101906100b39190610602565b61033f565b6040516100c5919061063c565b60405180910390f35b6100d66103c8565b6040516100e39190610664565b60405180910390f35b610106600480360381019061010191906104cd565b6103d3565b005b610122600480360381019061011d9190610602565b610435565b60405161012f919061063c565b60405180910390f35b5f5b5f805490508110156102b1578173ffffffffffffffffffffffffffffffffffffffff165f82815481106101705761016f61067d565b5b905f5260205f20015f9054906101000a900473ffffffffffffffffffffffffffffffffffffffff1673ffffffffffffffffffffffffffffffffffffffff160361029e575f60015f805490506101c591906106d7565b815481106101d6576101d561067d565b5b905f5260205f20015f9054906101000a900473ffffffffffffffffffffffffffffffffffffffff165f82815481106102115761021061067d565b5b905f5260205f20015f6101000a81548173ffffffffffffffffffffffffffffffffffffffff021916908373ffffffffffffffffffffffffffffffffffffffff1602179055505f8054806102675761026661070a565b5b600190038181905f5260205f20015f6101000a81549073ffffffffffffffffffffffffffffffffffffffff021916905590556102b1565b80806102a990610737565b91505061013a565b5050565b60605f80548060200260200160405190810160405280929190818152602001828054801561033557602002820191905f5260205f20905b815f9054906101000a900473ffffffffffffffffffffffffffffffffffffffff1673ffffffffffffffffffffffffffffffffffffffff16815260200190600101908083116102ec575b5050505050905090565b5f80805490508210610386576040517f08c379a000000000000000000000000000000000000000000000000000000000815260040161037d906107d8565b60405180910390fd5b5f82815481106103995761039861067d565b5b905f5260205f20015f9054906101000a900473ffffffffffffffffffffffffffffffffffffffff169050919050565b5f8080549050905090565b5f81908060018154018082558091505060019003905f5260205f20015f9091909190916101000a81548173ffffffffffffffffffffffffffffffffffffffff021916908373ffffffffffffffffffffffffffffffffffffffff16021790555050565b5f8181548110610443575f80fd5b905f5260205f20015f915054906101000a900473ffffffffffffffffffffffffffffffffffffffff1681565b5f80fd5b5f73ffffffffffffffffffffffffffffffffffffffff82169050919050565b5f61049c82610473565b9050919050565b6104ac81610492565b81146104b6575f80fd5b50565b5f813590506104c7816104a3565b92915050565b5f602082840312156104e2576104e161046f565b5b5f6104ef848285016104b9565b91505092915050565b5f81519050919050565b5f82825260208201905092915050565b5f819050602082019050919050565b61052a81610492565b82525050565b5f61053b8383610521565b60208301905092915050565b5f602082019050919050565b5f61055d826104f8565b6105678185610502565b935061057283610512565b805f5b838110156105a25781516105898882610530565b975061059483610547565b925050600181019050610575565b5085935050505092915050565b5f6020820190508181035f8301526105c78184610553565b905092915050565b5f819050919050565b6105e1816105cf565b81146105eb575f80fd5b50565b5f813590506105fc816105d8565b92915050565b5f602082840312156106175761061661046f565b5b5f610624848285016105ee565b91505092915050565b61063681610492565b82525050565b5f60208201905061064f5f83018461062d565b92915050565b61065e816105cf565b82525050565b5f6020820190506106775f830184610655565b92915050565b7f4e487b71000000000000000000000000000000000000000000000000000000005f52603260045260245ffd5b7f4e487b71000000000000000000000000000000000000000000000000000000005f52601160045260245ffd5b5f6106e1826105cf565b91506106ec836105cf565b9250828203905081811115610704576107036106aa565b5b92915050565b7f4e487b71000000000000000000000000000000000000000000000000000000005f52603160045260245ffd5b5f610741826105cf565b91507fffffffffffffffffffffffffffffffffffffffffffffffffffffffffffffffff8203610773576107726106aa565b5b600182019050919050565b5f82825260208201905092915050565b7f496e646578206f7574206f6620626f756e6473000000000000000000000000005f82015250565b5f6107c260138361077e565b91506107cd8261078e565b602082019050919050565b5f6020820190508181035f8301526107ef816107b6565b905091905056fea26469706673582212205f939954c43aed17e061412849d84277490a64bbaf1c0927e1a76ae55188376564736f6c63430008140033",
  "linkReferences": {},
  "deployedLinkReferences": {}
}