{
  "_format": "hh-sol-artifact-1",
  "contractName": "CCIPConfig",
  "sourceName": "contracts/crosschain/CCIPConfig.sol",
  "abi": [
    {
      "inputs": [
        {
          "internalType": "address",
          "name": "owner",
          "type": "address"
        },
        {
          "internalType": "address",
          "name": "target",
          "type": "address"
        },
        {
          "internalType": "uint256",
          "name": "value",
          "type": "uint256"
        }
      ],
      "name": "FailedToWithdrawEth",
      "type": "error"
    },
    {
      "anonymous": false,
      "inputs": [
        {
          "indexed": true,
          "internalType": "address",
          "name": "from",
          "type": "address"
        },
        {
          "indexed": true,
          "internalType": "address",
          "name": "to",
          "type": "address"
        }
      ],
      "name": "OwnershipTransferRequested",
      "type": "event"
    },
    {
      "anonymous": false,
      "inputs": [
        {
          "indexed": true,
          "internalType": "address",
          "name": "from",
          "type": "address"
        },
        {
          "indexed": true,
          "internalType": "address",
          "name": "to",
          "type": "address"
        }
      ],
      "name": "OwnershipTransferred",
      "type": "event"
    },
    {
      "inputs": [],
      "name": "CCIPRouteAddress",
      "outputs": [
        {
          "internalType": "address",
          "name": "",
          "type": "address"
        }
      ],
      "stateMutability": "view",
      "type": "function"
    },
    {
      "inputs": [
        {
          "internalType": "uint256",
          "name": "",
          "type": "uint256"
        }
      ],
      "name": "ERC6551AccountAddress",
      "outputs": [
        {
          "internalType": "address",
          "name": "",
          "type": "address"
        }
      ],
      "stateMutability": "view",
      "type": "function"
    },
    {
      "inputs": [
        {
          "internalType": "uint256",
          "name": "",
          "type": "uint256"
        }
      ],
      "name": "ERC6551RegistryAddress",
      "outputs": [
        {
          "internalType": "address",
          "name": "",
          "type": "address"
        }
      ],
      "stateMutability": "view",
      "type": "function"
    },
    {
      "inputs": [],
      "name": "acceptOwnership",
      "outputs": [],
      "stateMutability": "nonpayable",
      "type": "function"
    },
    {
      "inputs": [
        {
          "internalType": "uint256",
          "name": "_chain",
          "type": "uint256"
        },
        {
          "internalType": "address",
          "name": "_ERC6551Registry",
          "type": "address"
        },
        {
          "internalType": "address",
          "name": "_ERC6551Account",
          "type": "address"
        },
        {
          "internalType": "uint64",
          "name": "_destinationChainSelector",
          "type": "uint64"
        }
      ],
      "name": "addCCIPAddress",
      "outputs": [],
      "stateMutability": "nonpayable",
      "type": "function"
    },
    {
      "inputs": [
        {
          "internalType": "uint256",
          "name": "",
          "type": "uint256"
        }
      ],
      "name": "destinationChainSelector",
      "outputs": [
        {
          "internalType": "uint64",
          "name": "",
          "type": "uint64"
        }
      ],
      "stateMutability": "view",
      "type": "function"
    },
    {
      "inputs": [],
      "name": "owner",
      "outputs": [
        {
          "internalType": "address",
          "name": "",
          "type": "address"
        }
      ],
      "stateMutability": "view",
      "type": "function"
    },
    {
      "inputs": [
        {
          "internalType": "address",
          "name": "to",
          "type": "address"
        }
      ],
      "name": "transferOwnership",
      "outputs": [],
      "stateMutability": "nonpayable",
      "type": "function"
    },
    {
      "inputs": [
        {
          "internalType": "address",
          "name": "beneficiary",
          "type": "address"
        }
      ],
      "name": "withdraw",
      "outputs": [],
      "stateMutability": "nonpayable",
      "type": "function"
    },
    {
      "inputs": [
        {
          "internalType": "address",
          "name": "beneficiary",
          "type": "address"
        },
        {
          "internalType": "address",
          "name": "token",
          "type": "address"
        }
      ],
      "name": "withdrawToken",
      "outputs": [],
      "stateMutability": "nonpayable",
      "type": "function"
    }
  ],
  "bytecode": "0x608060405234801562000010575f80fd5b5033805f8073ffffffffffffffffffffffffffffffffffffffff168273ffffffffffffffffffffffffffffffffffffffff160362000085576040517f08c379a00000000000000000000000000000000000000000000000000000000081526004016200007c906200029e565b60405180910390fd5b815f806101000a81548173ffffffffffffffffffffffffffffffffffffffff021916908373ffffffffffffffffffffffffffffffffffffffff1602179055505f73ffffffffffffffffffffffffffffffffffffffff168173ffffffffffffffffffffffffffffffffffffffff16146200010a5762000109816200011360201b60201c565b5b5050506200032c565b3373ffffffffffffffffffffffffffffffffffffffff168173ffffffffffffffffffffffffffffffffffffffff160362000184576040517f08c379a00000000000000000000000000000000000000000000000000000000081526004016200017b906200030c565b60405180910390fd5b8060015f6101000a81548173ffffffffffffffffffffffffffffffffffffffff021916908373ffffffffffffffffffffffffffffffffffffffff1602179055508073ffffffffffffffffffffffffffffffffffffffff165f8054906101000a900473ffffffffffffffffffffffffffffffffffffffff1673ffffffffffffffffffffffffffffffffffffffff167fed8889f560326eb138920d842192f0eb3dd22b4f139c87a2c57538e05bae127860405160405180910390a350565b5f82825260208201905092915050565b7f43616e6e6f7420736574206f776e657220746f207a65726f00000000000000005f82015250565b5f6200028660188362000240565b9150620002938262000250565b602082019050919050565b5f6020820190508181035f830152620002b78162000278565b9050919050565b7f43616e6e6f74207472616e7366657220746f2073656c660000000000000000005f82015250565b5f620002f460178362000240565b91506200030182620002be565b602082019050919050565b5f6020820190508181035f8301526200032581620002e6565b9050919050565b610d97806200033a5f395ff3fe608060405234801561000f575f80fd5b506004361061009c575f3560e01c80638da5cb5b116100645780638da5cb5b1461012e578063b713d2831461014c578063c9ad49eb1461017c578063e0ddbf211461019a578063f2fde38b146101ca5761009c565b806314b6e9c0146100a05780633aeac4e1146100d057806351cff8d9146100ec5780635d6107231461010857806379ba509714610124575b5f80fd5b6100ba60048036038101906100b591906108ef565b6101e6565b6040516100c79190610959565b60405180910390f35b6100ea60048036038101906100e5919061099c565b610216565b005b610106600480360381019061010191906109da565b61031a565b005b610122600480360381019061011d9190610a42565b6103d9565b005b61012c6104bc565b005b61013661064b565b6040516101439190610959565b60405180910390f35b610166600480360381019061016191906108ef565b610672565b6040516101739190610959565b60405180910390f35b6101846106a2565b6040516101919190610959565b60405180910390f35b6101b460048036038101906101af91906108ef565b6106c7565b6040516101c19190610ab5565b60405180910390f35b6101e460048036038101906101df91906109da565b6106eb565b005b6002602052805f5260405f205f915054906101000a900473ffffffffffffffffffffffffffffffffffffffff1681565b61021e6106ff565b5f8173ffffffffffffffffffffffffffffffffffffffff166370a08231306040518263ffffffff1660e01b81526004016102589190610959565b602060405180830381865afa158015610273573d5f803e3d5ffd5b505050506040513d601f19601f820116820180604052508101906102979190610ae2565b90508173ffffffffffffffffffffffffffffffffffffffff1663a9059cbb84836040518363ffffffff1660e01b81526004016102d4929190610b1c565b6020604051808303815f875af11580156102f0573d5f803e3d5ffd5b505050506040513d601f19601f820116820180604052508101906103149190610b78565b50505050565b6103226106ff565b5f4790505f8273ffffffffffffffffffffffffffffffffffffffff168260405161034b90610bd0565b5f6040518083038185875af1925050503d805f8114610385576040519150601f19603f3d011682016040523d82523d5f602084013e61038a565b606091505b50509050806103d4573383836040517f9d11f5630000000000000000000000000000000000000000000000000000000081526004016103cb93929190610be4565b60405180910390fd5b505050565b6103e16106ff565b8260025f8681526020019081526020015f205f6101000a81548173ffffffffffffffffffffffffffffffffffffffff021916908373ffffffffffffffffffffffffffffffffffffffff1602179055508160035f8681526020019081526020015f205f6101000a81548173ffffffffffffffffffffffffffffffffffffffff021916908373ffffffffffffffffffffffffffffffffffffffff1602179055508060055f8681526020019081526020015f205f6101000a81548167ffffffffffffffff021916908367ffffffffffffffff16021790555050505050565b60015f9054906101000a900473ffffffffffffffffffffffffffffffffffffffff1673ffffffffffffffffffffffffffffffffffffffff163373ffffffffffffffffffffffffffffffffffffffff161461054b576040517f08c379a000000000000000000000000000000000000000000000000000000000815260040161054290610c73565b60405180910390fd5b5f805f9054906101000a900473ffffffffffffffffffffffffffffffffffffffff169050335f806101000a81548173ffffffffffffffffffffffffffffffffffffffff021916908373ffffffffffffffffffffffffffffffffffffffff1602179055505f60015f6101000a81548173ffffffffffffffffffffffffffffffffffffffff021916908373ffffffffffffffffffffffffffffffffffffffff1602179055503373ffffffffffffffffffffffffffffffffffffffff168173ffffffffffffffffffffffffffffffffffffffff167f8be0079c531659141344cd1fd0a4f28419497f9722a3daafe3b4186f6b6457e060405160405180910390a350565b5f805f9054906101000a900473ffffffffffffffffffffffffffffffffffffffff16905090565b6003602052805f5260405f205f915054906101000a900473ffffffffffffffffffffffffffffffffffffffff1681565b60045f9054906101000a900473ffffffffffffffffffffffffffffffffffffffff1681565b6005602052805f5260405f205f915054906101000a900467ffffffffffffffff1681565b6106f36106ff565b6106fc8161078e565b50565b5f8054906101000a900473ffffffffffffffffffffffffffffffffffffffff1673ffffffffffffffffffffffffffffffffffffffff163373ffffffffffffffffffffffffffffffffffffffff161461078c576040517f08c379a000000000000000000000000000000000000000000000000000000000815260040161078390610cdb565b60405180910390fd5b565b3373ffffffffffffffffffffffffffffffffffffffff168173ffffffffffffffffffffffffffffffffffffffff16036107fc576040517f08c379a00000000000000000000000000000000000000000000000000000000081526004016107f390610d43565b60405180910390fd5b8060015f6101000a81548173ffffffffffffffffffffffffffffffffffffffff021916908373ffffffffffffffffffffffffffffffffffffffff1602179055508073ffffffffffffffffffffffffffffffffffffffff165f8054906101000a900473ffffffffffffffffffffffffffffffffffffffff1673ffffffffffffffffffffffffffffffffffffffff167fed8889f560326eb138920d842192f0eb3dd22b4f139c87a2c57538e05bae127860405160405180910390a350565b5f80fd5b5f819050919050565b6108ce816108bc565b81146108d8575f80fd5b50565b5f813590506108e9816108c5565b92915050565b5f60208284031215610904576109036108b8565b5b5f610911848285016108db565b91505092915050565b5f73ffffffffffffffffffffffffffffffffffffffff82169050919050565b5f6109438261091a565b9050919050565b61095381610939565b82525050565b5f60208201905061096c5f83018461094a565b92915050565b61097b81610939565b8114610985575f80fd5b50565b5f8135905061099681610972565b92915050565b5f80604083850312156109b2576109b16108b8565b5b5f6109bf85828601610988565b92505060206109d085828601610988565b9150509250929050565b5f602082840312156109ef576109ee6108b8565b5b5f6109fc84828501610988565b91505092915050565b5f67ffffffffffffffff82169050919050565b610a2181610a05565b8114610a2b575f80fd5b50565b5f81359050610a3c81610a18565b92915050565b5f805f8060808587031215610a5a57610a596108b8565b5b5f610a67878288016108db565b9450506020610a7887828801610988565b9350506040610a8987828801610988565b9250506060610a9a87828801610a2e565b91505092959194509250565b610aaf81610a05565b82525050565b5f602082019050610ac85f830184610aa6565b92915050565b5f81519050610adc816108c5565b92915050565b5f60208284031215610af757610af66108b8565b5b5f610b0484828501610ace565b91505092915050565b610b16816108bc565b82525050565b5f604082019050610b2f5f83018561094a565b610b3c6020830184610b0d565b9392505050565b5f8115159050919050565b610b5781610b43565b8114610b61575f80fd5b50565b5f81519050610b7281610b4e565b92915050565b5f60208284031215610b8d57610b8c6108b8565b5b5f610b9a84828501610b64565b91505092915050565b5f81905092915050565b50565b5f610bbb5f83610ba3565b9150610bc682610bad565b5f82019050919050565b5f610bda82610bb0565b9150819050919050565b5f606082019050610bf75f83018661094a565b610c04602083018561094a565b610c116040830184610b0d565b949350505050565b5f82825260208201905092915050565b7f4d7573742062652070726f706f736564206f776e6572000000000000000000005f82015250565b5f610c5d601683610c19565b9150610c6882610c29565b602082019050919050565b5f6020820190508181035f830152610c8a81610c51565b9050919050565b7f4f6e6c792063616c6c61626c65206279206f776e6572000000000000000000005f82015250565b5f610cc5601683610c19565b9150610cd082610c91565b602082019050919050565b5f6020820190508181035f830152610cf281610cb9565b9050919050565b7f43616e6e6f74207472616e7366657220746f2073656c660000000000000000005f82015250565b5f610d2d601783610c19565b9150610d3882610cf9565b602082019050919050565b5f6020820190508181035f830152610d5a81610d21565b905091905056fea264697066735822122097ff3df72f68419e5e6a44bb3a05b95d9c84296814aa734b2f0d9c3e2da8a8ad64736f6c63430008140033",
  "linkReferences": {},
  "deployedLinkReferences": {}
}