{
  "_format": "hh-sol-artifact-1",
  "contractName": "CCIPConfig",
  "sourceName": "contracts/crosschain/CCIPConfig.sol",
  "abi": [
    {
      "inputs": [
        {
          "internalType": "address",
          "name": "owner",
          "type": "address"
        },
        {
          "internalType": "address",
          "name": "target",
          "type": "address"
        },
        {
          "internalType": "uint256",
          "name": "value",
          "type": "uint256"
        }
      ],
      "name": "FailedToWithdrawEth",
      "type": "error"
    },
    {
      "anonymous": false,
      "inputs": [
        {
          "indexed": true,
          "internalType": "address",
          "name": "from",
          "type": "address"
        },
        {
          "indexed": true,
          "internalType": "address",
          "name": "to",
          "type": "address"
        }
      ],
      "name": "OwnershipTransferRequested",
      "type": "event"
    },
    {
      "anonymous": false,
      "inputs": [
        {
          "indexed": true,
          "internalType": "address",
          "name": "from",
          "type": "address"
        },
        {
          "indexed": true,
          "internalType": "address",
          "name": "to",
          "type": "address"
        }
      ],
      "name": "OwnershipTransferred",
      "type": "event"
    },
    {
      "inputs": [
        {
          "internalType": "uint256",
          "name": "",
          "type": "uint256"
        }
      ],
      "name": "CCIPRouteAddress",
      "outputs": [
        {
          "internalType": "address",
          "name": "",
          "type": "address"
        }
      ],
      "stateMutability": "view",
      "type": "function"
    },
    {
      "inputs": [
        {
          "internalType": "uint256",
          "name": "",
          "type": "uint256"
        }
      ],
      "name": "ERC6551AccountAddress",
      "outputs": [
        {
          "internalType": "address",
          "name": "",
          "type": "address"
        }
      ],
      "stateMutability": "view",
      "type": "function"
    },
    {
      "inputs": [
        {
          "internalType": "uint256",
          "name": "",
          "type": "uint256"
        }
      ],
      "name": "ERC6551RegistryAddress",
      "outputs": [
        {
          "internalType": "address",
          "name": "",
          "type": "address"
        }
      ],
      "stateMutability": "view",
      "type": "function"
    },
    {
      "inputs": [],
      "name": "acceptOwnership",
      "outputs": [],
      "stateMutability": "nonpayable",
      "type": "function"
    },
    {
      "inputs": [
        {
          "internalType": "uint256",
          "name": "_chain",
          "type": "uint256"
        },
        {
          "internalType": "address",
          "name": "_ERC6551Registry",
          "type": "address"
        },
        {
          "internalType": "address",
          "name": "_ERC6551Account",
          "type": "address"
        }
      ],
      "name": "addCCIPAddress",
      "outputs": [],
      "stateMutability": "nonpayable",
      "type": "function"
    },
    {
      "inputs": [
        {
          "internalType": "uint256",
          "name": "_chain",
          "type": "uint256"
        },
        {
          "internalType": "address",
          "name": "_route",
          "type": "address"
        }
      ],
      "name": "addCCIPRouteAddress",
      "outputs": [],
      "stateMutability": "nonpayable",
      "type": "function"
    },
    {
      "inputs": [],
      "name": "owner",
      "outputs": [
        {
          "internalType": "address",
          "name": "",
          "type": "address"
        }
      ],
      "stateMutability": "view",
      "type": "function"
    },
    {
      "inputs": [
        {
          "internalType": "address",
          "name": "to",
          "type": "address"
        }
      ],
      "name": "transferOwnership",
      "outputs": [],
      "stateMutability": "nonpayable",
      "type": "function"
    },
    {
      "inputs": [
        {
          "internalType": "address",
          "name": "beneficiary",
          "type": "address"
        }
      ],
      "name": "withdraw",
      "outputs": [],
      "stateMutability": "nonpayable",
      "type": "function"
    },
    {
      "inputs": [
        {
          "internalType": "address",
          "name": "beneficiary",
          "type": "address"
        },
        {
          "internalType": "address",
          "name": "token",
          "type": "address"
        }
      ],
      "name": "withdrawToken",
      "outputs": [],
      "stateMutability": "nonpayable",
      "type": "function"
    }
  ],
  "bytecode": "0x608060405234801562000010575f80fd5b5033805f8073ffffffffffffffffffffffffffffffffffffffff168273ffffffffffffffffffffffffffffffffffffffff160362000085576040517f08c379a00000000000000000000000000000000000000000000000000000000081526004016200007c906200029e565b60405180910390fd5b815f806101000a81548173ffffffffffffffffffffffffffffffffffffffff021916908373ffffffffffffffffffffffffffffffffffffffff1602179055505f73ffffffffffffffffffffffffffffffffffffffff168173ffffffffffffffffffffffffffffffffffffffff16146200010a5762000109816200011360201b60201c565b5b5050506200032c565b3373ffffffffffffffffffffffffffffffffffffffff168173ffffffffffffffffffffffffffffffffffffffff160362000184576040517f08c379a00000000000000000000000000000000000000000000000000000000081526004016200017b906200030c565b60405180910390fd5b8060015f6101000a81548173ffffffffffffffffffffffffffffffffffffffff021916908373ffffffffffffffffffffffffffffffffffffffff1602179055508073ffffffffffffffffffffffffffffffffffffffff165f8054906101000a900473ffffffffffffffffffffffffffffffffffffffff1673ffffffffffffffffffffffffffffffffffffffff167fed8889f560326eb138920d842192f0eb3dd22b4f139c87a2c57538e05bae127860405160405180910390a350565b5f82825260208201905092915050565b7f43616e6e6f7420736574206f776e657220746f207a65726f00000000000000005f82015250565b5f6200028660188362000240565b9150620002938262000250565b602082019050919050565b5f6020820190508181035f830152620002b78162000278565b9050919050565b7f43616e6e6f74207472616e7366657220746f2073656c660000000000000000005f82015250565b5f620002f460178362000240565b91506200030182620002be565b602082019050919050565b5f6020820190508181035f8301526200032581620002e6565b9050919050565b610d64806200033a5f395ff3fe608060405234801561000f575f80fd5b506004361061009c575f3560e01c806379ba50971161006457806379ba5097146101545780638da5cb5b1461015e578063b713d2831461017c578063cb885397146101ac578063f2fde38b146101c85761009c565b806301be94d4146100a057806314b6e9c0146100d05780632ff06af9146101005780633aeac4e11461011c57806351cff8d914610138575b5f80fd5b6100ba60048036038101906100b591906108f7565b6101e4565b6040516100c79190610961565b60405180910390f35b6100ea60048036038101906100e591906108f7565b610214565b6040516100f79190610961565b60405180910390f35b61011a600480360381019061011591906109a4565b610244565b005b610136600480360381019061013191906109f4565b6102ef565b005b610152600480360381019061014d9190610a32565b6103f3565b005b61015c6104b2565b005b610166610641565b6040516101739190610961565b60405180910390f35b610196600480360381019061019191906108f7565b610668565b6040516101a39190610961565b60405180910390f35b6101c660048036038101906101c19190610a5d565b610698565b005b6101e260048036038101906101dd9190610a32565b6106f3565b005b6004602052805f5260405f205f915054906101000a900473ffffffffffffffffffffffffffffffffffffffff1681565b6002602052805f5260405f205f915054906101000a900473ffffffffffffffffffffffffffffffffffffffff1681565b61024c610707565b8160025f8581526020019081526020015f205f6101000a81548173ffffffffffffffffffffffffffffffffffffffff021916908373ffffffffffffffffffffffffffffffffffffffff1602179055508060035f8581526020019081526020015f205f6101000a81548173ffffffffffffffffffffffffffffffffffffffff021916908373ffffffffffffffffffffffffffffffffffffffff160217905550505050565b6102f7610707565b5f8173ffffffffffffffffffffffffffffffffffffffff166370a08231306040518263ffffffff1660e01b81526004016103319190610961565b602060405180830381865afa15801561034c573d5f803e3d5ffd5b505050506040513d601f19601f820116820180604052508101906103709190610aaf565b90508173ffffffffffffffffffffffffffffffffffffffff1663a9059cbb84836040518363ffffffff1660e01b81526004016103ad929190610ae9565b6020604051808303815f875af11580156103c9573d5f803e3d5ffd5b505050506040513d601f19601f820116820180604052508101906103ed9190610b45565b50505050565b6103fb610707565b5f4790505f8273ffffffffffffffffffffffffffffffffffffffff168260405161042490610b9d565b5f6040518083038185875af1925050503d805f811461045e576040519150601f19603f3d011682016040523d82523d5f602084013e610463565b606091505b50509050806104ad573383836040517f9d11f5630000000000000000000000000000000000000000000000000000000081526004016104a493929190610bb1565b60405180910390fd5b505050565b60015f9054906101000a900473ffffffffffffffffffffffffffffffffffffffff1673ffffffffffffffffffffffffffffffffffffffff163373ffffffffffffffffffffffffffffffffffffffff1614610541576040517f08c379a000000000000000000000000000000000000000000000000000000000815260040161053890610c40565b60405180910390fd5b5f805f9054906101000a900473ffffffffffffffffffffffffffffffffffffffff169050335f806101000a81548173ffffffffffffffffffffffffffffffffffffffff021916908373ffffffffffffffffffffffffffffffffffffffff1602179055505f60015f6101000a81548173ffffffffffffffffffffffffffffffffffffffff021916908373ffffffffffffffffffffffffffffffffffffffff1602179055503373ffffffffffffffffffffffffffffffffffffffff168173ffffffffffffffffffffffffffffffffffffffff167f8be0079c531659141344cd1fd0a4f28419497f9722a3daafe3b4186f6b6457e060405160405180910390a350565b5f805f9054906101000a900473ffffffffffffffffffffffffffffffffffffffff16905090565b6003602052805f5260405f205f915054906101000a900473ffffffffffffffffffffffffffffffffffffffff1681565b6106a0610707565b8060045f8481526020019081526020015f205f6101000a81548173ffffffffffffffffffffffffffffffffffffffff021916908373ffffffffffffffffffffffffffffffffffffffff1602179055505050565b6106fb610707565b61070481610796565b50565b5f8054906101000a900473ffffffffffffffffffffffffffffffffffffffff1673ffffffffffffffffffffffffffffffffffffffff163373ffffffffffffffffffffffffffffffffffffffff1614610794576040517f08c379a000000000000000000000000000000000000000000000000000000000815260040161078b90610ca8565b60405180910390fd5b565b3373ffffffffffffffffffffffffffffffffffffffff168173ffffffffffffffffffffffffffffffffffffffff1603610804576040517f08c379a00000000000000000000000000000000000000000000000000000000081526004016107fb90610d10565b60405180910390fd5b8060015f6101000a81548173ffffffffffffffffffffffffffffffffffffffff021916908373ffffffffffffffffffffffffffffffffffffffff1602179055508073ffffffffffffffffffffffffffffffffffffffff165f8054906101000a900473ffffffffffffffffffffffffffffffffffffffff1673ffffffffffffffffffffffffffffffffffffffff167fed8889f560326eb138920d842192f0eb3dd22b4f139c87a2c57538e05bae127860405160405180910390a350565b5f80fd5b5f819050919050565b6108d6816108c4565b81146108e0575f80fd5b50565b5f813590506108f1816108cd565b92915050565b5f6020828403121561090c5761090b6108c0565b5b5f610919848285016108e3565b91505092915050565b5f73ffffffffffffffffffffffffffffffffffffffff82169050919050565b5f61094b82610922565b9050919050565b61095b81610941565b82525050565b5f6020820190506109745f830184610952565b92915050565b61098381610941565b811461098d575f80fd5b50565b5f8135905061099e8161097a565b92915050565b5f805f606084860312156109bb576109ba6108c0565b5b5f6109c8868287016108e3565b93505060206109d986828701610990565b92505060406109ea86828701610990565b9150509250925092565b5f8060408385031215610a0a57610a096108c0565b5b5f610a1785828601610990565b9250506020610a2885828601610990565b9150509250929050565b5f60208284031215610a4757610a466108c0565b5b5f610a5484828501610990565b91505092915050565b5f8060408385031215610a7357610a726108c0565b5b5f610a80858286016108e3565b9250506020610a9185828601610990565b9150509250929050565b5f81519050610aa9816108cd565b92915050565b5f60208284031215610ac457610ac36108c0565b5b5f610ad184828501610a9b565b91505092915050565b610ae3816108c4565b82525050565b5f604082019050610afc5f830185610952565b610b096020830184610ada565b9392505050565b5f8115159050919050565b610b2481610b10565b8114610b2e575f80fd5b50565b5f81519050610b3f81610b1b565b92915050565b5f60208284031215610b5a57610b596108c0565b5b5f610b6784828501610b31565b91505092915050565b5f81905092915050565b50565b5f610b885f83610b70565b9150610b9382610b7a565b5f82019050919050565b5f610ba782610b7d565b9150819050919050565b5f606082019050610bc45f830186610952565b610bd16020830185610952565b610bde6040830184610ada565b949350505050565b5f82825260208201905092915050565b7f4d7573742062652070726f706f736564206f776e6572000000000000000000005f82015250565b5f610c2a601683610be6565b9150610c3582610bf6565b602082019050919050565b5f6020820190508181035f830152610c5781610c1e565b9050919050565b7f4f6e6c792063616c6c61626c65206279206f776e6572000000000000000000005f82015250565b5f610c92601683610be6565b9150610c9d82610c5e565b602082019050919050565b5f6020820190508181035f830152610cbf81610c86565b9050919050565b7f43616e6e6f74207472616e7366657220746f2073656c660000000000000000005f82015250565b5f610cfa601783610be6565b9150610d0582610cc6565b602082019050919050565b5f6020820190508181035f830152610d2781610cee565b905091905056fea2646970667358221220153d200237b218555dedba6b20f85fc9e9fe52ac38afd47943c6499b1aef416464736f6c63430008140033",
  "linkReferences": {},
  "deployedLinkReferences": {}
}