{
  "_format": "hh-sol-artifact-1",
  "contractName": "MinimalReceiver",
  "sourceName": "contracts/lib/MinimalReceiver.sol",
  "abi": [
    {
      "inputs": [
        {
          "internalType": "address",
          "name": "",
          "type": "address"
        },
        {
          "internalType": "address",
          "name": "",
          "type": "address"
        },
        {
          "internalType": "uint256[]",
          "name": "",
          "type": "uint256[]"
        },
        {
          "internalType": "uint256[]",
          "name": "",
          "type": "uint256[]"
        },
        {
          "internalType": "bytes",
          "name": "",
          "type": "bytes"
        }
      ],
      "name": "onERC1155BatchReceived",
      "outputs": [
        {
          "internalType": "bytes4",
          "name": "",
          "type": "bytes4"
        }
      ],
      "stateMutability": "nonpayable",
      "type": "function"
    },
    {
      "inputs": [
        {
          "internalType": "address",
          "name": "",
          "type": "address"
        },
        {
          "internalType": "address",
          "name": "",
          "type": "address"
        },
        {
          "internalType": "uint256",
          "name": "",
          "type": "uint256"
        },
        {
          "internalType": "uint256",
          "name": "",
          "type": "uint256"
        },
        {
          "internalType": "bytes",
          "name": "",
          "type": "bytes"
        }
      ],
      "name": "onERC1155Received",
      "outputs": [
        {
          "internalType": "bytes4",
          "name": "",
          "type": "bytes4"
        }
      ],
      "stateMutability": "nonpayable",
      "type": "function"
    },
    {
      "inputs": [
        {
          "internalType": "address",
          "name": "",
          "type": "address"
        },
        {
          "internalType": "address",
          "name": "",
          "type": "address"
        },
        {
          "internalType": "uint256",
          "name": "",
          "type": "uint256"
        },
        {
          "internalType": "bytes",
          "name": "",
          "type": "bytes"
        }
      ],
      "name": "onERC721Received",
      "outputs": [
        {
          "internalType": "bytes4",
          "name": "",
          "type": "bytes4"
        }
      ],
      "stateMutability": "nonpayable",
      "type": "function"
    },
    {
      "inputs": [
        {
          "internalType": "bytes4",
          "name": "interfaceId",
          "type": "bytes4"
        }
      ],
      "name": "supportsInterface",
      "outputs": [
        {
          "internalType": "bool",
          "name": "",
          "type": "bool"
        }
      ],
      "stateMutability": "view",
      "type": "function"
    },
    {
      "stateMutability": "payable",
      "type": "receive"
    }
  ],
  "bytecode": "0x608060405234801561000f575f80fd5b506107e78061001d5f395ff3fe608060405260043610610042575f3560e01c806301ffc9a71461004d578063150b7a0214610089578063bc197c81146100c5578063f23a6e611461010157610049565b3661004957005b5f80fd5b348015610058575f80fd5b50610073600480360381019061006e91906102c0565b61013d565b6040516100809190610305565b60405180910390f35b348015610094575f80fd5b506100af60048036038101906100aa91906104e7565b6101b6565b6040516100bc9190610576565b60405180910390f35b3480156100d0575f80fd5b506100eb60048036038101906100e69190610653565b6101c9565b6040516100f89190610576565b60405180910390f35b34801561010c575f80fd5b506101276004803603810190610122919061071e565b6101dd565b6040516101349190610576565b60405180910390f35b5f7f4e2312e0000000000000000000000000000000000000000000000000000000007bffffffffffffffffffffffffffffffffffffffffffffffffffffffff1916827bffffffffffffffffffffffffffffffffffffffffffffffffffffffff191614806101af57506101ae826101f1565b5b9050919050565b5f63150b7a0260e01b9050949350505050565b5f63bc197c8160e01b905095945050505050565b5f63f23a6e6160e01b905095945050505050565b5f7f01ffc9a7000000000000000000000000000000000000000000000000000000007bffffffffffffffffffffffffffffffffffffffffffffffffffffffff1916827bffffffffffffffffffffffffffffffffffffffffffffffffffffffff1916149050919050565b5f604051905090565b5f80fd5b5f80fd5b5f7fffffffff0000000000000000000000000000000000000000000000000000000082169050919050565b61029f8161026b565b81146102a9575f80fd5b50565b5f813590506102ba81610296565b92915050565b5f602082840312156102d5576102d4610263565b5b5f6102e2848285016102ac565b91505092915050565b5f8115159050919050565b6102ff816102eb565b82525050565b5f6020820190506103185f8301846102f6565b92915050565b5f73ffffffffffffffffffffffffffffffffffffffff82169050919050565b5f6103478261031e565b9050919050565b6103578161033d565b8114610361575f80fd5b50565b5f813590506103728161034e565b92915050565b5f819050919050565b61038a81610378565b8114610394575f80fd5b50565b5f813590506103a581610381565b92915050565b5f80fd5b5f80fd5b5f601f19601f8301169050919050565b7f4e487b71000000000000000000000000000000000000000000000000000000005f52604160045260245ffd5b6103f9826103b3565b810181811067ffffffffffffffff82111715610418576104176103c3565b5b80604052505050565b5f61042a61025a565b905061043682826103f0565b919050565b5f67ffffffffffffffff821115610455576104546103c3565b5b61045e826103b3565b9050602081019050919050565b828183375f83830152505050565b5f61048b6104868461043b565b610421565b9050828152602081018484840111156104a7576104a66103af565b5b6104b284828561046b565b509392505050565b5f82601f8301126104ce576104cd6103ab565b5b81356104de848260208601610479565b91505092915050565b5f805f80608085870312156104ff576104fe610263565b5b5f61050c87828801610364565b945050602061051d87828801610364565b935050604061052e87828801610397565b925050606085013567ffffffffffffffff81111561054f5761054e610267565b5b61055b878288016104ba565b91505092959194509250565b6105708161026b565b82525050565b5f6020820190506105895f830184610567565b92915050565b5f67ffffffffffffffff8211156105a9576105a86103c3565b5b602082029050602081019050919050565b5f80fd5b5f6105d06105cb8461058f565b610421565b905080838252602082019050602084028301858111156105f3576105f26105ba565b5b835b8181101561061c57806106088882610397565b8452602084019350506020810190506105f5565b5050509392505050565b5f82601f83011261063a576106396103ab565b5b813561064a8482602086016105be565b91505092915050565b5f805f805f60a0868803121561066c5761066b610263565b5b5f61067988828901610364565b955050602061068a88828901610364565b945050604086013567ffffffffffffffff8111156106ab576106aa610267565b5b6106b788828901610626565b935050606086013567ffffffffffffffff8111156106d8576106d7610267565b5b6106e488828901610626565b925050608086013567ffffffffffffffff81111561070557610704610267565b5b610711888289016104ba565b9150509295509295909350565b5f805f805f60a0868803121561073757610736610263565b5b5f61074488828901610364565b955050602061075588828901610364565b945050604061076688828901610397565b935050606061077788828901610397565b925050608086013567ffffffffffffffff81111561079857610797610267565b5b6107a4888289016104ba565b915050929550929590935056fea2646970667358221220ffca319b070626a6dbb564a0e6b6cbb7925fa764fa890956d9a0c49eb94632f864736f6c63430008140033",
  "linkReferences": {},
  "deployedLinkReferences": {}
}