{
  "_format": "hh-sol-artifact-1",
  "contractName": "myNFT",
  "sourceName": "contracts/MyNFT.sol",
  "abi": [
    {
      "inputs": [],
      "stateMutability": "nonpayable",
      "type": "constructor"
    },
    {
      "inputs": [
        {
          "internalType": "address",
          "name": "sender",
          "type": "address"
        },
        {
          "internalType": "uint256",
          "name": "tokenId",
          "type": "uint256"
        },
        {
          "internalType": "address",
          "name": "owner",
          "type": "address"
        }
      ],
      "name": "ERC721IncorrectOwner",
      "type": "error"
    },
    {
      "inputs": [
        {
          "internalType": "address",
          "name": "operator",
          "type": "address"
        },
        {
          "internalType": "uint256",
          "name": "tokenId",
          "type": "uint256"
        }
      ],
      "name": "ERC721InsufficientApproval",
      "type": "error"
    },
    {
      "inputs": [
        {
          "internalType": "address",
          "name": "approver",
          "type": "address"
        }
      ],
      "name": "ERC721InvalidApprover",
      "type": "error"
    },
    {
      "inputs": [
        {
          "internalType": "address",
          "name": "operator",
          "type": "address"
        }
      ],
      "name": "ERC721InvalidOperator",
      "type": "error"
    },
    {
      "inputs": [
        {
          "internalType": "address",
          "name": "owner",
          "type": "address"
        }
      ],
      "name": "ERC721InvalidOwner",
      "type": "error"
    },
    {
      "inputs": [
        {
          "internalType": "address",
          "name": "receiver",
          "type": "address"
        }
      ],
      "name": "ERC721InvalidReceiver",
      "type": "error"
    },
    {
      "inputs": [
        {
          "internalType": "address",
          "name": "sender",
          "type": "address"
        }
      ],
      "name": "ERC721InvalidSender",
      "type": "error"
    },
    {
      "inputs": [
        {
          "internalType": "uint256",
          "name": "tokenId",
          "type": "uint256"
        }
      ],
      "name": "ERC721NonexistentToken",
      "type": "error"
    },
    {
      "anonymous": false,
      "inputs": [
        {
          "indexed": true,
          "internalType": "address",
          "name": "owner",
          "type": "address"
        },
        {
          "indexed": true,
          "internalType": "address",
          "name": "approved",
          "type": "address"
        },
        {
          "indexed": true,
          "internalType": "uint256",
          "name": "tokenId",
          "type": "uint256"
        }
      ],
      "name": "Approval",
      "type": "event"
    },
    {
      "anonymous": false,
      "inputs": [
        {
          "indexed": true,
          "internalType": "address",
          "name": "owner",
          "type": "address"
        },
        {
          "indexed": true,
          "internalType": "address",
          "name": "operator",
          "type": "address"
        },
        {
          "indexed": false,
          "internalType": "bool",
          "name": "approved",
          "type": "bool"
        }
      ],
      "name": "ApprovalForAll",
      "type": "event"
    },
    {
      "anonymous": false,
      "inputs": [
        {
          "indexed": true,
          "internalType": "address",
          "name": "from",
          "type": "address"
        },
        {
          "indexed": true,
          "internalType": "address",
          "name": "to",
          "type": "address"
        },
        {
          "indexed": true,
          "internalType": "uint256",
          "name": "tokenId",
          "type": "uint256"
        }
      ],
      "name": "Transfer",
      "type": "event"
    },
    {
      "inputs": [
        {
          "internalType": "address",
          "name": "to",
          "type": "address"
        },
        {
          "internalType": "uint256",
          "name": "tokenId",
          "type": "uint256"
        }
      ],
      "name": "approve",
      "outputs": [],
      "stateMutability": "nonpayable",
      "type": "function"
    },
    {
      "inputs": [
        {
          "internalType": "address",
          "name": "owner",
          "type": "address"
        }
      ],
      "name": "balanceOf",
      "outputs": [
        {
          "internalType": "uint256",
          "name": "",
          "type": "uint256"
        }
      ],
      "stateMutability": "view",
      "type": "function"
    },
    {
      "inputs": [
        {
          "internalType": "uint256",
          "name": "tokenId",
          "type": "uint256"
        }
      ],
      "name": "getApproved",
      "outputs": [
        {
          "internalType": "address",
          "name": "",
          "type": "address"
        }
      ],
      "stateMutability": "view",
      "type": "function"
    },
    {
      "inputs": [
        {
          "internalType": "address",
          "name": "owner",
          "type": "address"
        },
        {
          "internalType": "address",
          "name": "operator",
          "type": "address"
        }
      ],
      "name": "isApprovedForAll",
      "outputs": [
        {
          "internalType": "bool",
          "name": "",
          "type": "bool"
        }
      ],
      "stateMutability": "view",
      "type": "function"
    },
    {
      "inputs": [],
      "name": "name",
      "outputs": [
        {
          "internalType": "string",
          "name": "",
          "type": "string"
        }
      ],
      "stateMutability": "view",
      "type": "function"
    },
    {
      "inputs": [
        {
          "internalType": "uint256",
          "name": "tokenId",
          "type": "uint256"
        }
      ],
      "name": "ownerOf",
      "outputs": [
        {
          "internalType": "address",
          "name": "",
          "type": "address"
        }
      ],
      "stateMutability": "view",
      "type": "function"
    },
    {
      "inputs": [
        {
          "internalType": "address",
          "name": "to",
          "type": "address"
        },
        {
          "internalType": "uint256",
          "name": "tokenId",
          "type": "uint256"
        }
      ],
      "name": "safeMint",
      "outputs": [],
      "stateMutability": "nonpayable",
      "type": "function"
    },
    {
      "inputs": [
        {
          "internalType": "address",
          "name": "from",
          "type": "address"
        },
        {
          "internalType": "address",
          "name": "to",
          "type": "address"
        },
        {
          "internalType": "uint256",
          "name": "tokenId",
          "type": "uint256"
        }
      ],
      "name": "safeTransferFrom",
      "outputs": [],
      "stateMutability": "nonpayable",
      "type": "function"
    },
    {
      "inputs": [
        {
          "internalType": "address",
          "name": "from",
          "type": "address"
        },
        {
          "internalType": "address",
          "name": "to",
          "type": "address"
        },
        {
          "internalType": "uint256",
          "name": "tokenId",
          "type": "uint256"
        },
        {
          "internalType": "bytes",
          "name": "data",
          "type": "bytes"
        }
      ],
      "name": "safeTransferFrom",
      "outputs": [],
      "stateMutability": "nonpayable",
      "type": "function"
    },
    {
      "inputs": [
        {
          "internalType": "address",
          "name": "operator",
          "type": "address"
        },
        {
          "internalType": "bool",
          "name": "approved",
          "type": "bool"
        }
      ],
      "name": "setApprovalForAll",
      "outputs": [],
      "stateMutability": "nonpayable",
      "type": "function"
    },
    {
      "inputs": [
        {
          "internalType": "bytes4",
          "name": "interfaceId",
          "type": "bytes4"
        }
      ],
      "name": "supportsInterface",
      "outputs": [
        {
          "internalType": "bool",
          "name": "",
          "type": "bool"
        }
      ],
      "stateMutability": "view",
      "type": "function"
    },
    {
      "inputs": [],
      "name": "symbol",
      "outputs": [
        {
          "internalType": "string",
          "name": "",
          "type": "string"
        }
      ],
      "stateMutability": "view",
      "type": "function"
    },
    {
      "inputs": [
        {
          "internalType": "uint256",
          "name": "tokenId",
          "type": "uint256"
        }
      ],
      "name": "tokenURI",
      "outputs": [
        {
          "internalType": "string",
          "name": "",
          "type": "string"
        }
      ],
      "stateMutability": "view",
      "type": "function"
    },
    {
      "inputs": [
        {
          "internalType": "address",
          "name": "from",
          "type": "address"
        },
        {
          "internalType": "address",
          "name": "to",
          "type": "address"
        },
        {
          "internalType": "uint256",
          "name": "tokenId",
          "type": "uint256"
        }
      ],
      "name": "transferFrom",
      "outputs": [],
      "stateMutability": "nonpayable",
      "type": "function"
    }
  ],
  "bytecode": "0x608060405234801562000010575f80fd5b506040518060400160405280600581526020017f6d794e46540000000000000000000000000000000000000000000000000000008152506040518060400160405280600381526020017f4e46540000000000000000000000000000000000000000000000000000000000815250815f90816200008d91906200030c565b5080600190816200009f91906200030c565b505050620003f0565b5f81519050919050565b7f4e487b71000000000000000000000000000000000000000000000000000000005f52604160045260245ffd5b7f4e487b71000000000000000000000000000000000000000000000000000000005f52602260045260245ffd5b5f60028204905060018216806200012457607f821691505b6020821081036200013a5762000139620000df565b5b50919050565b5f819050815f5260205f209050919050565b5f6020601f8301049050919050565b5f82821b905092915050565b5f600883026200019e7fffffffffffffffffffffffffffffffffffffffffffffffffffffffffffffffff8262000161565b620001aa868362000161565b95508019841693508086168417925050509392505050565b5f819050919050565b5f819050919050565b5f620001f4620001ee620001e884620001c2565b620001cb565b620001c2565b9050919050565b5f819050919050565b6200020f83620001d4565b620002276200021e82620001fb565b8484546200016d565b825550505050565b5f90565b6200023d6200022f565b6200024a81848462000204565b505050565b5b818110156200027157620002655f8262000233565b60018101905062000250565b5050565b601f821115620002c0576200028a8162000140565b620002958462000152565b81016020851015620002a5578190505b620002bd620002b48562000152565b8301826200024f565b50505b505050565b5f82821c905092915050565b5f620002e25f1984600802620002c5565b1980831691505092915050565b5f620002fc8383620002d1565b9150826002028217905092915050565b6200031782620000a8565b67ffffffffffffffff811115620003335762000332620000b2565b5b6200033f82546200010c565b6200034c82828562000275565b5f60209050601f83116001811462000382575f84156200036d578287015190505b620003798582620002ef565b865550620003e8565b601f198416620003928662000140565b5f5b82811015620003bb5784890151825560018201915060208501945060208101905062000394565b86831015620003db5784890151620003d7601f891682620002d1565b8355505b6001600288020188555050505b505050505050565b611d4e80620003fe5f395ff3fe608060405234801561000f575f80fd5b50600436106100e8575f3560e01c806370a082311161008a578063a22cb46511610064578063a22cb46514610258578063b88d4fde14610274578063c87b56dd14610290578063e985e9c5146102c0576100e8565b806370a08231146101ee57806395d89b411461021e578063a14481941461023c576100e8565b8063095ea7b3116100c6578063095ea7b31461016a57806323b872dd1461018657806342842e0e146101a25780636352211e146101be576100e8565b806301ffc9a7146100ec57806306fdde031461011c578063081812fc1461013a575b5f80fd5b610106600480360381019061010191906115df565b6102f0565b6040516101139190611624565b60405180910390f35b6101246103d1565b60405161013191906116c7565b60405180910390f35b610154600480360381019061014f919061171a565b610460565b6040516101619190611784565b60405180910390f35b610184600480360381019061017f91906117c7565b61047b565b005b6101a0600480360381019061019b9190611805565b610491565b005b6101bc60048036038101906101b79190611805565b610590565b005b6101d860048036038101906101d3919061171a565b6105af565b6040516101e59190611784565b60405180910390f35b61020860048036038101906102039190611855565b6105c0565b604051610215919061188f565b60405180910390f35b610226610676565b60405161023391906116c7565b60405180910390f35b610256600480360381019061025191906117c7565b610706565b005b610272600480360381019061026d91906118d2565b610714565b005b61028e60048036038101906102899190611a3c565b61072a565b005b6102aa60048036038101906102a5919061171a565b610747565b6040516102b791906116c7565b60405180910390f35b6102da60048036038101906102d59190611abc565b6107ad565b6040516102e79190611624565b60405180910390f35b5f7f80ac58cd000000000000000000000000000000000000000000000000000000007bffffffffffffffffffffffffffffffffffffffffffffffffffffffff1916827bffffffffffffffffffffffffffffffffffffffffffffffffffffffff191614806103ba57507f5b5e139f000000000000000000000000000000000000000000000000000000007bffffffffffffffffffffffffffffffffffffffffffffffffffffffff1916827bffffffffffffffffffffffffffffffffffffffffffffffffffffffff1916145b806103ca57506103c98261083b565b5b9050919050565b60605f80546103df90611b27565b80601f016020809104026020016040519081016040528092919081815260200182805461040b90611b27565b80156104565780601f1061042d57610100808354040283529160200191610456565b820191905f5260205f20905b81548152906001019060200180831161043957829003601f168201915b5050505050905090565b5f61046a826108a4565b506104748261092a565b9050919050565b61048d8282610488610963565b61096a565b5050565b5f73ffffffffffffffffffffffffffffffffffffffff168273ffffffffffffffffffffffffffffffffffffffff1603610501575f6040517f64a0ae920000000000000000000000000000000000000000000000000000000081526004016104f89190611784565b60405180910390fd5b5f610514838361050f610963565b61097c565b90508373ffffffffffffffffffffffffffffffffffffffff168173ffffffffffffffffffffffffffffffffffffffff161461058a578382826040517f64283d7b00000000000000000000000000000000000000000000000000000000815260040161058193929190611b57565b60405180910390fd5b50505050565b6105aa83838360405180602001604052805f81525061072a565b505050565b5f6105b9826108a4565b9050919050565b5f8073ffffffffffffffffffffffffffffffffffffffff168273ffffffffffffffffffffffffffffffffffffffff1603610631575f6040517f89c62b640000000000000000000000000000000000000000000000000000000081526004016106289190611784565b60405180910390fd5b60035f8373ffffffffffffffffffffffffffffffffffffffff1673ffffffffffffffffffffffffffffffffffffffff1681526020019081526020015f20549050919050565b60606001805461068590611b27565b80601f01602080910402602001604051908101604052809291908181526020018280546106b190611b27565b80156106fc5780601f106106d3576101008083540402835291602001916106fc565b820191905f5260205f20905b8154815290600101906020018083116106df57829003601f168201915b5050505050905090565b6107108282610b87565b5050565b61072661071f610963565b8383610ba4565b5050565b610735848484610491565b61074184848484610d0d565b50505050565b6060610752826108a4565b505f61075c610ebf565b90505f81511161077a5760405180602001604052805f8152506107a5565b8061078484610ed5565b604051602001610795929190611bc6565b6040516020818303038152906040525b915050919050565b5f60055f8473ffffffffffffffffffffffffffffffffffffffff1673ffffffffffffffffffffffffffffffffffffffff1681526020019081526020015f205f8373ffffffffffffffffffffffffffffffffffffffff1673ffffffffffffffffffffffffffffffffffffffff1681526020019081526020015f205f9054906101000a900460ff16905092915050565b5f7f01ffc9a7000000000000000000000000000000000000000000000000000000007bffffffffffffffffffffffffffffffffffffffffffffffffffffffff1916827bffffffffffffffffffffffffffffffffffffffffffffffffffffffff1916149050919050565b5f806108af83610f9f565b90505f73ffffffffffffffffffffffffffffffffffffffff168173ffffffffffffffffffffffffffffffffffffffff160361092157826040517f7e273289000000000000000000000000000000000000000000000000000000008152600401610918919061188f565b60405180910390fd5b80915050919050565b5f60045f8381526020019081526020015f205f9054906101000a900473ffffffffffffffffffffffffffffffffffffffff169050919050565b5f33905090565b6109778383836001610fd8565b505050565b5f8061098784610f9f565b90505f73ffffffffffffffffffffffffffffffffffffffff168373ffffffffffffffffffffffffffffffffffffffff16146109c8576109c7818486611197565b5b5f73ffffffffffffffffffffffffffffffffffffffff168173ffffffffffffffffffffffffffffffffffffffff1614610a5357610a075f855f80610fd8565b600160035f8373ffffffffffffffffffffffffffffffffffffffff1673ffffffffffffffffffffffffffffffffffffffff1681526020019081526020015f205f82825403925050819055505b5f73ffffffffffffffffffffffffffffffffffffffff168573ffffffffffffffffffffffffffffffffffffffff1614610ad257600160035f8773ffffffffffffffffffffffffffffffffffffffff1673ffffffffffffffffffffffffffffffffffffffff1681526020019081526020015f205f82825401925050819055505b8460025f8681526020019081526020015f205f6101000a81548173ffffffffffffffffffffffffffffffffffffffff021916908373ffffffffffffffffffffffffffffffffffffffff160217905550838573ffffffffffffffffffffffffffffffffffffffff168273ffffffffffffffffffffffffffffffffffffffff167fddf252ad1be2c89b69c2b068fc378daa952ba7f163c4a11628f55a4df523b3ef60405160405180910390a4809150509392505050565b610ba0828260405180602001604052805f81525061125a565b5050565b5f73ffffffffffffffffffffffffffffffffffffffff168273ffffffffffffffffffffffffffffffffffffffff1603610c1457816040517f5b08ba18000000000000000000000000000000000000000000000000000000008152600401610c0b9190611784565b60405180910390fd5b8060055f8573ffffffffffffffffffffffffffffffffffffffff1673ffffffffffffffffffffffffffffffffffffffff1681526020019081526020015f205f8473ffffffffffffffffffffffffffffffffffffffff1673ffffffffffffffffffffffffffffffffffffffff1681526020019081526020015f205f6101000a81548160ff0219169083151502179055508173ffffffffffffffffffffffffffffffffffffffff168373ffffffffffffffffffffffffffffffffffffffff167f17307eab39ab6107e8899845ad3d59bd9653f200f220920489ca2b5937696c3183604051610d009190611624565b60405180910390a3505050565b5f8373ffffffffffffffffffffffffffffffffffffffff163b1115610eb9578273ffffffffffffffffffffffffffffffffffffffff1663150b7a02610d50610963565b8685856040518563ffffffff1660e01b8152600401610d729493929190611c3b565b6020604051808303815f875af1925050508015610dad57506040513d601f19601f82011682018060405250810190610daa9190611c99565b60015b610e2e573d805f8114610ddb576040519150601f19603f3d011682016040523d82523d5f602084013e610de0565b606091505b505f815103610e2657836040517f64a0ae92000000000000000000000000000000000000000000000000000000008152600401610e1d9190611784565b60405180910390fd5b805181602001fd5b63150b7a0260e01b7bffffffffffffffffffffffffffffffffffffffffffffffffffffffff1916817bffffffffffffffffffffffffffffffffffffffffffffffffffffffff191614610eb757836040517f64a0ae92000000000000000000000000000000000000000000000000000000008152600401610eae9190611784565b60405180910390fd5b505b50505050565b606060405180602001604052805f815250905090565b60605f6001610ee384611275565b0190505f8167ffffffffffffffff811115610f0157610f00611918565b5b6040519080825280601f01601f191660200182016040528015610f335781602001600182028036833780820191505090505b5090505f82602001820190505b600115610f94578080600190039150507f3031323334353637383961626364656600000000000000000000000000000000600a86061a8153600a8581610f8957610f88611cc4565b5b0494505f8503610f40575b819350505050919050565b5f60025f8381526020019081526020015f205f9054906101000a900473ffffffffffffffffffffffffffffffffffffffff169050919050565b808061101057505f73ffffffffffffffffffffffffffffffffffffffff168273ffffffffffffffffffffffffffffffffffffffff1614155b15611142575f61101f846108a4565b90505f73ffffffffffffffffffffffffffffffffffffffff168373ffffffffffffffffffffffffffffffffffffffff161415801561108957508273ffffffffffffffffffffffffffffffffffffffff168173ffffffffffffffffffffffffffffffffffffffff1614155b801561109c575061109a81846107ad565b155b156110de57826040517fa9fbf51f0000000000000000000000000000000000000000000000000000000081526004016110d59190611784565b60405180910390fd5b811561114057838573ffffffffffffffffffffffffffffffffffffffff168273ffffffffffffffffffffffffffffffffffffffff167f8c5be1e5ebec7d5bd14f71427d1e84f3dd0314c0f7b2291e5b200ac8c7c3b92560405160405180910390a45b505b8360045f8581526020019081526020015f205f6101000a81548173ffffffffffffffffffffffffffffffffffffffff021916908373ffffffffffffffffffffffffffffffffffffffff16021790555050505050565b6111a28383836113c6565b611255575f73ffffffffffffffffffffffffffffffffffffffff168373ffffffffffffffffffffffffffffffffffffffff160361121657806040517f7e27328900000000000000000000000000000000000000000000000000000000815260040161120d919061188f565b60405180910390fd5b81816040517f177e802f00000000000000000000000000000000000000000000000000000000815260040161124c929190611cf1565b60405180910390fd5b505050565b6112648383611486565b6112705f848484610d0d565b505050565b5f805f90507a184f03e93ff9f4daa797ed6e38ed64bf6a1f01000000000000000083106112d1577a184f03e93ff9f4daa797ed6e38ed64bf6a1f01000000000000000083816112c7576112c6611cc4565b5b0492506040810190505b6d04ee2d6d415b85acef8100000000831061130e576d04ee2d6d415b85acef8100000000838161130457611303611cc4565b5b0492506020810190505b662386f26fc10000831061133d57662386f26fc10000838161133357611332611cc4565b5b0492506010810190505b6305f5e1008310611366576305f5e100838161135c5761135b611cc4565b5b0492506008810190505b612710831061138b57612710838161138157611380611cc4565b5b0492506004810190505b606483106113ae57606483816113a4576113a3611cc4565b5b0492506002810190505b600a83106113bd576001810190505b80915050919050565b5f8073ffffffffffffffffffffffffffffffffffffffff168373ffffffffffffffffffffffffffffffffffffffff161415801561147d57508273ffffffffffffffffffffffffffffffffffffffff168473ffffffffffffffffffffffffffffffffffffffff16148061143e575061143d84846107ad565b5b8061147c57508273ffffffffffffffffffffffffffffffffffffffff166114648361092a565b73ffffffffffffffffffffffffffffffffffffffff16145b5b90509392505050565b5f73ffffffffffffffffffffffffffffffffffffffff168273ffffffffffffffffffffffffffffffffffffffff16036114f6575f6040517f64a0ae920000000000000000000000000000000000000000000000000000000081526004016114ed9190611784565b60405180910390fd5b5f61150283835f61097c565b90505f73ffffffffffffffffffffffffffffffffffffffff168173ffffffffffffffffffffffffffffffffffffffff1614611574575f6040517f73c6ac6e00000000000000000000000000000000000000000000000000000000815260040161156b9190611784565b60405180910390fd5b505050565b5f604051905090565b5f80fd5b5f80fd5b5f7fffffffff0000000000000000000000000000000000000000000000000000000082169050919050565b6115be8161158a565b81146115c8575f80fd5b50565b5f813590506115d9816115b5565b92915050565b5f602082840312156115f4576115f3611582565b5b5f611601848285016115cb565b91505092915050565b5f8115159050919050565b61161e8161160a565b82525050565b5f6020820190506116375f830184611615565b92915050565b5f81519050919050565b5f82825260208201905092915050565b5f5b83811015611674578082015181840152602081019050611659565b5f8484015250505050565b5f601f19601f8301169050919050565b5f6116998261163d565b6116a38185611647565b93506116b3818560208601611657565b6116bc8161167f565b840191505092915050565b5f6020820190508181035f8301526116df818461168f565b905092915050565b5f819050919050565b6116f9816116e7565b8114611703575f80fd5b50565b5f81359050611714816116f0565b92915050565b5f6020828403121561172f5761172e611582565b5b5f61173c84828501611706565b91505092915050565b5f73ffffffffffffffffffffffffffffffffffffffff82169050919050565b5f61176e82611745565b9050919050565b61177e81611764565b82525050565b5f6020820190506117975f830184611775565b92915050565b6117a681611764565b81146117b0575f80fd5b50565b5f813590506117c18161179d565b92915050565b5f80604083850312156117dd576117dc611582565b5b5f6117ea858286016117b3565b92505060206117fb85828601611706565b9150509250929050565b5f805f6060848603121561181c5761181b611582565b5b5f611829868287016117b3565b935050602061183a868287016117b3565b925050604061184b86828701611706565b9150509250925092565b5f6020828403121561186a57611869611582565b5b5f611877848285016117b3565b91505092915050565b611889816116e7565b82525050565b5f6020820190506118a25f830184611880565b92915050565b6118b18161160a565b81146118bb575f80fd5b50565b5f813590506118cc816118a8565b92915050565b5f80604083850312156118e8576118e7611582565b5b5f6118f5858286016117b3565b9250506020611906858286016118be565b9150509250929050565b5f80fd5b5f80fd5b7f4e487b71000000000000000000000000000000000000000000000000000000005f52604160045260245ffd5b61194e8261167f565b810181811067ffffffffffffffff8211171561196d5761196c611918565b5b80604052505050565b5f61197f611579565b905061198b8282611945565b919050565b5f67ffffffffffffffff8211156119aa576119a9611918565b5b6119b38261167f565b9050602081019050919050565b828183375f83830152505050565b5f6119e06119db84611990565b611976565b9050828152602081018484840111156119fc576119fb611914565b5b611a078482856119c0565b509392505050565b5f82601f830112611a2357611a22611910565b5b8135611a338482602086016119ce565b91505092915050565b5f805f8060808587031215611a5457611a53611582565b5b5f611a61878288016117b3565b9450506020611a72878288016117b3565b9350506040611a8387828801611706565b925050606085013567ffffffffffffffff811115611aa457611aa3611586565b5b611ab087828801611a0f565b91505092959194509250565b5f8060408385031215611ad257611ad1611582565b5b5f611adf858286016117b3565b9250506020611af0858286016117b3565b9150509250929050565b7f4e487b71000000000000000000000000000000000000000000000000000000005f52602260045260245ffd5b5f6002820490506001821680611b3e57607f821691505b602082108103611b5157611b50611afa565b5b50919050565b5f606082019050611b6a5f830186611775565b611b776020830185611880565b611b846040830184611775565b949350505050565b5f81905092915050565b5f611ba08261163d565b611baa8185611b8c565b9350611bba818560208601611657565b80840191505092915050565b5f611bd18285611b96565b9150611bdd8284611b96565b91508190509392505050565b5f81519050919050565b5f82825260208201905092915050565b5f611c0d82611be9565b611c178185611bf3565b9350611c27818560208601611657565b611c308161167f565b840191505092915050565b5f608082019050611c4e5f830187611775565b611c5b6020830186611775565b611c686040830185611880565b8181036060830152611c7a8184611c03565b905095945050505050565b5f81519050611c93816115b5565b92915050565b5f60208284031215611cae57611cad611582565b5b5f611cbb84828501611c85565b91505092915050565b7f4e487b71000000000000000000000000000000000000000000000000000000005f52601260045260245ffd5b5f604082019050611d045f830185611775565b611d116020830184611880565b939250505056fea2646970667358221220361e7ebb07006291296ed46e5fbf91ff70a0cbc9de68c8544282ad283cbbebfe64736f6c63430008140033",
  "linkReferences": {},
  "deployedLinkReferences": {}
}