{
  "_format": "hh-sol-artifact-1",
  "contractName": "SPER",
  "sourceName": "contracts/MyNFT.sol",
  "abi": [
    {
      "inputs": [],
      "stateMutability": "nonpayable",
      "type": "constructor"
    },
    {
      "inputs": [
        {
          "internalType": "address",
          "name": "sender",
          "type": "address"
        },
        {
          "internalType": "uint256",
          "name": "tokenId",
          "type": "uint256"
        },
        {
          "internalType": "address",
          "name": "owner",
          "type": "address"
        }
      ],
      "name": "ERC721IncorrectOwner",
      "type": "error"
    },
    {
      "inputs": [
        {
          "internalType": "address",
          "name": "operator",
          "type": "address"
        },
        {
          "internalType": "uint256",
          "name": "tokenId",
          "type": "uint256"
        }
      ],
      "name": "ERC721InsufficientApproval",
      "type": "error"
    },
    {
      "inputs": [
        {
          "internalType": "address",
          "name": "approver",
          "type": "address"
        }
      ],
      "name": "ERC721InvalidApprover",
      "type": "error"
    },
    {
      "inputs": [
        {
          "internalType": "address",
          "name": "operator",
          "type": "address"
        }
      ],
      "name": "ERC721InvalidOperator",
      "type": "error"
    },
    {
      "inputs": [
        {
          "internalType": "address",
          "name": "owner",
          "type": "address"
        }
      ],
      "name": "ERC721InvalidOwner",
      "type": "error"
    },
    {
      "inputs": [
        {
          "internalType": "address",
          "name": "receiver",
          "type": "address"
        }
      ],
      "name": "ERC721InvalidReceiver",
      "type": "error"
    },
    {
      "inputs": [
        {
          "internalType": "address",
          "name": "sender",
          "type": "address"
        }
      ],
      "name": "ERC721InvalidSender",
      "type": "error"
    },
    {
      "inputs": [
        {
          "internalType": "uint256",
          "name": "tokenId",
          "type": "uint256"
        }
      ],
      "name": "ERC721NonexistentToken",
      "type": "error"
    },
    {
      "anonymous": false,
      "inputs": [
        {
          "indexed": true,
          "internalType": "address",
          "name": "owner",
          "type": "address"
        },
        {
          "indexed": true,
          "internalType": "address",
          "name": "approved",
          "type": "address"
        },
        {
          "indexed": true,
          "internalType": "uint256",
          "name": "tokenId",
          "type": "uint256"
        }
      ],
      "name": "Approval",
      "type": "event"
    },
    {
      "anonymous": false,
      "inputs": [
        {
          "indexed": true,
          "internalType": "address",
          "name": "owner",
          "type": "address"
        },
        {
          "indexed": true,
          "internalType": "address",
          "name": "operator",
          "type": "address"
        },
        {
          "indexed": false,
          "internalType": "bool",
          "name": "approved",
          "type": "bool"
        }
      ],
      "name": "ApprovalForAll",
      "type": "event"
    },
    {
      "anonymous": false,
      "inputs": [
        {
          "indexed": true,
          "internalType": "address",
          "name": "from",
          "type": "address"
        },
        {
          "indexed": true,
          "internalType": "address",
          "name": "to",
          "type": "address"
        },
        {
          "indexed": true,
          "internalType": "uint256",
          "name": "tokenId",
          "type": "uint256"
        }
      ],
      "name": "Transfer",
      "type": "event"
    },
    {
      "inputs": [
        {
          "internalType": "address",
          "name": "to",
          "type": "address"
        },
        {
          "internalType": "uint256",
          "name": "tokenId",
          "type": "uint256"
        }
      ],
      "name": "approve",
      "outputs": [],
      "stateMutability": "nonpayable",
      "type": "function"
    },
    {
      "inputs": [
        {
          "internalType": "address",
          "name": "owner",
          "type": "address"
        }
      ],
      "name": "balanceOf",
      "outputs": [
        {
          "internalType": "uint256",
          "name": "",
          "type": "uint256"
        }
      ],
      "stateMutability": "view",
      "type": "function"
    },
    {
      "inputs": [
        {
          "internalType": "uint256",
          "name": "tokenId",
          "type": "uint256"
        }
      ],
      "name": "getApproved",
      "outputs": [
        {
          "internalType": "address",
          "name": "",
          "type": "address"
        }
      ],
      "stateMutability": "view",
      "type": "function"
    },
    {
      "inputs": [
        {
          "internalType": "address",
          "name": "owner",
          "type": "address"
        },
        {
          "internalType": "address",
          "name": "operator",
          "type": "address"
        }
      ],
      "name": "isApprovedForAll",
      "outputs": [
        {
          "internalType": "bool",
          "name": "",
          "type": "bool"
        }
      ],
      "stateMutability": "view",
      "type": "function"
    },
    {
      "inputs": [],
      "name": "name",
      "outputs": [
        {
          "internalType": "string",
          "name": "",
          "type": "string"
        }
      ],
      "stateMutability": "view",
      "type": "function"
    },
    {
      "inputs": [
        {
          "internalType": "uint256",
          "name": "tokenId",
          "type": "uint256"
        }
      ],
      "name": "ownerOf",
      "outputs": [
        {
          "internalType": "address",
          "name": "",
          "type": "address"
        }
      ],
      "stateMutability": "view",
      "type": "function"
    },
    {
      "inputs": [
        {
          "internalType": "address",
          "name": "to",
          "type": "address"
        }
      ],
      "name": "safeMint",
      "outputs": [],
      "stateMutability": "nonpayable",
      "type": "function"
    },
    {
      "inputs": [
        {
          "internalType": "address",
          "name": "from",
          "type": "address"
        },
        {
          "internalType": "address",
          "name": "to",
          "type": "address"
        },
        {
          "internalType": "uint256",
          "name": "tokenId",
          "type": "uint256"
        }
      ],
      "name": "safeTransferFrom",
      "outputs": [],
      "stateMutability": "nonpayable",
      "type": "function"
    },
    {
      "inputs": [
        {
          "internalType": "address",
          "name": "from",
          "type": "address"
        },
        {
          "internalType": "address",
          "name": "to",
          "type": "address"
        },
        {
          "internalType": "uint256",
          "name": "tokenId",
          "type": "uint256"
        },
        {
          "internalType": "bytes",
          "name": "data",
          "type": "bytes"
        }
      ],
      "name": "safeTransferFrom",
      "outputs": [],
      "stateMutability": "nonpayable",
      "type": "function"
    },
    {
      "inputs": [
        {
          "internalType": "address",
          "name": "operator",
          "type": "address"
        },
        {
          "internalType": "bool",
          "name": "approved",
          "type": "bool"
        }
      ],
      "name": "setApprovalForAll",
      "outputs": [],
      "stateMutability": "nonpayable",
      "type": "function"
    },
    {
      "inputs": [
        {
          "internalType": "bytes4",
          "name": "interfaceId",
          "type": "bytes4"
        }
      ],
      "name": "supportsInterface",
      "outputs": [
        {
          "internalType": "bool",
          "name": "",
          "type": "bool"
        }
      ],
      "stateMutability": "view",
      "type": "function"
    },
    {
      "inputs": [],
      "name": "symbol",
      "outputs": [
        {
          "internalType": "string",
          "name": "",
          "type": "string"
        }
      ],
      "stateMutability": "view",
      "type": "function"
    },
    {
      "inputs": [
        {
          "internalType": "uint256",
          "name": "tokenId",
          "type": "uint256"
        }
      ],
      "name": "tokenURI",
      "outputs": [
        {
          "internalType": "string",
          "name": "",
          "type": "string"
        }
      ],
      "stateMutability": "view",
      "type": "function"
    },
    {
      "inputs": [
        {
          "internalType": "address",
          "name": "from",
          "type": "address"
        },
        {
          "internalType": "address",
          "name": "to",
          "type": "address"
        },
        {
          "internalType": "uint256",
          "name": "tokenId",
          "type": "uint256"
        }
      ],
      "name": "transferFrom",
      "outputs": [],
      "stateMutability": "nonpayable",
      "type": "function"
    }
  ],
  "bytecode": "0x608060405234801562000010575f80fd5b506040518060400160405280600f81526020017f5363726f6c6c2050696f6e6565727300000000000000000000000000000000008152506040518060400160405280600481526020017f5350455200000000000000000000000000000000000000000000000000000000815250815f90816200008d91906200030c565b5080600190816200009f91906200030c565b505050620003f0565b5f81519050919050565b7f4e487b71000000000000000000000000000000000000000000000000000000005f52604160045260245ffd5b7f4e487b71000000000000000000000000000000000000000000000000000000005f52602260045260245ffd5b5f60028204905060018216806200012457607f821691505b6020821081036200013a5762000139620000df565b5b50919050565b5f819050815f5260205f209050919050565b5f6020601f8301049050919050565b5f82821b905092915050565b5f600883026200019e7fffffffffffffffffffffffffffffffffffffffffffffffffffffffffffffffff8262000161565b620001aa868362000161565b95508019841693508086168417925050509392505050565b5f819050919050565b5f819050919050565b5f620001f4620001ee620001e884620001c2565b620001cb565b620001c2565b9050919050565b5f819050919050565b6200020f83620001d4565b620002276200021e82620001fb565b8484546200016d565b825550505050565b5f90565b6200023d6200022f565b6200024a81848462000204565b505050565b5b818110156200027157620002655f8262000233565b60018101905062000250565b5050565b601f821115620002c0576200028a8162000140565b620002958462000152565b81016020851015620002a5578190505b620002bd620002b48562000152565b8301826200024f565b50505b505050565b5f82821c905092915050565b5f620002e25f1984600802620002c5565b1980831691505092915050565b5f620002fc8383620002d1565b9150826002028217905092915050565b6200031782620000a8565b67ffffffffffffffff811115620003335762000332620000b2565b5b6200033f82546200010c565b6200034c82828562000275565b5f60209050601f83116001811462000382575f84156200036d578287015190505b620003798582620002ef565b865550620003e8565b601f198416620003928662000140565b5f5b82811015620003bb5784890151825560018201915060208501945060208101905062000394565b86831015620003db5784890151620003d7601f891682620002d1565b8355505b6001600288020188555050505b505050505050565b611e2a80620003fe5f395ff3fe608060405234801561000f575f80fd5b50600436106100e8575f3560e01c80636352211e1161008a578063a22cb46511610064578063a22cb46514610258578063b88d4fde14610274578063c87b56dd14610290578063e985e9c5146102c0576100e8565b80636352211e146101da57806370a082311461020a57806395d89b411461023a576100e8565b8063095ea7b3116100c6578063095ea7b31461016a57806323b872dd1461018657806340d097c3146101a257806342842e0e146101be576100e8565b806301ffc9a7146100ec57806306fdde031461011c578063081812fc1461013a575b5f80fd5b61010660048036038101906101019190611601565b6102f0565b6040516101139190611646565b60405180910390f35b6101246103d1565b60405161013191906116e9565b60405180910390f35b610154600480360381019061014f919061173c565b610460565b60405161016191906117a6565b60405180910390f35b610184600480360381019061017f91906117e9565b61047b565b005b6101a0600480360381019061019b9190611827565b610491565b005b6101bc60048036038101906101b79190611877565b610590565b005b6101d860048036038101906101d39190611827565b6105b6565b005b6101f460048036038101906101ef919061173c565b6105d5565b60405161020191906117a6565b60405180910390f35b610224600480360381019061021f9190611877565b6105e6565b60405161023191906118b1565b60405180910390f35b61024261069c565b60405161024f91906116e9565b60405180910390f35b610272600480360381019061026d91906118f4565b61072c565b005b61028e60048036038101906102899190611a5e565b610742565b005b6102aa60048036038101906102a5919061173c565b61075f565b6040516102b791906116e9565b60405180910390f35b6102da60048036038101906102d59190611ade565b6107c5565b6040516102e79190611646565b60405180910390f35b5f7f80ac58cd000000000000000000000000000000000000000000000000000000007bffffffffffffffffffffffffffffffffffffffffffffffffffffffff1916827bffffffffffffffffffffffffffffffffffffffffffffffffffffffff191614806103ba57507f5b5e139f000000000000000000000000000000000000000000000000000000007bffffffffffffffffffffffffffffffffffffffffffffffffffffffff1916827bffffffffffffffffffffffffffffffffffffffffffffffffffffffff1916145b806103ca57506103c982610853565b5b9050919050565b60605f80546103df90611b49565b80601f016020809104026020016040519081016040528092919081815260200182805461040b90611b49565b80156104565780601f1061042d57610100808354040283529160200191610456565b820191905f5260205f20905b81548152906001019060200180831161043957829003601f168201915b5050505050905090565b5f61046a826108bc565b5061047482610942565b9050919050565b61048d828261048861097b565b610982565b5050565b5f73ffffffffffffffffffffffffffffffffffffffff168273ffffffffffffffffffffffffffffffffffffffff1603610501575f6040517f64a0ae920000000000000000000000000000000000000000000000000000000081526004016104f891906117a6565b60405180910390fd5b5f610514838361050f61097b565b610994565b90508373ffffffffffffffffffffffffffffffffffffffff168173ffffffffffffffffffffffffffffffffffffffff161461058a578382826040517f64283d7b00000000000000000000000000000000000000000000000000000000815260040161058193929190611b79565b60405180910390fd5b50505050565b60065f8154809291906105a290611bdb565b91905055506105b381600654610b9f565b50565b6105d083838360405180602001604052805f815250610742565b505050565b5f6105df826108bc565b9050919050565b5f8073ffffffffffffffffffffffffffffffffffffffff168273ffffffffffffffffffffffffffffffffffffffff1603610657575f6040517f89c62b6400000000000000000000000000000000000000000000000000000000815260040161064e91906117a6565b60405180910390fd5b60035f8373ffffffffffffffffffffffffffffffffffffffff1673ffffffffffffffffffffffffffffffffffffffff1681526020019081526020015f20549050919050565b6060600180546106ab90611b49565b80601f01602080910402602001604051908101604052809291908181526020018280546106d790611b49565b80156107225780601f106106f957610100808354040283529160200191610722565b820191905f5260205f20905b81548152906001019060200180831161070557829003601f168201915b5050505050905090565b61073e61073761097b565b8383610bbc565b5050565b61074d848484610491565b61075984848484610d25565b50505050565b606061076a826108bc565b505f610774610ed7565b90505f8151116107925760405180602001604052805f8152506107bd565b8061079c84610ef7565b6040516020016107ad929190611c5c565b6040516020818303038152906040525b915050919050565b5f60055f8473ffffffffffffffffffffffffffffffffffffffff1673ffffffffffffffffffffffffffffffffffffffff1681526020019081526020015f205f8373ffffffffffffffffffffffffffffffffffffffff1673ffffffffffffffffffffffffffffffffffffffff1681526020019081526020015f205f9054906101000a900460ff16905092915050565b5f7f01ffc9a7000000000000000000000000000000000000000000000000000000007bffffffffffffffffffffffffffffffffffffffffffffffffffffffff1916827bffffffffffffffffffffffffffffffffffffffffffffffffffffffff1916149050919050565b5f806108c783610fc1565b90505f73ffffffffffffffffffffffffffffffffffffffff168173ffffffffffffffffffffffffffffffffffffffff160361093957826040517f7e27328900000000000000000000000000000000000000000000000000000000815260040161093091906118b1565b60405180910390fd5b80915050919050565b5f60045f8381526020019081526020015f205f9054906101000a900473ffffffffffffffffffffffffffffffffffffffff169050919050565b5f33905090565b61098f8383836001610ffa565b505050565b5f8061099f84610fc1565b90505f73ffffffffffffffffffffffffffffffffffffffff168373ffffffffffffffffffffffffffffffffffffffff16146109e0576109df8184866111b9565b5b5f73ffffffffffffffffffffffffffffffffffffffff168173ffffffffffffffffffffffffffffffffffffffff1614610a6b57610a1f5f855f80610ffa565b600160035f8373ffffffffffffffffffffffffffffffffffffffff1673ffffffffffffffffffffffffffffffffffffffff1681526020019081526020015f205f82825403925050819055505b5f73ffffffffffffffffffffffffffffffffffffffff168573ffffffffffffffffffffffffffffffffffffffff1614610aea57600160035f8773ffffffffffffffffffffffffffffffffffffffff1673ffffffffffffffffffffffffffffffffffffffff1681526020019081526020015f205f82825401925050819055505b8460025f8681526020019081526020015f205f6101000a81548173ffffffffffffffffffffffffffffffffffffffff021916908373ffffffffffffffffffffffffffffffffffffffff160217905550838573ffffffffffffffffffffffffffffffffffffffff168273ffffffffffffffffffffffffffffffffffffffff167fddf252ad1be2c89b69c2b068fc378daa952ba7f163c4a11628f55a4df523b3ef60405160405180910390a4809150509392505050565b610bb8828260405180602001604052805f81525061127c565b5050565b5f73ffffffffffffffffffffffffffffffffffffffff168273ffffffffffffffffffffffffffffffffffffffff1603610c2c57816040517f5b08ba18000000000000000000000000000000000000000000000000000000008152600401610c2391906117a6565b60405180910390fd5b8060055f8573ffffffffffffffffffffffffffffffffffffffff1673ffffffffffffffffffffffffffffffffffffffff1681526020019081526020015f205f8473ffffffffffffffffffffffffffffffffffffffff1673ffffffffffffffffffffffffffffffffffffffff1681526020019081526020015f205f6101000a81548160ff0219169083151502179055508173ffffffffffffffffffffffffffffffffffffffff168373ffffffffffffffffffffffffffffffffffffffff167f17307eab39ab6107e8899845ad3d59bd9653f200f220920489ca2b5937696c3183604051610d189190611646565b60405180910390a3505050565b5f8373ffffffffffffffffffffffffffffffffffffffff163b1115610ed1578273ffffffffffffffffffffffffffffffffffffffff1663150b7a02610d6861097b565b8685856040518563ffffffff1660e01b8152600401610d8a9493929190611cd1565b6020604051808303815f875af1925050508015610dc557506040513d601f19601f82011682018060405250810190610dc29190611d2f565b60015b610e46573d805f8114610df3576040519150601f19603f3d011682016040523d82523d5f602084013e610df8565b606091505b505f815103610e3e57836040517f64a0ae92000000000000000000000000000000000000000000000000000000008152600401610e3591906117a6565b60405180910390fd5b805181602001fd5b63150b7a0260e01b7bffffffffffffffffffffffffffffffffffffffffffffffffffffffff1916817bffffffffffffffffffffffffffffffffffffffffffffffffffffffff191614610ecf57836040517f64a0ae92000000000000000000000000000000000000000000000000000000008152600401610ec691906117a6565b60405180910390fd5b505b50505050565b6060604051806080016040528060468152602001611daf60469139905090565b60605f6001610f0584611297565b0190505f8167ffffffffffffffff811115610f2357610f2261193a565b5b6040519080825280601f01601f191660200182016040528015610f555781602001600182028036833780820191505090505b5090505f82602001820190505b600115610fb6578080600190039150507f3031323334353637383961626364656600000000000000000000000000000000600a86061a8153600a8581610fab57610faa611d5a565b5b0494505f8503610f62575b819350505050919050565b5f60025f8381526020019081526020015f205f9054906101000a900473ffffffffffffffffffffffffffffffffffffffff169050919050565b808061103257505f73ffffffffffffffffffffffffffffffffffffffff168273ffffffffffffffffffffffffffffffffffffffff1614155b15611164575f611041846108bc565b90505f73ffffffffffffffffffffffffffffffffffffffff168373ffffffffffffffffffffffffffffffffffffffff16141580156110ab57508273ffffffffffffffffffffffffffffffffffffffff168173ffffffffffffffffffffffffffffffffffffffff1614155b80156110be57506110bc81846107c5565b155b1561110057826040517fa9fbf51f0000000000000000000000000000000000000000000000000000000081526004016110f791906117a6565b60405180910390fd5b811561116257838573ffffffffffffffffffffffffffffffffffffffff168273ffffffffffffffffffffffffffffffffffffffff167f8c5be1e5ebec7d5bd14f71427d1e84f3dd0314c0f7b2291e5b200ac8c7c3b92560405160405180910390a45b505b8360045f8581526020019081526020015f205f6101000a81548173ffffffffffffffffffffffffffffffffffffffff021916908373ffffffffffffffffffffffffffffffffffffffff16021790555050505050565b6111c48383836113e8565b611277575f73ffffffffffffffffffffffffffffffffffffffff168373ffffffffffffffffffffffffffffffffffffffff160361123857806040517f7e27328900000000000000000000000000000000000000000000000000000000815260040161122f91906118b1565b60405180910390fd5b81816040517f177e802f00000000000000000000000000000000000000000000000000000000815260040161126e929190611d87565b60405180910390fd5b505050565b61128683836114a8565b6112925f848484610d25565b505050565b5f805f90507a184f03e93ff9f4daa797ed6e38ed64bf6a1f01000000000000000083106112f3577a184f03e93ff9f4daa797ed6e38ed64bf6a1f01000000000000000083816112e9576112e8611d5a565b5b0492506040810190505b6d04ee2d6d415b85acef81000000008310611330576d04ee2d6d415b85acef8100000000838161132657611325611d5a565b5b0492506020810190505b662386f26fc10000831061135f57662386f26fc10000838161135557611354611d5a565b5b0492506010810190505b6305f5e1008310611388576305f5e100838161137e5761137d611d5a565b5b0492506008810190505b61271083106113ad5761271083816113a3576113a2611d5a565b5b0492506004810190505b606483106113d057606483816113c6576113c5611d5a565b5b0492506002810190505b600a83106113df576001810190505b80915050919050565b5f8073ffffffffffffffffffffffffffffffffffffffff168373ffffffffffffffffffffffffffffffffffffffff161415801561149f57508273ffffffffffffffffffffffffffffffffffffffff168473ffffffffffffffffffffffffffffffffffffffff161480611460575061145f84846107c5565b5b8061149e57508273ffffffffffffffffffffffffffffffffffffffff1661148683610942565b73ffffffffffffffffffffffffffffffffffffffff16145b5b90509392505050565b5f73ffffffffffffffffffffffffffffffffffffffff168273ffffffffffffffffffffffffffffffffffffffff1603611518575f6040517f64a0ae9200000000000000000000000000000000000000000000000000000000815260040161150f91906117a6565b60405180910390fd5b5f61152483835f610994565b90505f73ffffffffffffffffffffffffffffffffffffffff168173ffffffffffffffffffffffffffffffffffffffff1614611596575f6040517f73c6ac6e00000000000000000000000000000000000000000000000000000000815260040161158d91906117a6565b60405180910390fd5b505050565b5f604051905090565b5f80fd5b5f80fd5b5f7fffffffff0000000000000000000000000000000000000000000000000000000082169050919050565b6115e0816115ac565b81146115ea575f80fd5b50565b5f813590506115fb816115d7565b92915050565b5f60208284031215611616576116156115a4565b5b5f611623848285016115ed565b91505092915050565b5f8115159050919050565b6116408161162c565b82525050565b5f6020820190506116595f830184611637565b92915050565b5f81519050919050565b5f82825260208201905092915050565b5f5b8381101561169657808201518184015260208101905061167b565b5f8484015250505050565b5f601f19601f8301169050919050565b5f6116bb8261165f565b6116c58185611669565b93506116d5818560208601611679565b6116de816116a1565b840191505092915050565b5f6020820190508181035f83015261170181846116b1565b905092915050565b5f819050919050565b61171b81611709565b8114611725575f80fd5b50565b5f8135905061173681611712565b92915050565b5f60208284031215611751576117506115a4565b5b5f61175e84828501611728565b91505092915050565b5f73ffffffffffffffffffffffffffffffffffffffff82169050919050565b5f61179082611767565b9050919050565b6117a081611786565b82525050565b5f6020820190506117b95f830184611797565b92915050565b6117c881611786565b81146117d2575f80fd5b50565b5f813590506117e3816117bf565b92915050565b5f80604083850312156117ff576117fe6115a4565b5b5f61180c858286016117d5565b925050602061181d85828601611728565b9150509250929050565b5f805f6060848603121561183e5761183d6115a4565b5b5f61184b868287016117d5565b935050602061185c868287016117d5565b925050604061186d86828701611728565b9150509250925092565b5f6020828403121561188c5761188b6115a4565b5b5f611899848285016117d5565b91505092915050565b6118ab81611709565b82525050565b5f6020820190506118c45f8301846118a2565b92915050565b6118d38161162c565b81146118dd575f80fd5b50565b5f813590506118ee816118ca565b92915050565b5f806040838503121561190a576119096115a4565b5b5f611917858286016117d5565b9250506020611928858286016118e0565b9150509250929050565b5f80fd5b5f80fd5b7f4e487b71000000000000000000000000000000000000000000000000000000005f52604160045260245ffd5b611970826116a1565b810181811067ffffffffffffffff8211171561198f5761198e61193a565b5b80604052505050565b5f6119a161159b565b90506119ad8282611967565b919050565b5f67ffffffffffffffff8211156119cc576119cb61193a565b5b6119d5826116a1565b9050602081019050919050565b828183375f83830152505050565b5f611a026119fd846119b2565b611998565b905082815260208101848484011115611a1e57611a1d611936565b5b611a298482856119e2565b509392505050565b5f82601f830112611a4557611a44611932565b5b8135611a558482602086016119f0565b91505092915050565b5f805f8060808587031215611a7657611a756115a4565b5b5f611a83878288016117d5565b9450506020611a94878288016117d5565b9350506040611aa587828801611728565b925050606085013567ffffffffffffffff811115611ac657611ac56115a8565b5b611ad287828801611a31565b91505092959194509250565b5f8060408385031215611af457611af36115a4565b5b5f611b01858286016117d5565b9250506020611b12858286016117d5565b9150509250929050565b7f4e487b71000000000000000000000000000000000000000000000000000000005f52602260045260245ffd5b5f6002820490506001821680611b6057607f821691505b602082108103611b7357611b72611b1c565b5b50919050565b5f606082019050611b8c5f830186611797565b611b9960208301856118a2565b611ba66040830184611797565b949350505050565b7f4e487b71000000000000000000000000000000000000000000000000000000005f52601160045260245ffd5b5f611be582611709565b91507fffffffffffffffffffffffffffffffffffffffffffffffffffffffffffffffff8203611c1757611c16611bae565b5b600182019050919050565b5f81905092915050565b5f611c368261165f565b611c408185611c22565b9350611c50818560208601611679565b80840191505092915050565b5f611c678285611c2c565b9150611c738284611c2c565b91508190509392505050565b5f81519050919050565b5f82825260208201905092915050565b5f611ca382611c7f565b611cad8185611c89565b9350611cbd818560208601611679565b611cc6816116a1565b840191505092915050565b5f608082019050611ce45f830187611797565b611cf16020830186611797565b611cfe60408301856118a2565b8181036060830152611d108184611c99565b905095945050505050565b5f81519050611d29816115d7565b92915050565b5f60208284031215611d4457611d436115a4565b5b5f611d5184828501611d1b565b91505092915050565b7f4e487b71000000000000000000000000000000000000000000000000000000005f52601260045260245ffd5b5f604082019050611d9a5f830185611797565b611da760208301846118a2565b939250505056fe68747470733a2f2f746f6b656e2e617274626c6f636b732e696f2f3078386344426437303130426431393738343865393543314644374636453837304161433962306433432fa264697066735822122097f2eb1f57c2389ec9e2246a756205753474a10040a708068fcbc9d5d52e156d64736f6c63430008140033",
  "linkReferences": {},
  "deployedLinkReferences": {}
}